:020000040800F2
:1000000008040020D50000086D050008F103000871
:1000100000000000000000000000000000000000E0
:100020000000000000000000000000007105000852
:1000300000000000000000006F05000873050008C4
:10004000E7000008E7000008E7000008E7000008F4
:10005000E7000008E7000008E7000008E7000008E4
:10006000E7000008ED030008EF030008E7000008C0
:10007000E7000008E7000008E7000008E7000008C4
:10008000E7000008E7000008E7000008E7000008B4
:10009000E7000008E7000008E7000008E7000008A4
:1000A000E7000008E7000008E7000008E700000894
:1000B000E7000008E7000008E7000008044885465C
:1000C00000F02CF80048004797060008C046C046DC
:1000D000080400200448804704480047FEE7FEE784
:1000E000FEE7FEE7FEE7FEE70D060008BD0000089C
:1000F00030B50B46014600202022012409E00D46C0
:10010000D5409D4205D31D469540491B2546954047
:1001100040191546521E002DF1DC30BD064C01255C
:10012000064E05E0E36807CC2B430C3C984710349F
:10013000B442F7D3FFF7C6FF54070008740700085E
:10014000F8B50020114E124C00903146204600F0C8
:1001500073F9104D2046294600F06EF90F480E49FC
:100160000068FFF7C5FFC0000A21FFF7C1FF00E0EC
:10017000401E00900028FBD13146204600F06CF96B
:100180002946204600F068F9F8BD00000100100281
:100190000074004072004035400D03000000002054
:1001A000F8B527480121426B0A434263406B05249E
:1001B00008402407009003221021204600F0B6F9E1
:1001C00003222021204600F0B1F90021112000F087
:1001D00031FA112000F022FA0121122000F02AFA4F
:1001E000122000F01BFA0120400700F003F9154E21
:1001F000154C14223146204600F036F9134F1822D0
:100200003946204600F030F900252B462A46314673
:100210002046009500F0FAF800231A463946204699
:10022000009500F0F3F83146204600F00DF939460C
:10023000204600F009F92068611408432060F8BDE9
:1002400000100240010010020074004072004035AE
:10025000F8B50221092000F0EDF9092000F0DEF9DF
:1002600003210A2000F0E6F90A2000F0D7F92A4815
:100270000121826B0A438263806B284C0840284D21
:10028000009022460021284600F00EF92246012166
:10029000284600F009F908220021284600F032F92A
:1002A00009220121284600F02DF91F4E1C221D496C
:1002B000304600F0B9F8102403461C4A00212846B5
:1002C000009400F0DDF81C221949304600F0ACF82B
:1002D000164A0346403201212846009400F0D0F827
:1002E00020220021284600F001F920220121284681
:1002F00000F0FCF80021284600F0EEF80121284625
:1003000000F0EAF80021284600F0DCF80121284638
:1003100000F0D8F8F8BD000000100240B025000041
:10032000000002400100100200740040B406000802
:100330007200403570B52748826807210903274BB2
:100340000A4225491D68806807D14004400F80009B
:10035000085CC006C00EC54007E04004400F8000A6
:10036000085CC006C00EC5406D001D492846FFF759
:10037000BFFE401C7D210902044641432846FFF789
:10038000B7FE0546102000F035F8202000F032F8C6
:100390001449601E8862144A9062681EC8626D1E0D
:1003A000D5620B68702083430B601368834313602E
:1003B0004B682024834323434B6053688343234388
:1003C00053600B68012003430B6011680143116007
:1003D00070BD00000010024034070008000000203B
:1003E000FEFF0000001000400014004070477047FE
:1003F000FEE7000008B50449CA6B0243CA63C96B33
:100400000140009108BD00000010024070B5049D3D
:10041000C46B1026314007268E401A432A43B4434A
:100420008A401443C46370BDD206D20ED14009077E
:10043000890E0818083070470268102319400123FC
:100440008B401A43026070470268102319401B0258
:100450008B401A4302607047026810231940022340
:100460008B401A430260704710B503681024214086
:100470003C248C40A3438A401343036010BD00001A
:10048000F0B5084C0546059E0C35675C0830102E0B
:1004900003D03A50605C4351F0BD7A51615C0B501F
:1004A000F0BD0000AC06000810B5044B5B5CC15801
:1004B000034C21401143C15010BD0000AC060008A0
:1004C0000F80FFFF034A515C425801231A434250F8
:1004D00070470000AC060008034A515C42580823EC
:1004E0001A43425070470000AC060008044B001D40
:1004F000595C0B581B0C1B0413430B507047000036
:10050000AC060008074B800A5840C300181A0818A8
:1005100081000548081801688909890111430160B3
:1005200070470000800010000008024010B503680A
:1005300049434C000C19A34351430B43036010BDC6
:1005400010B57D21C900FFF7D3FD0449401E486165
:10055000002088610520086110BD000000E000E077
:10056000014908607047000000000020FEE7704766
:100570007047704710B5204902200A68D208D2009F
:1005800002430A601D480168821511430160016839
:100590004905C90FFBD01A49C2681A4B1A401143CA
:1005A000C16001680122120611430160C168120195
:1005B0001143C16001688901C90FFBD08268022123
:1005C000D208D2000A438260382281681140102983
:1005D000FBD181680F22120291438160816807225A
:1005E000120391438160084C2046FFF7A9FF204683
:1005F000FFF7B6FF10BD00000020024000100240CF
:10060000324600808C80FF1F007E56030120024985
:10061000C00688607047000000ED00E0002805DBA0
:10062000C106C90E012088400149086070470000DA
:1006300000E100E08307FF22DB0E9A408907090EE4
:100640009940002808DB830809489B001B1818689C
:1006500090430843186070470007000F083883086C
:1006600004489B001B18D86990430843D861704721
:1006700000E400E000ED00E002E008C8121F08C13D
:10068000002AFAD170477047002001E001C1121F13
:10069000002AFBD17047FFF76DFFFFF7D9FDFFF789
:1006A00049FEFFF77DFDFFF74BFDFEE7081C3044D8
:1006B000586C80000000F401E803DC05D007C40991
:1006C000B80BAC0DAC0DAC0DAC0DAC0DAC0DAC0D58
:1006D000AC0DAC0DAC0DB80BC409D007DC05E803BC
:1006E000F401000000000000000000000000000015
:1006F00000000000000000000000000000000000FA
:10070000000000000000F401E803DC05D007C40984
:10071000B80BAC0DAC0DAC0DAC0DAC0DAC0DAC0D07
:10072000AC0DAC0DAC0DB80BC409D007DC05E8036B
:10073000F4010000000000000000000000000000C4
:1007400000000000010000000200000003000000A3
:1007500004000000740700080000002004000000EE
:100760007806000878070008040000200404000050
:08077000880600080024F400D3
:04000005080000BD32
:00000001FF
