:020000040800F2
:10000000F8040020D5000008890D0008250D00081F
:1000100000000000000000000000000000000000E0
:100020000000000000000000000000008D0D00082E
:1000300000000000000000008B0D00088F0D00087C
:10004000E7000008E7000008E7000008E7000008F4
:10005000E7000008E7000008E7000008E7000008E4
:10006000E700000865010008E7000008E700000855
:10007000E7000008E7000008E7000008E7000008C4
:10008000E7000008E7000008E7000008E7000008B4
:10009000E7000008E7000008E7000008E7000008A4
:1000A000E7000008E7000008E7000008E700000894
:1000B000E7000008E7000008E7000008044885465C
:1000C00000F03EF8004800477D0E0008C046C046DC
:1000D000F80400200448804704480047FEE7FEE794
:1000E000FEE7FEE7FEE7FEE7F10D0008BD000008B1
:1000F00030B50B46014600202022012409E00D46C0
:10010000D5409D4205D31D469540491B2546954047
:1001100040191546521E002DF1DC30BDD2B201E06F
:100120000270401C491EFBD270470022F6E710B552
:1001300013460A4604461946FFF7F0FF204610BD55
:10014000064C0125064E05E0E36807CC2B430C3C2A
:1001500098471034B442F7D3FFF7B4FF00100008FB
:100160002010000810B5024800F054F810BD00003F
:100170001800002010B50446006C09498008800072
:1001800040186064207814210838FFF7B1FF044953
:100190008031A164C106C90E01208840E06410BD11
:1001A000000802400179084B8906890E8A00D2189E
:1001B0000265054A4432491E42658A07920F0121B1
:1001C0009140816570470000FC080240F0B5846CE6
:1001D000C56C6560046D002C02D0446D856D656052
:1001E0000B4C6568066C1C273E400127B7403D4319
:1001F0006560046863608368102B036803D09960AE
:100200000068C260F0BD9A600068C160F0BD000087
:1002100000000240F0B42C490C6802681368056CB9
:100220001C273D400426AE40264211D05E070FD564
:1002300013689B0603D4146804239C4314604B6822
:10024000046C04223C40A24013434B60016B1CE051
:100250000227AF40064627402036002F19D09F07BF
:1002600017D513689B0605D413680A24A3431360AB
:10027000012272714B68046C1C2214400222A240BD
:1002800013434B6000213171C16A00291AD0F0BCC0
:1002900008470827AF40274214D01B0712D5136820
:1002A0000E24A34313604B68046C1C2214400122EB
:1002B0001546A5402B434B60C2637271002131711A
:1002C000416BE2E7F0BC70470000024070B50400EB
:1002D0003FD02548256814212818FFF709FF800022
:1002E0002064022026462036707128681F49084085
:1002F0002860E168A06862690843216911430843E6
:10030000A1690843E1690843216A084321680A6832
:10031000104308602046FFF72DFF0121A0688903E4
:100320000025884200D165602079616C8006800ECE
:100330000860A06CE16C41606068401E03280AD828
:100340002046FFF72FFF206D0560606DA16D4160B5
:1003500004E0012070BD25656565A565E5630120A4
:1003600070713571002070BDF8FFFDBF0F80FFFF79
:1003700030B50446203425790023012D05D0012510
:1003800025716579012D02D009E0022030BD0029D8
:100390000AD001290AD002290AD003290AD0012350
:1003A00000202071184630BDC262F9E70263F7E70A
:1003B0004263F5E78263F3E7F8B504468C462030E4
:1003C0000179002501290BD001260671417900270A
:1003D000012907D08021E163077101252846F8BD76
:1003E0000220F8BD02214171E763206801684908D5
:1003F0004900016061462046FFF7E8FE206B0028B7
:100400002068016801D00E2205E0042291430160BA
:10041000206801680A2211430160606C0168CA0308
:10042000074902D502680A430260206D002802D005
:1004300002680A4302602068016831430160CDE729
:100440000001000070B5044600F0CAF80546601CC3
:1004500002D004480078241800F0C2F8401BA042E3
:10046000FAD370BD08000020FCB5002301259AE0F6
:1004700022462C469C4022406FD04E68012E05D06B
:10048000022E03D0112E01D0122E16D1866803271A
:10049000B4465E00B646B7406646BE43B446CF6833
:1004A0007646B7406646374387604668A6430C7970
:1004B000E406E40F9C4034434460C6685F000324B4
:1004C000BC40A446A6438C68BC403443C4604C681E
:1004D000022C01D0122C14D1DC08A40024180194A1
:1004E000266A5C07B646E60E0F24B44000967646B0
:1004F000A643B6460C69009EB44076462643019C4E
:10050000266204686646B4430E79B607B60FBE404D
:10051000264306604C68E40044D59E08254CB6008E
:100520003419A446246E9E07F60E0F27B740BC432D
:1005300005273F07B84201D1002710E01E4FB842FF
:1005400001D101270BE01D4FB84201D1022706E07F
:100550001B4FB84202D1032701E023E00527B74033
:10056000274364462766134E803634684F689443A9
:10057000FF0300D51443346074684F689443BF038D
:1005800000D5144374600B4C26684F689643FF02F5
:1005900000D51643266066684F689643BF0200D5B3
:1005A000164366605B1C0A681446DA4000D05FE7B9
:1005B000FCBD00000018024000040050000800507C
:1005C000000C0050426913460B401B0491430B433F
:1005D00083617047002A01D0816170478162704752
:1005E00001488068704700000800002002488168C8
:1005F00002788918816070470800002010B508480B
:1006000000240168821511430160204600F00AF8B9
:10061000002801D0012401E000F028F8204610BD98
:100620000020024070B50F4E0024317805460029A5
:1006300015D07D20C000FFF75BFD01460A48006829
:10064000FFF756FD00F056FB002808D1042D06D216
:1006500000222946401E00F02FF8756000E00124BA
:10066000204670BD080000201400002008B50B488B
:1006700001680122114301600068104000900748A2
:100680004038C26B01040A43C263C06B084000904B
:100690000320400200F024FB08BD0000401002408F
:1006A000002805DBC106C90E012088400149086009
:1006B0007047000000E100E010B500F0ADFB10BD98
:1006C00010B50F4C2168032252029143014321606F
:1006D000C11FFF39FA390ED10A4806210068484384
:1006E0000949FFF705FD401C02E0002805D0401E27
:1006F00061694905F9D4002010BD032010BD000038
:10070000007000401400002040420F00F8B50F4672
:10071000060043D04D4D28684007400FB84213D221
:100720002868C008C00038432860FFF759FF044616
:1007300005E0FFF755FF011B4548814261D8286855
:100740004007400FB842F4D13068424C81070DD5C4
:10075000400704D5A068072109030843A060A068EA
:100760000F2109028843B1680843A0603078C007B0
:1007700032D0706801280AD002280BD000280FD090
:100780003449403103280ED0C969890704E0216843
:10079000890301E021688901002906DB0120F8BDF9
:1007A00021684905F8E7096AEFE7A168C908C900A7
:1007B0000143A160FFF714FF009006E0FFF710FF70
:1007C0000099411A224881421BD8A068382108406C
:1007D0007168C9008842F1D128684007400FB842CB
:1007E00017D91A480168C908C90039430160FFF7E1
:1007F000F7FE054607E0FFF7F3FE411B1448814270
:1008000001D90320F8BD114800684007400FB842E5
:10081000F1D13078400706D5A06807210903884345
:10082000F1680843A06000F01DF8A1683C22890926
:100830001140094A515CC906C90EC8400749086001
:1008400007480068FFF7EEFEF8BD000000200240F8
:100850008813000000100240C00F000814000020A0
:100860000C00002010B5204CA068204A8006400FE4
:1008700016D0A0688006410F501001290FD0A16842
:100880008906490F022912D0A0688006400F04286B
:1008900023D0A0688006400F032821D0002010BD7F
:1008A000206801218004400F8140104612E0E16879
:1008B0008B07E1689B0F4906490F491C032B00D0A9
:1008C0001046FFF715FCE1684904490E4843E1680A
:1008D000490F491CFFF70CFC10BD0120C00310BDDF
:1008E0007D20000210BD0000001002400024F40032
:1008F000F8B504007ED020783827C007EF4D0028D7
:1009000046D0A868E96838408907890F102802D0C6
:1009100008280BD001E0032908D0012062680004F8
:1009200082420AD129680143296015E028688003C2
:100930002ED560680028DDD02AE0052301211B04A4
:1009400089049A422A6802D10A432A60EAE782436C
:100950002A60286888432860606800280CD0FFF768
:100960003FFE064604E0FFF73BFE801B642873D879
:1009700028688003F7D50BE0FFF732FE064604E057
:10098000FFF72EFE801B6428F1D828688003F7D477
:100990002078800769D5A868E96838408A07072168
:1009A000920FC902102802D0002813D001E0022AB9
:1009B00010D0E068002846D02868884321690843A1
:1009C00028602868FF21013108432860FFF708FEEE
:1009D00006462CE02A68520502D5E268002A89D032
:1009E0006A687F231B029A4363691B021A436A6089
:1009F000002800E08DE00ED1286888432169084373
:100A00002860286801218004400F8140AC48FFF72E
:100A10006FFBAC490860AC480068FFF703FE002894
:100A200077D122E0FFF7DCFD801B02289FD82868E1
:100A30004005F7D568687F2109028843616909028A
:100A40000843686011E02968FF2001308143296074
:100A5000FFF7C6FD064605E098E0FFF7C1FD801BE5
:100A6000022884D828684005F7D42078974E0007DC
:100A70002ED5A8688006400F03280AD0A069002858
:100A8000306A16D0012108433062FFF7A9FD0746FE
:100A90000BE0306A80071BD5A06900289FD017E0C3
:100AA000FFF79EFDC01B022870D8306A8007F7D57B
:100AB0000EE0400840003062FFF792FD074604E078
:100AC000FFF78EFDC01B022860D8306A8007F7D47C
:100AD000207840076CD5A86800278006400F0428BE
:100AE00018D0E86BC00008D4E96B0120000701436F
:100AF000E963E96B01400127009175480168C90568
:100B000019D40168821511430160FFF769FD009057
:100B10000DE083E0F06980074AD5A06800287DD009
:100B200046E0FFF75DFD0099401A02282ED868487C
:100B30000068C005F5D5A168012910D00420052959
:100B4000F16911D049084900F161F1698143F1610E
:100B5000A068002816D0FFF743FD00900EE0F06972
:100B600001210843F061F3E70143F161F7E7FFF783
:100B700037FD0099411A574881426FD8F0698007C4
:100B8000F5D50EE0FFF72CFD009007E066E0FFF7DB
:100B900027FD0099411A4F4881425FD8F0698007CC
:100BA000F5D4002F04D0E86B012109078843E863DE
:100BB000E06900287FD0A9688906490F022953D02F
:100BC00001263606022828680DD0B0432860E86860
:100BD00080088000E860E8683F490840E860FFF767
:100BE000FFFC04463CE0B0432860FFF7F9FC0746F1
:100BF00004E0FFF7F5FCC01B02282FD8286880010D
:100C0000F7D4616A206AA26A0843E16A12021143BA
:100C10000843216B0843616B084300E049E0E96841
:100C20002E4A11400843E860286830432860E8688D
:100C3000012109070843E860FFF7D2FC044604E0FD
:100C4000FFF7CEFC001B022808D828688001F7D5E2
:100C500031E0FFF7C5FC001B022801D90320F8BDD5
:100C600028688001F5D426E00128F8D0E868226AD7
:100C70008107890F91421CD17021626A0140914223
:100C800017D17F21A26A090201401202914210D1BC
:100C90001F214904E26A014091420AD10721490615
:100CA000226B0140914204D1400F616B40078842A2
:100CB00001D00120F8BD0020F8BD00000010024066
:100CC0000024F400140000200C000020401002401A
:100CD0000070004088130000FFFFFEEE8C80C11101
:100CE00003490A6803235B029A4302430A60704780
:100CF00000000140094910B5401E884201D9012079
:100D000010BD074C60610321081F00F085F800202A
:100D1000A06107202061002010BD0000FFFFFF0040
:100D200000E000E0FEE7000008B51448816B0122F6
:100D300011438163806B1249104000901148920367
:100D400001608260002141604022C2608022026115
:100D5000920042619200C16182610162FFF7B6FABE
:100D6000002801D072B6FEE7002211460920FFF7E5
:100D7000A3FC0920FFF794FC08BD0000001002400E
:100D80000800024018000020FEE77047704710B5C9
:100D9000FFF72CFC10BD10B592B038216846FFF764
:100DA000C4F9002401200E940F9410944002119471
:100DB000FFF786FC02200090C001039040200590C0
:100DC000049407946846FFF793FD002801D072B69B
:100DD000FEE707200E900F941094002111940EA8A6
:100DE000FFF794FC002801D072B6FEE712B010BDE8
:100DF00001200249C00688607047000000ED00E055
:100E0000014901204860704700000020014901208D
:100E100008607047000000208307FF22DB0E9A4025
:100E20008907090E9940002808DB830809489B00C0
:100E30001B18186890430843186070470007000F9C
:100E40000838830804489B001B18D869904308435E
:100E5000D861704700E400E000ED00E002E008C85F
:100E6000121F08C1002AFAD170477047002001E024
:100E700001C1121F002AFBD17047000086B0FFF7A6
:100E8000BDFBFFF788FF14216846FFF74EF926489F
:100E9000416B012421434163406B05262040360706
:100EA0000590002220213046FFF794FB019420207A
:100EB000002400900294694630460394FFF7D4FA68
:100EC000FFF732FF194D2C606C6000222021304664
:100ED000FFF780FB164A00211648FFF749FA164A29
:100EE00002211448FFF744FA124A20235C321349C6
:100EF0001048FFF761FA002801D072B6FEE72868B3
:100F0000012806D120213046FFF75CFBC820FFF7FF
:100F100099FA68680128F2D1012220213046FFF7B2
:100F200059FB6C60EBE7000000100240000000205D
:100F3000010E0008180000200D0E0008400F0008E8
:100F400004030201080706050C0B0A09100F0E0D19
:100F500014131211181716151C1B1A19201F1E1D09
:100F600024232221282726252C2B2A29302F2E2DF9
:100F700034333231383736353C3B3A39403F3E3DE9
:100F800044434241484746454C4B4A49504F4E4DD9
:100F900054535251585756555C5B5A59605F5E5DC9
:100FA00064636261686766656C6B6A69706F6E6DB9
:100FB00074737271787776757C7B7A79807F7E7DA9
:100FC0000000000000000000000000000000000021
:100FD0000000000000000000000000000000000011
:100FE00001000000020000000300000004000000F7
:100FF00006000000070000000800000009000000D3
:101000002010000800000020180000005C0E0008FE
:101010003810000818000020E00400006C0E0008E2
:1010200000000000000000000100000004000000BB
:08103000000000000024F400A0
:04000005080000BD32
:00000001FF
