:020000040800F2
:1000000060040020D5000008CD0B0008550B000847
:1000100000000000000000000000000000000000E0
:10002000000000000000000000000000E1000008E7
:100030000000000000000000E30000088D0C000834
:10004000E7000008E7000008E7000008E7000008F4
:10005000E7000008E7000008E7000008E7000008E4
:10006000E7000008E7000008E7000008E7000008D4
:10007000E7000008E7000008E7000008E7000008C4
:10008000E7000008E7000008E7000008E7000008B4
:10009000E7000008E7000008E7000008E7000008A4
:1000A000E7000008E7000008E7000008E700000894
:1000B000E7000008E7000008E7000008044885465C
:1000C00000F03EF800480047F1100008C046C04666
:1000D000600400200448804704480047FEE7FEE72C
:1000E000FEE7FEE7FEE7FEE7F90C0008BD000008AA
:1000F00030B50B46014600202022012409E00D46C0
:10010000D5409D4205D31D469540491B2546954047
:1001100040191546521E002DF1DC30BDD2B201E06F
:100120000270401C491EFBD270470022F6E710B552
:1001300013460A4604461946FFF7F0FF204610BD55
:10014000064C0125064E05E0E36807CC2B430C3C2A
:1001500098471034B442F7D3FFF7B4FFAC1100084E
:10016000CC11000801490E200860FEE700000020C5
:100170000148806870470000240000200248816820
:1001800002788918816070472400002010B5084863
:1001900000240168821511430160204600F00AF82E
:1001A000002801D0012401E000F028F8204610BD0D
:1001B0000020024070B50F4E00243178054600291A
:1001C00015D07D20C000FFF793FF01460A48006864
:1001D000FFF78EFF00F0A6FC002808D1042D06D200
:1001E00000222946401E00F023F8756000E001243B
:1001F000204670BD240000203000002008B50B48C8
:100200000168012211430160006810400090074816
:100210004038C26B01040A43C263C06B08400090BF
:100220000320400200F074FC08BD000040100240B2
:1002300010B500F07DFD10BDF8B50F46060043D0A7
:100240004D4D28684007400FB84213D22868C008B7
:10025000C00038432860FFF78BFF044605E0FFF736
:1002600087FF011B4548814261D828684007400F3D
:10027000B842F4D13068424C81070DD5400704D50F
:10028000A068072109030843A060A0680F210902A4
:100290008843B1680843A0603078C00732D07068E6
:1002A00001280AD002280BD000280FD03449403151
:1002B00003280ED0C969890704E02168890301E099
:1002C00021688901002906DB0120F8BD2168490564
:1002D000F8E7096AEFE7A168C908C9000143A1600E
:1002E000FFF746FF009006E0FFF742FF0099411A32
:1002F000224881421BD8A068382108407168C90093
:100300008842F1D128684007400FB84217D91A48EF
:100310000168C908C90039430160FFF729FF054694
:1003200007E0FFF725FF411B1448814201D9032054
:10033000F8BD114800684007400FB842F1D130784D
:10034000400706D5A068072109038843F1680843E0
:10035000A06000F01DF8A1683C2289091140094AFB
:10036000515CC906C90EC8400749086007480068C3
:10037000FFF720FFF8BD00000020024088130000B6
:10038000001002406C1100083000002028000020FE
:1003900010B5204CA068204A8006400F16D0A068F7
:1003A0008006410F501001290FD0A1688906490F1E
:1003B000022912D0A0688006400F042823D0A0682C
:1003C0008006400F032821D0002010BD20680121A5
:1003D0008004400F8140104612E0E1688B07E1681D
:1003E0009B0F4906490F491C032B00D01046FFF70D
:1003F0007FFEE1684904490E4843E168490F491C02
:10040000FFF776FE10BD0120C00310BD7D20000265
:1004100010BD0000001002400024F400F8B50400F4
:100420007ED020783827C007EF4D002846D0A86836
:10043000E96838408907890F102802D008280BD0B6
:1004400001E0032908D001206268000482420AD139
:1004500029680143296015E0286880032ED560686B
:100460000028DDD02AE0052301211B0489049A42DB
:100470002A6802D10A432A60EAE782432A60286890
:1004800088432860606800280CD0FFF771FE06469C
:1004900004E0FFF76DFE801B642873D82868800392
:1004A000F7D50BE0FFF764FE064604E0FFF760FEB9
:1004B000801B6428F1D828688003F7D4207880074F
:1004C00069D5A868E96838408A070721920FC902F0
:1004D000102802D0002813D001E0022A10D0E068D2
:1004E000002846D028688843216908432860286886
:1004F000FF21013108432860FFF73AFE06462CE051
:100500002A68520502D5E268002A89D06A687F23EA
:100510001B029A4363691B021A436A60002800E0C9
:100520008DE00ED128688843216908432860286837
:1005300001218004400F8140AC48FFF7D9FDAC4950
:100540000860AC480068FFF735FE002877D122E04C
:10055000FFF70EFE801B02289FD828684005F7D5BC
:1005600068687F210902884361690902084368605D
:1005700011E02968FF20013081432960FFF7F8FD71
:10058000064605E098E0FFF7F3FD801B022884D8BB
:1005900028684005F7D42078974E00072ED5A86824
:1005A0008006400F03280AD0A0690028306A16D0C0
:1005B000012108433062FFF7DBFD07460BE0306A9C
:1005C00080071BD5A06900289FD017E0FFF7D0FD5A
:1005D000C01B022870D8306A8007F7D50EE04008AB
:1005E00040003062FFF7C4FD074604E0FFF7C0FD9E
:1005F000C01B022860D8306A8007F7D420784007F3
:100600006CD5A86800278006400F042818D0E86B36
:10061000C00008D4E96B012000070143E963E96BDE
:1006200001400127009175480168C90519D4016886
:10063000821511430160FFF79BFD00900DE083E000
:10064000F06980074AD5A06800287DD046E0FFF712
:100650008FFD0099401A02282ED868480068C0050E
:10066000F5D5A168012910D004200529F16911D020
:1006700049084900F161F1698143F161A0680028EE
:1006800016D0FFF775FD00900EE0F06901210843D8
:10069000F061F3E70143F161F7E7FFF769FD0099C6
:1006A000411A574881426FD8F0698007F5D50EE0AE
:1006B000FFF75EFD009007E066E0FFF759FD009947
:1006C000411A4F4881425FD8F0698007F5D4002F66
:1006D00004D0E86B012109078843E863E06900283A
:1006E0007FD0A9688906490F022953D00126360612
:1006F000022828680DD0B0432860E8688008800090
:10070000E860E8683F490840E860FFF731FD0446CB
:100710003CE0B0432860FFF72BFD074604E0FFF7FD
:1007200027FDC01B02282FD828688001F7D4616AF2
:10073000206AA26A0843E16A120211430843216B4E
:100740000843616B084300E049E0E9682E4A114024
:100750000843E860286830432860E86801210907F9
:100760000843E860FFF704FD044604E0FFF700FDDE
:10077000001B022808D828688001F7D531E0FFF770
:10078000F7FC001B022801D90320F8BD286880016E
:10079000F5D426E00128F8D0E868226A8107890F9D
:1007A00091421CD17021626A0140914217D17F2190
:1007B000A26A090201401202914210D11F2149048C
:1007C000E26A014091420AD107214906226B0140A9
:1007D000914204D1400F616B4007884201D0012053
:1007E000F8BD0020F8BD0000001002400024F40015
:1007F000300000202800002040100240007000401F
:1008000088130000FFFFFEEE8C80C11110B5006858
:100810000B464068C021C94301400002000ECC04D1
:10082000D870E40E5C708C06A40E0904490F9C700D
:100830001970002A0AD100F0CAF9D870587800F06F
:10084000C6F95870987800F0C2F99870002010BD71
:1008500010B50B4601688968596001680969490447
:10086000490C9960006801680E4801408802800EBA
:100870004C041870640E5C704C06640E4902C90F7B
:100880009C70D970002A0AD100F0A1F9187058782C
:1008900000F09DF95870987800F099F99870002050
:1008A00010BD00007F7F7F0070B504460120002C42
:1008B00049D025462035687A002806D128721120B3
:1008C000C0026060204600F041F802206872216892
:1008D000CA204862216853204862204600F08BF904
:1008E000002829D120688169174A11408161216857
:1008F0008869A268E369104362691A4310438861FA
:1009000021682069086120680169A28912041143E5
:100910000161204600F092F900280DD121688A6912
:10092000D200D2088A6122689169636AA669194374
:10093000236A3343194391612268FF2151620028E1
:1009400001D10121697270BDBFFF8FFB08B500683E
:10095000094988420ED10948C1690122D2031143D5
:10096000C16106484038C26B01150A43C263C06BBF
:100970000840009008BD00000028004040100240E0
:10098000F8B5064605462036307A0B4601280FD0CA
:100990000127377202207072002A0BD0D8789C7819
:1009A000000404435878097800024903084317E01B
:1009B0000220F8BD5878C10603D5EF2108400A305F
:1009C0005870D87800F00BF90404587800F007F953
:1009D00000020443987800F002F9044318784003B9
:1009E00004432968CA20486229685320486228467F
:1009F00000F001F9002806D1074804402868446047
:100A0000284600F01BF92A68FF215162002800D116
:100A1000777200213172F8BD3FFFFF00F7B506463F
:100A200005462036307A0C46012810D0012030725D
:100A3000022070722968CA204862296853204862DF
:100A4000284600F0D8F80027002802D027E002202E
:100A5000FEBD029800282868806926D0400600D490
:100A6000E7702078A378000403436078E1780002FF
:100A70008905084303431848034028680360286831
:100A8000816901229204914381612169E0680843F0
:100A900029688A6910438861284600F0CFF82A68DF
:100AA000FF215162002813D014E0400600D4E77003
:100AB000207800F094F80304607800F090F80002C9
:100AC0000343A07800F08BF80343E0788005D1E77A
:100AD000012171723772FEBD7F7F7F0070B50446C1
:100AE0000068C168A0229143C160FFF741FB7D26E9
:100AF0000546F60006E0FFF73BFB401BB04201D97C
:100B0000032070BD2068C0688006F4D5002070BD49
:100B100003490A6803235B029A4302430A60704751
:100B200000000140094910B5401E884201D901204A
:100B300010BD074C60610321081F00F0F9F8002088
:100B4000A06107202061002010BD0000FFFFFF0012
:100B500000E000E0FEE7000010B586B01421684612
:100B6000FFF7E3FA002418480594164984600160F1
:100B70007F21C16044618461FF21C4610161012161
:100B8000890744620162FFF78FFE02216846017007
:100B90004470847001940394012269460A480494C5
:100BA000FFF73CFF012168460175042141751621BC
:100BB00081751821C175012205A90348FFF7E0FEE0
:100BC00006B010BD0028004034000020FEE70109F7
:100BD0000A2200075143000F4018C0B2704700229C
:100BE000014602E00A39C9B2521C0A29FAD210079A
:100BF000000E08437047F8B5044600680025C16838
:100C0000490618D4C16880221143C160FFF7B0FAC9
:100C100027460646203708E0FFF7AAFA811B7D2009
:100C2000C000814201D903257D722068C06840065A
:100C300001D4032DF0D12846F8BD0000F8B5124CC0
:100C40000026E16880229143E160A169054689069A
:100C50002035002907DBFFF741FF002811D00320D2
:100C6000687206460DE0A1692027B943A161FFF72C
:100C700035FF002802D0032068720646A069384379
:100C8000A0613046F8BD00000028004010B5FFF715
:100C900075FA10BD30B593B038216846FFF745FAB4
:100CA00000250224E00103900F95009440200E954A
:100CB000059004953020099046200A90092010954F
:100CC000400411950B900794A0060C900894000125
:100CD0000D906846FFF7A2FB002809D107200EA956
:100CE00031C102210EA81195FFF7A6FA002801D004
:100CF000FFF738FA13B030BD01200249C006886002
:100D00007047000000ED00E00FB410B504A9074BD8
:100D100002AA039800F03EF8044602A9002000F061
:100D2000E1F9204610BC08BC04B01847E5100008E3
:100D30008307FF22DB0E9A408907090E994000289D
:100D400008DB830809489B001B1818689043084378
:100D5000186070470007000F0838830804489B009C
:100D60001B18D86990430843D861704700E400E03D
:100D700000ED00E002E008C8121F08C1002AFAD105
:100D800070477047002001E001C1121F002AFBD10B
:100D900070470000FFB58FB00546002606E0252805
:100DA0000AD0129A119990476D1C761C2878002859
:100DB000F5D1304613B0F0BD002402940121B54AAC
:100DC000009400E004436D1C2B780846203B9840BB
:100DD0001042F7D128782A280ED00222287801461E
:100DE0003039092916D802990A2359433039401855
:100DF00014436D1C0290F1E7109802C80291109004
:100E0000002904DA012040030443484202900220F2
:100E100004436D1C28782E2817D1042004436878D9
:100E20006D1C2A280CD110986D1C02C800911090DE
:100E30000BE000990A225143303940186D1C009094
:100E40002878014630390929F3D928786C2810D040
:100E500006DC4C281AD068280ED06A2817D104E086
:100E6000742813D07A2812D110E0012040050443E1
:100E70000CE00121090501E0032109050C43697813
:100E8000814203D10120000524186D1C6D1C2878B7
:100E9000692874D006DC00288BD0632827D064280A
:100EA00006D16CE06E2808D073282CD0752878D035
:100EB000129A11999047761C5FE06002400F022859
:100EC00009D003280DD00428109801680DD00E60B9
:100ED000001D109051E01098F21701680E604A60F2
:100EE000F6E7109801680E80F2E70E70F0E71098B0
:100EF0006A4601781173001D10900020507303A8FA
:100F00000190012005E0109802C801911090002086
:100F1000C04361070CD5002700E07F1C00998F4279
:100F20000FDA8742F9DB0199C95D0029F5D108E0A4
:100F3000002700E07F1C8742FCDB0199C95D002986
:100F4000F8D102982146C01B0290129B119A00F022
:100F5000B3F88019C61907E0019801990078491C77
:100F60000191129A119990477F1EF5D22146129B4A
:100F7000119A029800F090F886196D1C16E70A2065
:100F80000190109901C910916102490F032900D104
:100F900000B2042900D140B2002803DA40422D21DA
:100FA00003E00DE0210504D52B216A4611730121D0
:100FB00003E0E10711D02021F7E70CAF0C9114E01A
:100FC0000A200190109901C910916102490F03296B
:100FD00000D180B2042900D1C0B20021EDE701990F
:100FE000FFF786F830317F1E39700028F7D104A84A
:100FF000C01B20300190600704D501200004844309
:10100000009801E0012000900199884201DD401A1A
:1010100000E00020411800900C9809180298401A2E
:101020000290E00306D42146129B119A029800F028
:1010300043F8861900200D9008E003A9085C129A75
:10104000119990470D98401C761C0D900C99884280
:10105000F3DBE0030CD52146129B119A029800F0B5
:101060002BF8861904E0129A302011999047761CCB
:101070000099481E00900029F5DC05E03878129AA6
:101080007F1C11999047761C0199481E01900029F8
:10109000F4DC6BE709280100F8B5044600251E467C
:1010A0001746880404D405E039462020B0476D1C5B
:1010B000641EF9D52846F8BDFFB50446002581B069
:1010C0001E46C80301D5302700E02027880404D538
:1010D00005E038460399B0476D1C641EF9D52846D3
:1010E00005B0F0BD0A68531C0B601070704700001B
:1010F00088B0FFF74BF8FFF7CDFDFFF72DFD134943
:10110000012008607D263601104D00222D1D2C4641
:10111000103402A90E48FFF79BFB002201A90C48DE
:10112000FFF774FB6946887A00904B7A0A7A09A126
:101130002846FFF7E9FD6946C879801900908B7948
:101140004A7907A12046FFF7DFFDDDE70000002018
:10115000340000202532643A2532643A2532640096
:101160002532642D2532642D2532640000000000F4
:10117000000000000000000000000000000000006F
:10118000000000000000000000000000010000005E
:101190000200000003000000040000000600000040
:1011A000070000000800000009000000CC11000842
:1011B0000000002034000000740D00080012000838
:1011C000340000202C040000840D00080000000002
:1011D00068683A6D733A7373000000000000000005
:1011E00064642D6D6D2D797979790000000000001F
:1011F0000100000004000000000000000024F400D2
:04000005080000BD32
:00000001FF
