:020000040800F2
:1000000000050020D5000008FD140008A913000811
:1000100000000000000000000000000000000000E0
:1000200000000000000000000000000001150008B2
:100030000000000000000000FF1400080315000885
:10004000E7000008E7000008E7000008E7000008F4
:10005000E7000008E7000008E700000809020008C0
:10006000E7000008E7000008E7000008E7000008D4
:10007000E7000008E7000008E7000008E7000008C4
:10008000E7000008E7000008E7000008E7000008B4
:10009000E7000008E7000008E7000008E7000008A4
:1000A000E7000008E7000008E7000008E700000894
:1000B000E7000008E7000008E7000008044885465C
:1000C00000F090F800480047891F0008C046C0466D
:1000D000000500200448804704480047FEE7FEE78B
:1000E000FEE7FEE7FEE7FEE795150008BD00000805
:1000F00030B50B46014600202022012409E00D46C0
:10010000D5409D4205D31D469540491B2546954047
:1001100040191546521E002DF1DC30BDF0B51FB45C
:100120000646002082B005464024019100901BE065
:10013000019922460F46304600F042F8049A059B8A
:10014000801A994110D310461946224600F028F82B
:10015000361A8F410197224601200021009F00F0AE
:100160001FF838184D4100902046641E0028DFDC3F
:10017000019B00982946324607B0F0BDD2B201E09B
:100180000270401C491EFBD270470022F6E710B5F2
:1001900013460A4604461946FFF7F0FF204610BDF5
:1001A00010B5202A04DB0146203A9140002010BD02
:1001B000914020239C1A0346E3401943904010BD10
:1001C00010B5202A04DB0846203AD040002110BD9B
:1001D0000B46D340D0402024A21A91400843194630
:1001E00010BD0000064C0125064E05E0E36807CC73
:1001F0002B430C3C98471034B442F7D3FFF762FF0F
:10020000302000085020000810B5102000F04AF8F7
:10021000202000F047F810BD70B5044600F006F944
:100220000546601C02D004480078241800F0FEF84F
:10023000401BA042FAD370BD0C00002070B5134CD7
:10024000102805D0202815D1A068002813D018E068
:1002500000210F4800F020FF0025A5602068001D48
:10026000C117490F0818C110616002D009A001F040
:1002700093FD256070BD0021054800F0A3FE01201C
:10028000A0602068401C206070BD000000000020BD
:10029000B000002020CAD5B5BDCAFDBEDD20256452
:1002A000200D0A0070B5084D0446E868204203D0CE
:1002B000EC60204600F00AF82869204203D02C6147
:1002C0002046FFF7BBFF70BD0018024070470000DA
:1002D000FCB5002301259AE022462C469C40224092
:1002E0006FD04E68012E05D0022E03D0112E01D002
:1002F000122E16D186680327B4465E00B646B74074
:100300006646BE43B446CF687646B7406646374336
:1003100087604668A6430C79E406E40F9C403443AA
:100320004460C6685F000324BC40A446A6438C68B2
:10033000BC403443C4604C68022C01D0122C14D150
:10034000DC08A40024180194266A5C07B646E60E71
:100350000F24B44000967646A643B6460C69009E2C
:10036000B44076462643019C266204686646B44340
:100370000E79B607B60FBE40264306604C68E4000F
:1003800044D59E08254CB6003419A446246E9E0719
:10039000F60E0F27B740BC4305273F07B84201D1EF
:1003A000002710E01E4FB84201D101270BE01D4F7E
:1003B000B84201D1022706E01B4FB84202D1032701
:1003C00001E023E00527B740274364462766134E24
:1003D000803634684F689443FF0300D5144334607B
:1003E00074684F689443BF0300D5144374600B4C8A
:1003F00026684F689643FF0200D51643266066685C
:100400004F689643BF0200D5164366605B1C0A68BE
:100410001446DA4000D05FE7FCBD0000001802403F
:100420000004005000080050000C00500148806893
:10043000704700000C00002002488168027889188B
:10044000816070470C00002010B508480024016846
:10045000821511430160204600F00AF8002801D0FF
:10046000012401E000F028F8204610BD00200240E1
:1004700070B50F4E002431780546002915D07D2037
:10048000C000FFF735FE01460A480068FFF730FE5E
:1004900000F05AFC002808D1042D06D2002229467B
:1004A000401E00F02FF8756000E00124204670BD6A
:1004B0000C0000201800002008B50B48016801223C
:1004C0001143016000681040009007484038C26B3B
:1004D00001040A43C263C06B08400090032040023D
:1004E00000F028FC08BD000040100240002805DB99
:1004F000C106C90E0120884001490860704700000C
:1005000000E100E010B501F057FC10BD10B50F4C34
:10051000216803225202914301432160C11FFF3928
:10052000FA390ED10A480621006848430949FFF705
:10053000DFFD401C02E0002805D0401E616949052E
:10054000F9D4002010BD032010BD00000070004051
:100550001800002040420F00FEB504460068002746
:10056000704D714E800355D500200090F06BC00097
:1005700007D4F16BA8050143F163F16B0140012041
:1005800000906A480168821511430160FFF74EFF31
:10059000019005E0FFF74AFF0199401A022825D88B
:1005A00062480068C005F5D5E869032109020840E2
:1005B0000FD0216B81420CD0E86903210902EA695E
:1005C0008843012109040A43EA61EA698A43EA612E
:1005D000E861C0070FD0FFF729FF019008E0FFF79F
:1005E00025FF0199411A5248814201D9032709E0A8
:1005F000E8698007F3D5E869032109028843216B84
:100600000843E8610098002804D0F16B012000073E
:100610008143F1632078C00705D06869616880086C
:100620008000084368612078800705D568690C213F
:100630008843A168084368612078C00606D56869C8
:10064000032189028843E1680843686120888005A6
:1006500006D56869032189048843A1690843686154
:100660002088400506D56869032109058843E169AA
:10067000084368612078800606D56869032109036C
:100680008843216908436861208840040ED5686961
:10069000216A80008008084368610121206A890777
:1006A000884203D1F06889130843F0602068000392
:1006B00005D5686940218843616A084368612068FC
:1006C00081021C480BD569698210A36A91431943C2
:1006D0006961A16A914202D1F1680143F160216828
:1006E00049020AD56969E26A814311436961E16A95
:1006F000814202D1F1680143F160208800050FD5E5
:10070000686903218903884361690843686101219D
:1007100060698903884203D1F06889000843F0606A
:100720003846FEBD401002400010024000700040FC
:100730008813000000000001F8B50F46060043D002
:100740004D4D28684007400FB84213D22868C008B2
:10075000C00038432860FFF769FE044605E0FFF754
:1007600065FE011B4548814261D828684007400F5B
:10077000B842F4D13068424C81070DD5400704D50A
:10078000A068072109030843A060A0680F2109029F
:100790008843B1680843A0603078C00732D07068E1
:1007A00001280AD002280BD000280FD0344940314C
:1007B00003280ED0C969890704E02168890301E094
:1007C00021688901002906DB0120F8BD216849055F
:1007D000F8E7096AEFE7A168C908C9000143A16009
:1007E000FFF724FE009006E0FFF720FE0099411A73
:1007F000224881421BD8A068382108407168C9008E
:100800008842F1D128684007400FB84217D91A48EA
:100810000168C908C90039430160FFF707FE0546B2
:1008200007E0FFF703FE411B1448814201D9032072
:10083000F8BD114800684007400FB842F1D1307848
:10084000400706D5A068072109038843F1680843DB
:10085000A06000F031F8A1683C2289091140094AE2
:10086000515CC906C90EC8400749086007480068BE
:10087000FFF7FEFDF8BD00000020024088130000D5
:1008800000100240D01F00081800002010000020B7
:100890000648074900688968064A4904490F8900E3
:1008A000515CC906C90EC8407047000018000020FE
:1008B000001002401020000810B5204CA068204A0B
:1008C0008006400F16D0A0688006410F5010012905
:1008D0000FD0A1688906490F022912D0A0688006AE
:1008E000400F042823D0A0688006400F032821D0A1
:1008F000002010BD206801218004400F8140104677
:1009000012E0E1688B07E1689B0F4906490F491C1B
:10091000032B00D01046FFF7EBFBE1684904490EBA
:100920004843E168490F491CFFF7E2FB10BD012075
:10093000C00310BD7D20000210BD00000010024069
:100940000024F400F8B504007ED020783827C007D2
:10095000EF4D002846D0A868E96838408907890F1C
:10096000102802D008280BD001E0032908D001206C
:100970006268000482420AD129680143296015E0B7
:10098000286880032ED560680028DDD02AE0052382
:1009900001211B0489049A422A6802D10A432A6071
:1009A000EAE782432A602868884328606068002854
:1009B0000CD0FFF73BFD064604E0FFF737FD801B38
:1009C000642873D828688003F7D50BE0FFF72EFD65
:1009D000064604E0FFF72AFD801B6428F1D828684A
:1009E0008003F7D42078800769D5A868E968384083
:1009F0008A070721920FC902102802D0002813D0BD
:100A000001E0022A10D0E068002846D02868884318
:100A10002169084328602868FF21013108432860C4
:100A2000FFF704FD06462CE02A68520502D5E2686D
:100A3000002A89D06A687F231B029A4363691B02DC
:100A40001A436A60002800E08DE00ED128688843D0
:100A5000216908432860286801218004400F8140F3
:100A6000AC48FFF745FBAC490860AC480068FFF7AD
:100A7000FFFC002877D122E0FFF7D8FC801B02287A
:100A80009FD828684005F7D568687F210902884308
:100A9000616909020843686011E02968FF2001309C
:100AA00081432960FFF7C2FC064605E098E0FFF7A6
:100AB000BDFC801B022884D828684005F7D4207824
:100AC000974E00072ED5A8688006400F03280AD04D
:100AD000A0690028306A16D0012108433062FFF770
:100AE000A5FC07460BE0306A80071BD5A0690028EB
:100AF0009FD017E0FFF79AFCC01B022870D8306A1D
:100B00008007F7D50EE0400840003062FFF78EFC0A
:100B1000074604E0FFF78AFCC01B022860D8306A51
:100B20008007F7D4207840076CD5A8680027800696
:100B3000400F042818D0E86BC00008D4E96B0120EE
:100B400000070143E963E96B014001270091754803
:100B50000168C90519D40168821511430160FFF7C6
:100B600065FC00900DE083E0F06980074AD5A0683D
:100B700000287DD046E0FFF759FC0099401A022872
:100B80002ED868480068C005F5D5A168012910D0A5
:100B900004200529F16911D049084900F161F16982
:100BA0008143F161A068002816D0FFF73FFC009058
:100BB0000EE0F06901210843F061F3E70143F161C0
:100BC000F7E7FFF733FC0099411A574881426FD885
:100BD000F0698007F5D50EE0FFF728FC009007E0EC
:100BE00066E0FFF723FC0099411A4F4881425FD825
:100BF000F0698007F5D4002F04D0E86B01210907C4
:100C00008843E863E06900287FD0A9688906490F16
:100C1000022953D001263606022828680DD0B04399
:100C20002860E86880088000E860E8683F4908407C
:100C3000E860FFF7FBFB04463CE0B0432860FFF7A9
:100C4000F5FB074604E0FFF7F1FBC01B02282FD895
:100C500028688001F7D4616A206AA26A0843E16AC1
:100C6000120211430843216B0843616B084300E003
:100C700049E0E9682E4A11400843E860286830439B
:100C80002860E868012109070843E860FFF7CEFB08
:100C9000044604E0FFF7CAFB001B022808D82868B6
:100CA0008001F7D531E0FFF7C1FB001B022801D915
:100CB0000320F8BD28688001F5D426E00128F8D08B
:100CC000E868226A8107890F91421CD17021626A0B
:100CD0000140914217D17F21A26A0902014012020C
:100CE000914210D11F214904E26A014091420AD188
:100CF00007214906226B0140914204D1400F616BEC
:100D00004007884201D00120F8BD0020F8BD000056
:100D1000001002400024F400180000201000002001
:100D2000401002400070004088130000FFFFFEEEFC
:100D30008C80C11103490A6803235B029A43024372
:100D40000A60704700000140094910B5401E884202
:100D500001D9012010BD074C60610321081F01F07B
:100D60002BF80020A06107202061002010BD0000AA
:100D7000FFFFFF0000E000E0F0B5034620331A7FDC
:100D8000012A2BD001221A7702225A77046862685E
:100D9000A568134FBC4205D116460F221205964393
:100DA0004A6832437026B2430E6816436660006894
:100DB000B84209D001229207904205D0094A9042D8
:100DC00002D0094A904204D1802289689543294380
:100DD00081600120587700201877F0BD0220F0BD17
:100DE000002C0140000400400040014010B586B0D6
:100DF000044614216846FFF7C8F9012120688907D5
:100E0000884213D10A48426B01210A434263406B76
:100E1000009108400590002002210290039001916A
:100E20000491052069460007FFF752FA06B010BD8D
:100E300000100240F8B5064604462036307F0D46C5
:100E400001280CD00120082730770C2A44D008DC78
:100E5000002A0BD0042A19D0082A77D12CE00220CE
:100E6000F8BD102A4ED0142A70D15BE0206800F043
:100E7000F1FB20688169394381612068816904221E
:100E800091438161206881692A6912E0206800F03D
:100E900027FC206881690122D20211438161206808
:100EA0008269012189028A438261206881692A69F5
:100EB00012021143816149E0206800F053FC206870
:100EC000C1693943C1612068C16904229143C1618C
:100ED0002068C1692A6912E0206800F087FC206858
:100EE000C1690122D2021143C1612068C269012196
:100EF00089028A43C2612068C1692A6912021143CA
:100F0000C16123E0206800F0ABFC2068416D3943EB
:100F100041652068426D04218A4342652068416D25
:100F20002A6911E0206800F0CDFC2068416D0122A3
:100F3000D202114341652068416D521091434165D1
:100F40002068416D2A691202114341650020307703
:100F5000F8BD70B5040005D025462035687F00280F
:100F600002D006E0012070BD00202877204600F066
:100F700017F802206877211D206800F013FB01227A
:100F800040342272AA77EA7722706270A270E2700F
:100F900022716271A271E2716A77002070BD000057
:100FA00008B5006801218907884207D10448C16B50
:100FB00001221143C163C06B1040009008BD0000C6
:100FC0000010024030B504460222203000290ED025
:100FD000042911D020464030082912D00C2915D000
:100FE000102918D0C378012B1AD0012030BD837F7F
:100FF000012BFAD1827714E0C37F012BF5D1C277A0
:101000000FE00378012BF0D102700AE04378012B46
:10101000EBD1427005E08378012BE6D1827000E0CD
:10102000C2700122206800F007FB154B20681549AB
:10103000984207D0884205D0134A904202D0134A02
:10104000904204D1426C0125ED032A43426420689A
:101050000122984207D09307984204D00C4B984243
:1010600001D0884207D181680A4B1940062905D072
:10107000DB1F994202D0016811430160002030BD9E
:10108000002C014000400140004401400048014064
:10109000000400400700010070B504460D460068DA
:1010A000002200F0C9FA21491F4B20688A1098429B
:1010B00008D01F4B984205D01E4B984202D01E4BC1
:1010C00098420AD1036A0B4207D1036A134204D142
:1010D000436C0126F603B34343642068036A0B4262
:1010E00006D1016A114203D1016849084900016033
:1010F000214620310120002D0BD0042D0BD040348F
:10110000082D0AD00C2D0AD0102D0AD0E070002036
:1011100070BD8877FBE7C877F9E72070F7E7607064
:10112000F5E7A070F3E70000002C0140111100006A
:1011300000400140004401400048014010B5014614
:1011400080310A78012A15D001220A7024224A60CF
:10115000026813681468640864001460012252076E
:1011600093430022426600680360202048600A70B2
:10117000104610BD022010BD70B5044605468034EF
:10118000207801281AD0012020702420606028686F
:1011900006680268520852000260286882680723C5
:1011A0005B069A430A438260284600F0C1FB286828
:1011B0000660202060600020207070BD022070BD9D
:1011C00070B50446054680342078012819D00120E6
:1011D0002070242060602868066802685208520067
:1011E000026028688268D200D2080A4382602846DA
:1011F00000F09EFB286806602020606000202070C0
:1012000070BD022070BD70B5040005D02546803544
:101210006868002802D006E0012070BD0020287018
:10122000204600F027F824206860206801684908FB
:1012300049000160204600F043FC0128EDD0A06A7F
:10124000002802D0204600F0A3FB20684168092254
:10125000D20291434160206881682A2291438160D3
:1012600020680168012211430160204600F0F6FB6E
:1012700070BD000010B586B0044614216846FEF724
:1012800084FF1149206888421CD11048C26B490173
:101290000A43C263C26B0A400592416B01221143AB
:1012A0004163406B6946104005900C20009002207D
:1012B0000190002002900390062004900520000772
:1012C000FFF706F806B010BD008000400010024095
:1012D000FFB5064604468036706883B00D46202868
:1012E00060D1002D0CD00598002809D00120A168FC
:1012F0000003814207D12069002804D1E80702D009
:10130000012007B0F0BD307801284BD001203070AB
:101310000020F06021207060FFF788F801902746D8
:1013200040370598B8820598F8820120A16800032B
:10133000814202D12069002804D0029500250020B6
:10134000307015E000200290F9E70022802120464D
:1013500000F0D4FC002818D10298002817D021688A
:10136000007888620298401C0290F88A401EF88239
:10137000F88A019B002806980090E6D100224021BF
:10138000204600F0BBFC002808D00320B9E72888DD
:101390002168C005C00D8862AD1CE6E720207060A2
:1013A0000020AEE70220ACE7FEE7000000B587B002
:1013B00014216846FEF7E9FE1148416B01221143F2
:1013C0004163416B11400591426B04210A43426322
:1013D000406B08400590302000900A4801900020A2
:1013E000029069460848FEF773FF00221146072065
:1013F000FFF788F80720FFF779F807B000BD000075
:1014000000100240000021100008005010B51848DC
:10141000164901601749416000218160C160016186
:101420008161016241620C22816242614166FFF783
:10143000EAFE002801D072B6FEE700210C48FFF753
:10144000BFFE002801D072B6FEE700210848FFF772
:1014500093FE002801D072B6FEE70548FFF76EFE46
:10146000002801D072B6FEE710BD000000800040E9
:101470002000002074B7010010B58AB00024079442
:1014800008941C2168460994FEF77FFE0121174845
:1014900089070160164984604160046115498461CF
:1014A000C160FFF756FD002801D072B6FEE7079431
:1014B00007A90E480994FFF75FFC002801D072B617
:1014C000FEE7602000900C480190029400226946DB
:1014D00004940648FFF7AEFC002801D072B6FEE780
:1014E0000248FFF783FC0AB010BD0000B0000020E6
:1014F000FF03000024F40000127A0000FEE77047AA
:10150000704710B5FEF798FF10BD30B59FB0382179
:101510006846FEF73AFE00251B951C951D95342163
:101520000EA81E95FEF731FE01204002FEF7EEFFE9
:101530000224E001039000944020059008200A90C6
:1015400080030B90079400020C900894000104950E
:101550000D9009956846FFF7F5F9002801D072B69D
:10156000FEE707201BA931C102211BA81E95FFF72A
:10157000E3F8002801D072B6FEE710200E90119516
:101580000EA8FEF7E9FF002801D072B6FEE71FB0F3
:1015900030BD000001200249C0068860704700008D
:1015A00000ED00E0F0B502681D4B0124A4071D4DBD
:1015B000984203D0A04201D0A84203D17026B24382
:1015C0004E683243184E194F98420DD0A0420BD0AE
:1015D000A84209D0164CA04206D0B04204D0B8426E
:1015E00002D0144CA04204D103242402A243CC68AC
:1015F00022438024A2434C69224302608A68C2626B
:101600000A688262984206D0B04204D0B84202D042
:10161000084A904201D10969016301214161F0BD8D
:10162000002C014000040040004001400044014003
:10163000002000400048014010B5CB06DB0E012120
:10164000046A99408C430462016A9A401143016222
:1016500010BD0000F0B5026A520852000262056A2D
:1016600043688269194C1B4E224092080C68920014
:101670001443022295438A682A43154DA84207D095
:10168000B04205D0144FB84202D0144FB84206D130
:101690000827BA43CF681743042297433A46A84223
:1016A00007D0B04205D00C4DA84202D00B4DA84245
:1016B00006D103252D02AB434D691D438B692B4396
:1016C00043608461496841630262F0BD8FFFFEFFA1
:1016D000002C01400040014000440140004801400E
:1016E00070B5026A10239A430262046A43688269F1
:1016F000174D2A4003252D02AA430D682D021543DC
:10170000202294438A6812012243124CA04207D13E
:101710008024A243CC68402624012243B24308E03F
:101720000D4CA04205D00D4CA04202D00C4CA04262
:1017300008D10324A402A3434C69A4001C438B6971
:101740009B0023434360856149688163026270BDE9
:10175000FF8FFFFE002C014000400140004401408B
:101760000048014070B5026AFF2301339A430262C8
:10177000046A4368C269184D2A4092080D689200B5
:1017800015430122520294438A6812022243134CE9
:10179000A04208D11446CA68C614B44312022243B8
:1017A0000415A24308E00E4CA04205D00D4CA04207
:1017B00002D00D4CA04208D103242403A3434C695A
:1017C00024011C438B691B0123434360C5614968A5
:1017D000C163026270BD00008FFFFEFF002C01405C
:1017E00000400140004401400048014030B5026A19
:1017F00001231B039A430262046A4368C269134DC2
:101800002A4003252D02AA430D682D02154301220B
:10181000520394438A68120322430D4CA04208D01D
:101820000C4CA04205D00C4CA04202D00B4CA04264
:1018300005D10124A403A3434C69A40123434360BD
:10184000C56149680164026230BD0000FF8FFFFE80
:10185000002C01400040014000440140004801408C
:1018600070B5026A01263604B2430262046A426815
:10187000436D0F4D2B400D681D4373009C430B8936
:101880001B0423430B4CA04208D00B4CA04205D0B4
:101890000A4CA04202D00A4CA04203D14C69B24388
:1018A000240222434260456549688165036270BD38
:1018B0008FFFFEFF002C014000400140004401402A
:1018C0000048014030B5026A01231B059A430262B9
:1018D000046A4268436D114D2B400D682D021D4373
:1018E00001235B059C430B891B0523430C4CA04241
:1018F00008D00C4CA04205D00B4CA04202D00B4C9F
:10190000A04205D10124A404A2434C69A4022243AD
:10191000426045654968C165036230BDFF8FFFFEC7
:10192000002C0140004001400044014000480140BB
:10193000F0B513A106C985B00192009112A206CAA2
:10194000039202910446416E4034002915D000688C
:101950008168806809014D0F400F02AE315C6F460F
:10196000385CC000FEF7C4FB6085785D715DC00027
:10197000FEF7BEFB208505B0F0BD01206085F9E7CC
:10198000010101030701000008040204080101012C
:1019900010B5018DC90707D001684A6801235B04AF
:1019A0009A43C36A1A434A60018D890707D50168C3
:1019B0004A6801231B049A43036B1A434A60018D52
:1019C000490707D501684A6801239B049A43436B82
:1019D0001A434A60018D090707D501684A68012347
:1019E000DB039A43836B1A434A60018DC90607D50E
:1019F0000268916801231B039943C36B19439160EB
:101A0000018D890607D501688A6801235B039A4323
:101A1000036C1A438A60018D490612D503685A681F
:101A200001210905446C8A4322435A60426C8A4270
:101A300007D10268516803235B059943836C1943FE
:101A40005160018D090607D501684A680123DB044E
:101A5000C06C9A4302434A6010BD0000FEB50546C3
:101A6000002680350446EE60FEF7E0FC0190206819
:101A70000068124F000709D501210097002249058F
:101A80002046019B00F03AF900280DD1206800683B
:101A900040070BD501210097002289052046019BB4
:101AA00000F02CF9002801D00320FEBD2020686042
:101AB000A860E6662E700020FEBD0000FFFFFF015B
:101AC000F8B504462269A168E569114362690026F8
:101AD0002A431143626E00680A437C4B01687C4DC7
:101AE0002940114301602068416803221203914399
:101AF000E268114341602168A069994201D0226ADD
:101B000010438A68734D2A4002438A602068C16A84
:101B1000626A090909011143C1626F4922686F486D
:101B20008A420AD140698007800F1AD001283DD02F
:101B3000022839D0032827D124E069498A420AD1F2
:101B400040690C2108400CD004282FD008282BD045
:101B50000C2819D116E063498A4202D062498A42B0
:101B600001D1002111E09A420ED141690320800287
:101B700001400AD001208002091A17D0091A13D097
:101B8000814201D1082100E010210120574D584F1A
:101B9000C0039A423BD100290AD0022911D004295E
:101BA00009D008297ED10BE00221EEE70421ECE701
:101BB000FEF76EFE01E0FEF77FFE050001D17AE040
:101BC0000546606A4000395A28460091FEF790FAAF
:101BD000676879007918814269D83903814266D3F0
:101BE000002328461946009AFEF798FA020E0902C9
:101BF0000302780811431818002251413A46002385
:101C0000FEF78CFA03210902411A3A4A4DE0E269D3
:101C1000824228D1002906D0022907D0042907D002
:101C2000082944D108E0FEF733FE03E0284603E02C
:101C3000FEF742FE00283ED0616A4900795AFEF75D
:101C400057FA616840004A088018FEF751FA80B2DE
:101C500002462949103A8A4229D8491C0140000706
:101C6000400F084325E0002906D0022907D00429A7
:101C700007D008291BD108E0FEF70AFE03E028463A
:101C800003E0FEF719FE002815D0616A4900795A71
:101C9000FEF72EFA61684A088018FEF729FA80B22A
:101CA000014600E003E0144A1039914201D90126AF
:101CB00001E02168C860204601214030418501854E
:101CC0000020206760673046F8BD000000800040BB
:101CD000F369FFCFFFF4FF110038014040100240CC
:101CE0000044004000480040004C00400024F40044
:101CF000B81F0008FFFC0F00EFFF0000FFB581B028
:101D000005460F46044680350A9E38E0701C36D0E2
:101D1000FEF78CFB0499401AB04221D8002E1FD048
:101D20002068016849072AD5C069C043000526D448
:101D300001202168C002086220680168FF22A132E8
:101D40009143016020688168490849008160202032
:101D50006860A860E86000202870032005B0F0BD2E
:101D600020680168FF22A1329143016020688168E8
:101D700049084900816020206860A860EBE720687E
:101D8000C1693846884305D0002103988142BDD0FF
:101D90000020E3E70121F8E70FB410B503A9044BD5
:101DA000044A029800F03AF810BC08BC04B0184786
:101DB0006D1F00081C0000208307FF22DB0E9A40E5
:101DC0008907090E9940002808DB830809489B0011
:101DD0001B18186890430843186070470007000FED
:101DE0000838830804489B001B18D86990430843AF
:101DF000D861704700E400E000ED00E002E008C8B0
:101E0000121F08C1002AFAD170477047002001E074
:101E100001C1121F002AFBD170470000FFB58DB031
:101E20000446002506E025280AD0109A0F9990470D
:101E3000641C6D1C20780028F5D1284611B0F0BD37
:101E400000270121484A009700E00743641C2378DB
:101E50000846203B98401042F7D120782E2817D111
:101E6000042007436078641C2A280CD10E98641C57
:101E700002C800910E900BE000990A2251433039BC
:101E80004018641C00902078014630390929F3D9A4
:101E900020780028D1D0642808D0692806D0752879
:101EA0001ED0109A0F9990476D1C5BE00A200E9986
:101EB000019001C90E91002802DA40422D2102E072
:101EC000390504D52B216A461172012103E0F90777
:101ED00004D02021F7E70BAE0B910DE00021FAE7CB
:101EE0000A200E99019001C90E91F7E70199FEF7BA
:101EF000FFF83031761E31700028F7D103A8801B1F
:101F000020300190780701D5009801E00120009071
:101F10000199884201DD401A00E00020002700906E
:101F200006E002A8109AC05D0F9990476D1C7F1CB7
:101F30000B988742F5DB04E0109A30200F99904708
:101F40006D1C0099481E00900029F5DC05E03078F2
:101F5000109A761C0F9990476D1C0199481E0190AC
:101F60000029F4DC641C65E70928010013B5044B63
:101F7000012269460348FFF7ABF900981CBD000039
:101F8000FFFF000020000020FEF75EFAFFF7BDFA19
:101F9000FFF70CFAFFF73AFAFFF76EFA03A0FFF724
:101FA000FBFE0A20FEF738F9FBE70000BFAACABC17
:101FB000BDD3CAD5200D0A000100020004000600AE
:101FC00008000A000C001000200040008000000102
:101FD0000000000000000000000000000000000001
:101FE00000000000000000000000000000000000F1
:101FF00001000000020000000300000004000000D7
:1020000006000000070000000800000009000000B2
:1020100000000000000000000000000000000000C0
:1020200001000000020000000300000004000000A6
:10203000502000080000002020000000FC1D0008C7
:102040007020000820000020E00400000C1E0008A2
:10205000000000000000000000000000010000007F
:1020600004000000000000000024F4000000000054
:04000005080000BD32
:00000001FF
