:020000040800F2
:1000000010040020D5000008990A00081D0A000805
:1000100000000000000000000000000000000000E0
:100020000000000000000000000000009D0A000821
:1000300000000000000000009B0A00089F0A000862
:10004000E7000008E7000008E7000008E7000008F4
:10005000E7000008E7000008E7000008E7000008E4
:10006000E7000008E7000008E7000008E7000008D4
:10007000E7000008E7000008E7000008E7000008C4
:10008000E7000008E7000008E7000008E7000008B4
:10009000E7000008E7000008E7000008E7000008A4
:1000A000E7000008E7000008E7000008E700000894
:1000B000E7000008E7000008E7000008044885465C
:1000C00000F03EF8004800474D0C0008C046C0460E
:1000D000100400200448804704480047FEE7FEE77C
:1000E000FEE7FEE7FEE7FEE7010B0008BD000008A3
:1000F00030B50B46014600202022012409E00D46C0
:10010000D5409D4205D31D469540491B2546954047
:1001100040191546521E002DF1DC30BDD2B201E06F
:100120000270401C491EFBD270470022F6E710B552
:1001300013460A4604461946FFF7F0FF204610BD55
:10014000064C0125064E05E0E36807CC2B430C3C2A
:1001500098471034B442F7D3FFF7B4FFF00C00080F
:10016000100D000870B5044600F0C2F80546601C8A
:1001700002D004480078241800F0BAF8401BA042CE
:10018000FAD370BD00000020FCB5002301259AE0E1
:1001900022462C469C4022406FD04E68012E05D04E
:1001A000022E03D0112E01D0122E16D186680327FD
:1001B000B4465E00B646B7406646BE43B446CF6816
:1001C0007646B7406646374387604668A6430C7953
:1001D000E406E40F9C4034434460C6685F00032497
:1001E000BC40A446A6438C68BC403443C4604C6801
:1001F000022C01D0122C14D1DC08A4002418019484
:10020000266A5C07B646E60E0F24B4400096764692
:10021000A643B6460C69009EB44076462643019C30
:10022000266204686646B4430E79B607B60FBE4030
:10023000264306604C68E40044D59E08254CB60071
:100240003419A446246E9E07F60E0F27B740BC4310
:1002500005273F07B84201D1002710E01E4FB842E2
:1002600001D101270BE01D4FB84201D1022706E062
:100270001B4FB84202D1032701E023E00527B74016
:10028000274364462766134E803634684F6894438C
:10029000FF0300D51443346074684F689443BF0370
:1002A00000D5144374600B4C26684F689643FF02D8
:1002B00000D51643266066684F689643BF0200D596
:1002C000164366605B1C0A681446DA4000D05FE79C
:1002D000FCBD00000018024000040050000800505F
:1002E000000C0050002A01D0816170478162704784
:1002F00001488068704700000000002002488168C3
:1003000002788918816070470000002010B5084805
:1003100000240168821511430160204600F00AF8AC
:10032000002801D0012401E000F028F8204610BD8B
:100330000020024070B50F4E002431780546002998
:1003400015D07D20C000FFF7D3FE01460A480068A3
:10035000FFF7CEFE00F04AFB002808D1042D06D29C
:1003600000222946401E00F023F8756000E00124B9
:10037000204670BD000000200C00002008B50B488E
:100380000168012211430160006810400090074895
:100390004038C26B01040A43C263C06B084000903E
:1003A0000320400200F018FB08BD0000401002408E
:1003B00010B500F0ADFB10BD10B50F4C2168032245
:1003C0005202914301432160C11FFF39FA390ED116
:1003D0000A480621006848430949FFF789FE401C86
:1003E00002E0002805D0401E61694905F9D40020CB
:1003F00010BD032010BD0000007000400C00002064
:1004000040420F00F8B50F46060043D04D4D286816
:100410004007400FB84213D22868C008C0003843D4
:100420002860FFF765FF044605E0FFF761FF011B49
:100430004548814261D828684007400FB842F4D14E
:100440003068424C81070DD5400704D5A0680721CC
:1004500009030843A060A0680F2109028843B1681E
:100460000843A0603078C00732D0706801280AD0F5
:1004700002280BD000280FD03449403103280ED079
:10048000C969890704E02168890301E021688901BD
:10049000002906DB0120F8BD21684905F8E7096A53
:1004A000EFE7A168C908C9000143A160FFF720FF79
:1004B000009006E0FFF71CFF0099411A2248814294
:1004C0001BD8A068382108407168C9008842F1D162
:1004D00028684007400FB84217D91A480168C90870
:1004E000C90039430160FFF703FF054607E0FFF746
:1004F000FFFE411B1448814201D90320F8BD114879
:1005000000684007400FB842F1D13078400706D567
:10051000A068072109038843F1680843A06000F040
:100520001DF8A1683C2289091140094A515CC9069D
:10053000C90EC8400749086007480068FFF7FAFE7F
:10054000F8BD0000002002408813000000100240A7
:10055000B00C00080C0000200400002010B5204C56
:10056000A068204A8006400F16D0A0688006410F80
:10057000501001290FD0A1688906490F022912D015
:10058000A0688006400F042823D0A0688006400F92
:10059000032821D0002010BD206801218004400FD5
:1005A0008140104612E0E1688B07E1689B0F490625
:1005B000490F491C032B00D01046FFF799FDE16855
:1005C0004904490E4843E168490F491CFFF790FD73
:1005D00010BD0120C00310BD7D20000210BD000031
:1005E000001002400024F400F8B504007ED020780A
:1005F0003827C007EF4D002846D0A868E968384082
:100600008907890F102802D008280BD001E00329A0
:1006100008D001206268000482420AD1296801439F
:10062000296015E0286880032ED560680028DDD099
:100630002AE0052301211B0489049A422A6802D179
:100640000A432A60EAE782432A60286888432860D0
:10065000606800280CD0FFF74BFE064604E0FFF769
:1006600047FE801B642873D828688003F7D50BE009
:10067000FFF73EFE064604E0FFF73AFE801B6428C3
:10068000F1D828688003F7D42078800769D5A86856
:10069000E96838408A070721920FC902102802D062
:1006A000002813D001E0022A10D0E068002846D0CC
:1006B000286888432169084328602868FF210131A0
:1006C00008432860FFF714FE06462CE02A6852050E
:1006D00002D5E268002A89D06A687F231B029A4308
:1006E00063691B021A436A60002800E08DE00ED1A6
:1006F000286888432169084328602868012180040C
:10070000400F8140AC48FFF7F3FCAC490860AC48AF
:100710000068FFF70FFE002877D122E0FFF7E8FD21
:10072000801B02289FD828684005F7D568687F217C
:1007300009028843616909020843686011E0296879
:10074000FF20013081432960FFF7D2FD064605E016
:1007500098E0FFF7CDFD801B022884D8286840056B
:10076000F7D42078974E00072ED5A8688006400F52
:1007700003280AD0A0690028306A16D00121084356
:100780003062FFF7B5FD07460BE0306A80071BD5E6
:10079000A06900289FD017E0FFF7AAFDC01B022820
:1007A00070D8306A8007F7D50EE04008400030620C
:1007B000FFF79EFD074604E0FFF79AFDC01B0228E5
:1007C00060D8306A8007F7D4207840076CD5A868D5
:1007D00000278006400F042818D0E86BC00008D41A
:1007E000E96B012000070143E963E96B0140012740
:1007F000009175480168C90519D401688215114333
:100800000160FFF775FD00900DE083E0F06980075F
:100810004AD5A06800287DD046E0FFF769FD009921
:10082000401A02282ED868480068C005F5D5A1688E
:10083000012910D004200529F16911D04908490087
:10084000F161F1698143F161A068002816D0FFF7DA
:100850004FFD00900EE0F06901210843F061F3E7DD
:100860000143F161F7E7FFF743FD0099411A57484B
:1008700081426FD8F0698007F5D50EE0FFF738FDAB
:10088000009007E066E0FFF733FD0099411A4F48FA
:1008900081425FD8F0698007F5D4002F04D0E86B5F
:1008A000012109078843E863E06900287FD0A9682F
:1008B0008906490F022953D00126360602282868E6
:1008C0000DD0B0432860E86880088000E860E868E0
:1008D0003F490840E860FFF70BFD04463CE0B043A9
:1008E0002860FFF705FD074604E0FFF701FDC01B88
:1008F00002282FD828688001F7D4616A206AA26A8A
:100900000843E16A120211430843216B0843616BFB
:10091000084300E049E0E9682E4A11400843E860D6
:10092000286830432860E868012109070843E86027
:10093000FFF7DEFC044604E0FFF7DAFC001B0228A8
:1009400008D828688001F7D531E0FFF7D1FC001BFB
:10095000022801D90320F8BD28688001F5D426E0DB
:100960000128F8D0E868226A8107890F91421CD1DA
:100970007021626A0140914217D17F21A26A090267
:1009800001401202914210D11F214904E26A014044
:1009900091420AD107214906226B0140914204D1BC
:1009A000400F616B4007884201D00120F8BD002054
:1009B000F8BD0000001002400024F4000C000020EC
:1009C0000400002040100240007000408813000026
:1009D000FFFFFEEE8C80C11103490A6803235B020E
:1009E0009A4302430A60704700000140094910B56C
:1009F000401E884201D9012010BD074C60610321CF
:100A0000081F00F085F80020A06107202061002069
:100A100010BD0000FFFFFF0000E000E0FEE7000067
:100A2000F0B587B014216846FFF77FFB1848416B8B
:100A3000012529434163416B29400591426B022105
:100A40000A434263406B05260840360705900022A2
:100A5000FF213046FFF746FC0E4F002207213846A3
:100A6000FFF740FCFF2000240090029469460195A6
:100A700003943046FFF788FB0720009002946946F4
:100A8000019503943846FFF77FFB07B0F0BD0000E7
:100A90000010024000040050FEE77047704710B598
:100AA000FFF72CFC10BD10B592B038216846FFF757
:100AB0003CFB002401200E940F94109440021194EA
:100AC000FFF77AFC02200090C001039040200590BF
:100AD000049407946846FFF787FD002801D072B69A
:100AE000FEE707200E900F941094002111940EA899
:100AF000FFF788FC002801D072B6FEE712B010BDE7
:100B000001200249C00688607047000000ED00E047
:100B10008307FF22DB0E9A408907090E99400028BF
:100B200008DB830809489B001B181868904308439A
:100B3000186070470007000F0838830804489B00BE
:100B40001B18D86990430843D861704700E400E05F
:100B500000ED00E002E008C8121F08C1002AFAD127
:100B600070477047002001E001C1121F002AFBD12D
:100B7000704710B5382000F021F80C2000F01EF866
:100B8000062000F01BF8012000F018F810BD10B589
:100B9000002901D04030C0B28021084300F00EF897
:100BA00010BD10B51446FFF7F2FF02E000F02AF87E
:100BB000641C20780028F9D110BD000070B50446EF
:100BC0000A20FFF7CFFA0E4D002201212846FFF739
:100BD00089FB002202212846FFF784FB052000073D
:100BE0004461012204212846FFF77CFB0A20FFF71D
:100BF000B9FA002204212846FFF774FB70BD0000FB
:100C00000004005070B504460A20FFF7ABFA0E4D01
:100C1000012211462846FFF765FB002202212846E3
:100C2000FFF760FB052000074461012204212846EC
:100C3000FFF758FB0A20FFF795FA00220421284607
:100C4000FFF750FB70BD000000040050FFF75EFB93
:100C5000FFF729FFFFF7E4FEFFF78BFF0A20FFF7FE
:100C600081FA00210DA20846FFF79BFF0FA2012188
:100C70000520FFF796FF05242407012220212046A6
:100C8000FFF730FB6420FFF76DFA00222021204699
:100C9000FFF728FB6420FFF765FAEEE75869616FFC
:100CA0002058696E2058696E000000005600000050
:100CB0000000000000000000000000000000000034
:100CC0000000000000000000000000000000000024
:100CD000010000000200000003000000040000000A
:100CE00006000000070000000800000009000000E6
:100CF000100D00080000002010000000540B000838
:100D0000200D00081000002000040000640B000803
:100D10000100000004000000000000000024F400B6
:04000005080000BD32
:00000001FF
