:020000040800F2
:10000000A8610020D5000008050B0008890A000837
:1000100000000000000000000000000000000000E0
:10002000000000000000000000000000090B0008B4
:100030000000000000000000070B00080B0B000888
:10004000E7000008E7000008E7000008E7000008F4
:10005000E7000008E7000008E7000008E7000008E4
:10006000E7000008E7000008E7000008E7000008D4
:10007000E7000008E7000008E7000008E7000008C4
:10008000E7000008E7000008E7000008E7000008B4
:10009000E7000008E7000008E7000008E7000008A4
:1000A000E7000008E7000008E7000008E700000894
:1000B000E7000008E7000008E7000008044885465C
:1000C00000F048F800480047D90F0008C046C04675
:1000D000A86100200448804704480047FEE7FEE787
:1000E000FEE7FEE7FEE7FEE76D0B0008BD00000837
:1000F00030B50B46014600202022012409E00D46C0
:10010000D5409D4205D31D469540491B2546954047
:1001100040191546521E002DF1DC30BDD2B201E06F
:100120000270401C491EFBD270470022F6E710B552
:1001300013460A4604461946FFF7F0FF204610BD55
:1001400003460A780270401C491C002AF9D118465F
:1001500070470000064C0125064E05E0E36807CC19
:100160002B430C3C98471034B442F7D3FFF7AAFF57
:10017000F01100081012000870B58C180578401CAA
:100180006B075B0F01D10378401C2A1106D102785E
:10019000401C03E006780E70401C491C5B1EF9D120
:1001A0002B0705D40023521E0DD40B70491CFAE70F
:1001B0000378401CCB1A921C03E01D780D70491C7B
:1001C0005B1C521EF9D5A142D8D3002070BD00009F
:1001D00070B5044600F0C2F80546601C02D0044821
:1001E0000078241800F0BAF8401BA042FAD370BD82
:1001F00000510020FCB5002301259AE022462C4640
:100200009C4022406FD04E68012E05D0022E03D0B4
:10021000112E01D0122E16D186680327B4465E0037
:10022000B646B7406646BE43B446CF687646B7404A
:100230006646374387604668A6430C79E406E40FB8
:100240009C4034434460C6685F000324BC40A4461D
:10025000A6438C68BC403443C4604C68022C01D077
:10026000122C14D1DC08A40024180194266A5C071F
:10027000B646E60E0F24B44000967646A643B64630
:100280000C69009EB44076462643019C26620468B1
:100290006646B4430E79B607B60FBE4026430660E5
:1002A0004C68E40044D59E08254CB6003419A44699
:1002B000246E9E07F60E0F27B740BC4305273F0765
:1002C000B84201D1002710E01E4FB84201D10127EA
:1002D0000BE01D4FB84201D1022706E01B4FB84288
:1002E00002D1032701E023E00527B74027436446F6
:1002F0002766134E803634684F689443FF0300D559
:100300001443346074684F689443BF0300D51443AA
:1003100074600B4C26684F689643FF0200D5164365
:10032000266066684F689643BF0200D51643666034
:100330005B1C0A681446DA4000D05FE7FCBD000091
:10034000001802400004005000080050000C00504B
:10035000002A01D08161704781627047014880683E
:100360007047000000510020024881680278891817
:10037000816070470051002010B5084800240168D2
:10038000821511430160204600F00AF8002801D0D0
:10039000012401E000F028F8204610BD00200240B2
:1003A00070B50F4E002431780546002915D07D2008
:1003B000C000FFF79DFE01460A480068FFF798FE5F
:1003C00000F04AFB002808D1042D06D2002229465D
:1003D000401E00F023F8756000E00124204670BD47
:1003E000005100200C51002008B50B480168012283
:1003F0001143016000681040009007484038C26B0C
:1004000001040A43C263C06B08400090032040020D
:1004100000F018FB08BD00004010024010B500F0CD
:10042000ADFB10BD10B50F4C216803225202914361
:1004300001432160C11FFF39FA390ED10A48062154
:10044000006848430949FFF753FE401C02E00028BA
:1004500005D0401E61694905F9D4002010BD032074
:1004600010BD0000007000400C51002040420F0001
:10047000F8B50F46060043D04D4D28684007400FA1
:10048000B84213D22868C008C00038432860FFF77C
:1004900065FF044605E0FFF761FF011B4548814207
:1004A00061D828684007400FB842F4D13068424C08
:1004B00081070DD5400704D5A0680721090308432B
:1004C000A060A0680F2109028843B1680843A060BA
:1004D0003078C00732D0706801280AD002280BD0CB
:1004E00000280FD03449403103280ED0C96989074C
:1004F00004E02168890301E021688901002906DB05
:100500000120F8BD21684905F8E7096AEFE7A1680D
:10051000C908C9000143A160FFF720FF009006E071
:10052000FFF71CFF0099411A224881421BD8A0689E
:10053000382108407168C9008842F1D12868400715
:10054000400FB84217D91A480168C908C900394391
:100550000160FFF703FF054607E0FFF7FFFE411BC1
:100560001448814201D90320F8BD114800684007B2
:10057000400FB842F1D13078400706D5A068072176
:1005800009038843F1680843A06000F01DF8A168E2
:100590003C2289091140094A515CC906C90EC8406C
:1005A0000749086007480068FFF7FAFEF8BD000039
:1005B000002002408813000000100240B011000823
:1005C0000C5100200451002010B5204CA068204A96
:1005D0008006400F16D0A0688006410F50100129F8
:1005E0000FD0A1688906490F022912D0A0688006A1
:1005F000400F042823D0A0688006400F032821D094
:10060000002010BD206801218004400F8140104669
:1006100012E0E1688B07E1689B0F4906490F491C0E
:10062000032B00D01046FFF763FDE1684904490E33
:100630004843E168490F491CFFF75AFD10BD0120EE
:10064000C00310BD7D20000210BD0000001002405C
:100650000024F400F8B504007ED020783827C007C5
:10066000EF4D002846D0A868E96838408907890F0F
:10067000102802D008280BD001E0032908D001205F
:100680006268000482420AD129680143296015E0AA
:10069000286880032ED560680028DDD02AE0052375
:1006A00001211B0489049A422A6802D10A432A6064
:1006B000EAE782432A602868884328606068002847
:1006C0000CD0FFF74BFE064604E0FFF747FE801B09
:1006D000642873D828688003F7D50BE0FFF73EFE47
:1006E000064604E0FFF73AFE801B6428F1D828682C
:1006F0008003F7D42078800769D5A868E968384076
:100700008A070721920FC902102802D0002813D0AF
:1007100001E0022A10D0E068002846D0286888430B
:100720002169084328602868FF21013108432860B7
:10073000FFF714FE06462CE02A68520502D5E2684F
:10074000002A89D06A687F231B029A4363691B02CF
:100750001A436A60002800E08DE00ED128688843C3
:10076000216908432860286801218004400F8140E6
:10077000AC48FFF7BDFCAC490860AC480068FFF727
:100780000FFE002877D122E0FFF7E8FD801B02284A
:100790009FD828684005F7D568687F2109028843FB
:1007A000616909020843686011E02968FF2001308F
:1007B00081432960FFF7D2FD064605E098E0FFF788
:1007C000CDFD801B022884D828684005F7D4207806
:1007D000974E00072ED5A8688006400F03280AD040
:1007E000A0690028306A16D0012108433062FFF763
:1007F000B5FD07460BE0306A80071BD5A0690028CD
:100800009FD017E0FFF7AAFDC01B022870D8306AFE
:100810008007F7D50EE0400840003062FFF79EFDEC
:10082000074604E0FFF79AFDC01B022860D8306A33
:100830008007F7D4207840076CD5A8680027800689
:10084000400F042818D0E86BC00008D4E96B0120E1
:1008500000070143E963E96B0140012700917548F6
:100860000168C90519D40168821511430160FFF7B9
:1008700075FD00900DE083E0F06980074AD5A0681F
:1008800000287DD046E0FFF769FD0099401A022854
:100890002ED868480068C005F5D5A168012910D098
:1008A00004200529F16911D049084900F161F16975
:1008B0008143F161A068002816D0FFF74FFD00903A
:1008C0000EE0F06901210843F061F3E70143F161B3
:1008D000F7E7FFF743FD0099411A574881426FD867
:1008E000F0698007F5D50EE0FFF738FD009007E0CE
:1008F00066E0FFF733FD0099411A4F4881425FD807
:10090000F0698007F5D4002F04D0E86B01210907B6
:100910008843E863E06900287FD0A9688906490F09
:10092000022953D001263606022828680DD0B0438C
:100930002860E86880088000E860E8683F4908406F
:10094000E860FFF70BFD04463CE0B0432860FFF78A
:1009500005FD074604E0FFF701FDC01B02282FD864
:1009600028688001F7D4616A206AA26A0843E16AB4
:10097000120211430843216B0843616B084300E0F6
:1009800049E0E9682E4A11400843E860286830438E
:100990002860E868012109070843E860FFF7DEFCEA
:1009A000044604E0FFF7DAFC001B022808D8286898
:1009B0008001F7D531E0FFF7D1FC001B022801D9F7
:1009C0000320F8BD28688001F5D426E00128F8D07E
:1009D000E868226A8107890F91421CD17021626AFE
:1009E0000140914217D17F21A26A090201401202FF
:1009F000914210D11F214904E26A014091420AD17B
:100A000007214906226B0140914204D1400F616BDE
:100A10004007884201D00120F8BD0020F8BD000049
:100A2000001002400024F4000C510020045100206A
:100A3000401002400070004088130000FFFFFEEEEF
:100A40008C80C11103490A6803235B029A43024365
:100A50000A60704700000140094910B5401E8842F5
:100A600001D9012010BD074C60610321081F00F06F
:100A700085F80020A06107202061002010BD000043
:100A8000FFFFFF0000E000E0FEE70000F0B587B0E8
:100A900014216846FFF749FB1848416B012529439B
:100AA0004163416B29400591426B02210A43426335
:100AB000406B05260840360705900022FF2130468E
:100AC000FFF746FC0E4F00221F213846FFF740FC7F
:100AD000FF2000240090029469460195039430465B
:100AE000FFF788FB1F20009002946946019503944C
:100AF0003846FFF77FFB07B0F0BD00000010024052
:100B000000040050FEE77047704710B5FFF72CFC5B
:100B100010BD10B592B038216846FFF706FB0024DF
:100B200001200E940F94109440021194FFF77AFC68
:100B300002200090C0010390402005900494079487
:100B40006846FFF787FD002801D072B6FEE7072050
:100B50000E900F941094002111940EA8FFF788FCBA
:100B6000002801D072B6FEE712B010BD0120024984
:100B7000C00688607047000000ED00E08307FF2298
:100B8000DB0E9A408907090E9940002808DB83088C
:100B900009489B001B181868904308431860704769
:100BA0000007000F0838830804489B001B18D86909
:100BB00090430843D861704700E400E000ED00E096
:100BC00002E008C8121F08C1002AFAD17047704716
:100BD000002001E001C1121F002AFBD17047000074
:100BE00030B50020074C0346502200214243121921
:100BF0008D00491C53511429FADB401C1428F3DBE7
:100C000030BD00005057002030B50020074C03468F
:100C100050220021424312198D00491C53511429BE
:100C2000FADB401C1428F3DB30BD0000105100201B
:100C300003490A224A61D20650611E20486170476A
:100C40000004005004490B224A610522120750613A
:100C50001E2048617047000000040050FCB52A20A7
:100C6000FFF7E6FF0020FFF7EDFF0020FFF7EAFFA8
:100C70000020FFF7E7FFEF20FFF7E4FF2B20FFF74F
:100C8000D7FF0020FFF7DEFF0020FFF7DBFF01208A
:100C9000FFF7D8FF3F20FFF7D5FF2C20FFF7C8FF55
:100CA00000241248502100276143081801900025B4
:100CB0000026A8000090009901984058002804D010
:100CC00014214843C1B2C0B201E00021084600F03F
:100CD0005DFA761C0C2EEED36D1C142DE8D37F1C10
:100CE000102FE4D3641C142CDBD3FCBD5057002020
:100CF000FEB52A20FFF79CFF0020FFF7A3FF00208E
:100D0000FFF7A0FF0020FFF79DFFEF20FFF79AFFFE
:100D10002B20FFF78DFF0020FFF794FF0020FFF747
:100D200091FF0120FFF78EFF3F20FFF78BFF2C2064
:100D3000FFF77EFF00245021174800256143081863
:100D40000190002728463021484302900026B80031
:100D500000900099019840581B280ADA03210902E3
:100D600048430E49411802980818B100405801281C
:100D700001D0002100E0FF21002000F007FA761CDE
:100D80000C2EE6D37F1C142FE0D36D1C102DD8D36E
:100D9000641C142CCFD3FEBD105100200000002095
:100DA00010B58C4C012208212046FFF7D1FA1420FF
:100DB000FFF70EFA002208212046FFF7C9FA282083
:100DC000FFF706FA012208212046FFF7C1FA282082
:100DD000FFF7FEF9CF20FFF72BFF0020FFF732FFD0
:100DE000C120FFF72FFF3020FFF72CFFED20FFF78A
:100DF0001FFF6420FFF726FF0320FFF723FF1220C9
:100E0000FFF720FF8120FFF71DFFE820FFF710FF0D
:100E10008520FFF717FF1020FFF714FF7A20FFF758
:100E200011FFCB20FFF704FF3920FFF70BFF2C2029
:100E3000FFF708FF0020FFF705FF3420FFF702FF50
:100E40000220FFF7FFFEF720FFF7F2FE2020FFF75A
:100E5000F9FEEA20FFF7ECFE0020FFF7F3FE00208A
:100E6000FFF7F0FEC020FFF7E3FE2120FFF7EAFEC8
:100E7000C120FFF7DDFE1320FFF7E4FEC520FFF7DA
:100E8000D7FE3F20FFF7DEFE3C20FFF7DBFEC7204A
:100E9000FFF7CEFEB320FFF7D5FE3620FFF7C8FEE2
:100EA0000820FFF7CFFE3A20FFF7C2FE5520FFF7DC
:100EB000C9FEB120FFF7BCFE0020FFF7C3FE1B20D8
:100EC000FFF7C0FEB620FFF7B3FE0A20FFF7BAFE19
:100ED000A220FFF7B7FEF620FFF7AAFE0120FFF7DA
:100EE000B1FE3020FFF7AEFEF220FFF7A1FE00209A
:100EF000FFF7A8FE2620FFF79BFE0120FFF7A2FECA
:100F0000E020FFF795FE0F20FFF79CFE2420FFF75F
:100F100099FE2120FFF796FE0C20FFF793FE0F208D
:100F2000FFF790FE0920FFF78DFE4D20FFF78AFEA8
:100F3000B820FFF787FE3C20FFF784FE0A20FFF76A
:100F400081FE1320FFF77EFE0420FFF77BFE0A20C0
:100F5000FFF778FE0520FFF775FE0020FFF772FE11
:100F6000E120FFF765FE0020FFF76CFE1B20FFF776
:100F700069FE1E20FFF766FE0320FFF763FE1020C8
:100F8000FFF760FE0620FFF75DFE3220FFF75AFEF6
:100F90004720FFF757FE4320FFF754FE0520FFF7D9
:100FA00051FE0C20FFF74EFE0B20FFF74BFE3520C5
:100FB000FFF748FE3A20FFF745FE0F20FFF742FEFD
:100FC0001120FFF735FE7820FFF702F92920FFF7FF
:100FD0002FFE10BD00040050FFF7CEF9FFF799FD7A
:100FE000FFF754FD00F0B4F8FFF7DAFE0FA1124846
:100FF000FFF7A6F81049052000F02EF80FA10E48C3
:10100000FFF79EF80C49062000F026F8114CFFF778
:1010100025FE2046FFF7DCF8FFF76AFE2046FFF7C3
:10102000D7F8FFF7DDFDFFF7EFFDF0E748454C4C43
:101030004F20574F524C4400905D00204920414DB5
:10104000204C49205449414E4C494E4720202020F5
:101050000000000070170000502358433B4B10B5B0
:101060000022C0188B5C202B34D0412B34D0422B73
:1010700034D0432B34D0442B34D0452B34D0462BA2
:1010800034D0472B34D0482B34D0492B34D04A2B82
:1010900034D04B2B34D04C2B34D04D2B34D04E2B62
:1010A00034D04F2B34D0502B34D0512B34D0522B42
:1010B00034D0532B34D0542B34D0552B34D0562B22
:1010C00034D0572B34D0582B34D0592B34D05A2B02
:1010D00034D036E0002332E0012330E002232EE05A
:1010E00003232CE004232AE0052328E0062326E03E
:1010F000072324E0082322E0092320E00A231EE03E
:101100000B231CE00C231AE00D2318E00E2316E03D
:101110000F2314E0102312E0112310E012230EE03D
:1011200013230CE014230AE0152308E0162306E03D
:10113000172304E0182302E0192300E01A23940087
:101140000351521C132A8DDB10BD000010510020EA
:1011500010B50D4C012208212046FFF7F9F80520B3
:10116000FFF736F8002208212046FFF7F1F80520A6
:10117000FFF72EF8012208212046FFF7E9F80520A5
:10118000FFF726F810BD00000004005010B5074A14
:101190000F2353610524240760610B2050615361C4
:1011A000616150611F20506110BD000000040050BB
:1011B000000000000000000000000000000000002F
:1011C000000000000000000000000000000000001F
:1011D0000100000002000000030000000400000005
:1011E00006000000070000000800000009000000E1
:1011F00010120008000000201051000078010008C3
:10120000781500081051002098100000D00B00083D
:1012100001FF01FF01FF01439A0104094E30A92893
:10122000092234E920091A30091250091A64A9B8B0
:10123000E904092A2C093678096A3001FF01210ADC
:10124000110104092E30091A3809121C09523009FB
:1012500026C4093630096EC0092A3001FF01450A4B
:10126000110104092A2C09163009225009123009EB
:101270002EB8098E30093634092640092E3001FF78
:1012800001190A110104092E30091A3809121C0922
:10129000FD3009131C09120409263001FF013D0A23
:1012A000190104094A30092E9009FDC00947C001FF
:1012B000FF01210A190104094A30092E90093AC098
:1012C000095230095EC009563001FF01290A110197
:1012D00004092A2C091630092250091230092EB8A7
:1012E000092670093E30091EA4091250091ED4A90E
:1012F00034091E90091A3401FF01355A0104091EF0
:1013000014099E30091204094A30098EF00926306A
:1013100001FF01250A150104094630E938092E9814
:1013200009DE306928E90409463001FF01210A1568
:101330000104094630E938092E9809AA30A9200984
:101340002630E904092688092EC001FF01155A013B
:1013500004091E1409161C091A2CE920091E2CA9BF
:101360002409222CE930092AF0093230092A90098F
:101370002EF0091610091E3009266801FF01195ABE
:10138000010409FD30097F3009120409423001FFD0
:1013900001215A010409261C6914093218691C0923
:1013A000121409127409163809463069100922F01E
:1013B000011409A23001FF01215A010409261C6908
:1013C00014091234094E3009161C091614E92009B3
:1013D0002244091A400946A4E934095230091E1C66
:1013E00001FF0121DA0104092A2C091A340912200B
:1013F000091A3409C6180926F0E920091E2C091615
:101400003401FF01390A150104092E300916340987
:10141000121C095230092E90092EF00128098E3035
:1014200001FF0129DA0104092A2C091A34091220C2
:10143000091A3409C6180926F0E9200912040922FC
:1014400034A91801FF012D0A150104092E300916CF
:101450003409121C095230092E900936F00120A9D6
:1014600028092234E924092690091E1401FF0131BC
:101470000A110104092A2C091634091E4C093E30B0
:10148000092EBC093A340952D8091288091E5C0990
:101490003EBC01FFD10A1D0104093E3009123C097E
:1014A0002E9C09FD3009473001FF01155A0104093E
:1014B000FD18094F18A91C091214091634091E2C0D
:1014C00009163401FF01390A2D011C093230095A6D
:1014D0001809121C091A2C093230E9DC091E2CA942
:1014E0005409225C092A88093A3001FF01155A0182
:1014F0000409261C099E30E90C091A30690CE91010
:10150000091230091638091A30092A18092AF00177
:101510001C091E2001FF01115A0104091610093E81
:1015200030A92409222C09323009268809363009CD
:101530005AC0E924091E34092E3001FF01215A0145
:1015400004091610096E30A92409222C092A580909
:10155000FA3001FF01190A190104094230091A443D
:10156000097A2C098688692C09120409423001EC99
:08157000320182041324F4008F
:04000005080000BD32
:00000001FF
