:020000040800F2
:1000000080040020D5000008B90E0008710E000819
:1000100000000000000000000000000000000000E0
:10002000000000000000000000000000FD100008BB
:100030000000000000000000BB0E0008FF100008D8
:10004000E7000008E7000008E7000008E7000008F4
:10005000E7000008E7000008E7000008E7000008E4
:10006000E7000008E7000008E7000008E7000008D4
:10007000E7000008E7000008E7000008E7000008C4
:10008000E7000008E7000008E7000008E7000008B4
:10009000E7000008E7000008E7000008E7000008A4
:1000A000E7000008E7000008E7000008E700000894
:1000B000E7000008E7000008E7000008044885465C
:1000C00000F03EF800480047E5110008C046C04671
:1000D000800400200448804704480047FEE7FEE70C
:1000E000FEE7FEE7FEE7FEE771110008BD0000082D
:1000F00030B50B46014600202022012409E00D46C0
:10010000D5409D4205D31D469540491B2546954047
:1001100040191546521E002DF1DC30BDD2B201E06F
:100120000270401C491EFBD270470022F6E710B552
:1001300013460A4604461946FFF7F0FF204610BD55
:10014000064C0125064E05E0E36807CC2B430C3C2A
:1001500098471034B442F7D3FFF7B4FF6812000891
:100160008812000870B5044600F0BCF80546601C13
:1001700002D004480078241800F0B4F8401BA042D4
:10018000FAD370BD08000020FCB5002301259AE0D9
:1001900022462C469C4022406FD04E68012E05D04E
:1001A000022E03D0112E01D0122E16D186680327FD
:1001B000B4465E00B646B7406646BE43B446CF6816
:1001C0007646B7406646374387604668A6430C7953
:1001D000E406E40F9C4034434460C6685F00032497
:1001E000BC40A446A6438C68BC403443C4604C6801
:1001F000022C01D0122C14D1DC08A4002418019484
:10020000266A5C07B646E60E0F24B4400096764692
:10021000A643B6460C69009EB44076462643019C30
:10022000266204686646B4430E79B607B60FBE4030
:10023000264306604C68E40044D59E08254CB60071
:100240003419A446246E9E07F60E0F27B740BC4310
:1002500005273F07B84201D1002710E01E4FB842E2
:1002600001D101270BE01D4FB84201D1022706E062
:100270001B4FB84202D1032701E023E00527B74016
:10028000274364462766134E803634684F6894438C
:10029000FF0300D51443346074684F689443BF0370
:1002A00000D5144374600B4C26684F689643FF02D8
:1002B00000D51643266066684F689643BF0200D596
:1002C000164366605B1C0A681446DA4000D05FE79C
:1002D000FCBD00000018024000040050000800505F
:1002E000000C0050014880687047000008000020A2
:1002F00002488168027889188160704708000020F0
:1003000010B5084800240168821511430160204699
:1003100000F00AF8002801D0012401E000F028F8DC
:10032000204610BD0020024070B50F4E00243178E9
:100330000546002915D07D20C000FFF7D9FE0146F3
:100340000A480068FFF7D4FE00F07AFD002808D1C3
:10035000042D06D200222946401E00F023F87560C5
:1003600000E00124204670BD080000201400002099
:1003700008B50B4801680122114301600068104074
:10038000009007484038C26B01040A43C263C06B47
:10039000084000900320400200F048FD08BD000026
:1003A0004010024010B500F0EBFE10BDF8B50F464E
:1003B000060043D04D4D28684007400FB84213D285
:1003C0002868C008C00038432860FFF78BFF044648
:1003D00005E0FFF787FF011B4548814261D8286887
:1003E0004007400FB842F4D13068424C81070DD528
:1003F000400704D5A068072109030843A060A0684E
:100400000F2109028843B1680843A0603078C00713
:1004100032D0706801280AD002280BD000280FD0F3
:100420003449403103280ED0C969890704E02168A6
:10043000890301E021688901002906DB0120F8BD5C
:1004400021684905F8E7096AEFE7A168C908C9000A
:100450000143A160FFF746FF009006E0FFF742FF6F
:100460000099411A224881421BD8A06838210840CF
:100470007168C9008842F1D128684007400FB8422E
:1004800017D91A480168C908C90039430160FFF744
:1004900029FF054607E0FFF725FF411B144881426D
:1004A00001D90320F8BD114800684007400FB84249
:1004B000F1D13078400706D5A068072109038843A9
:1004C000F1680843A06000F01DF8A1683C2289098A
:1004D0001140094A515CC906C90EC8400749086065
:1004E00007480068FFF720FFF8BD00000020024029
:1004F0008813000000100240281200081400002099
:100500000C00002010B5204CA068204A8006400F47
:1005100016D0A0688006410F501001290FD0A168A5
:100520008906490F022912D0A0688006400F0428CE
:1005300023D0A0688006400F032821D0002010BDE2
:10054000206801218004400F8140104612E0E168DC
:100550008B07E1689B0F4906490F491C032B00D00C
:100560001046FFF7C5FDE1684904490E4843E168BC
:10057000490F491CFFF7BCFD10BD0120C00310BD91
:100580007D20000210BD0000001002400024F40095
:10059000F8B504007ED020783827C007EF4D00283A
:1005A00046D0A868E96838408907890F102802D02A
:1005B00008280BD001E0032908D00120626800045C
:1005C00082420AD129680143296015E02868800326
:1005D0002ED560680028DDD02AE0052301211B0408
:1005E00089049A422A6802D10A432A60EAE78243D0
:1005F0002A60286888432860606800280CD0FFF7CC
:1006000071FE064604E0FFF76DFE801B642873D878
:1006100028688003F7D50BE0FFF764FE064604E088
:10062000FFF760FE801B6428F1D828688003F7D4A8
:100630002078800769D5A868E96838408A070721CB
:10064000920FC902102802D0002813D001E0022A1C
:1006500010D0E068002846D0286888432169084304
:1006600028602868FF21013108432860FFF73AFE1F
:1006700006462CE02A68520502D5E268002A89D095
:100680006A687F231B029A4363691B021A436A60EC
:10069000002800E08DE00ED12868884321690843D6
:1006A0002860286801218004400F8140AC48FFF792
:1006B0001FFDAC490860AC480068FFF735FE002814
:1006C00077D122E0FFF70EFE801B02289FD8286812
:1006D0004005F7D568687F210902884361690902EE
:1006E0000843686011E02968FF20013081432960D8
:1006F000FFF7F8FD064605E098E0FFF7F3FD801BE5
:10070000022884D828684005F7D42078974E00073F
:100710002ED5A8688006400F03280AD0A0690028BB
:10072000306A16D0012108433062FFF7DBFD07462F
:100730000BE0306A80071BD5A06900289FD017E026
:10074000FFF7D0FDC01B022870D8306A8007F7D5AC
:100750000EE0400840003062FFF7C4FD074604E0A9
:10076000FFF7C0FDC01B022860D8306A8007F7D4AD
:10077000207840076CD5A86800278006400F042821
:1007800018D0E86BC00008D4E96B012000070143D2
:10079000E963E96B01400127009175480168C905CB
:1007A00019D40168821511430160FFF79BFD009089
:1007B0000DE083E0F06980074AD5A06800287DD06D
:1007C00046E0FFF78FFD0099401A02282ED86848AE
:1007D0000068C005F5D5A168012910D004200529BD
:1007E000F16911D049084900F161F1698143F16172
:1007F000A068002816D0FFF775FD00900EE0F069A4
:1008000001210843F061F3E70143F161F7E7FFF7E6
:1008100069FD0099411A574881426FD8F0698007F5
:10082000F5D50EE0FFF75EFD009007E066E0FFF70C
:1008300059FD0099411A4F4881425FD8F0698007FD
:10084000F5D4002F04D0E86B012109078843E86341
:10085000E06900287FD0A9688906490F022953D092
:1008600001263606022828680DD0B0432860E868C3
:1008700080088000E860E8683F490840E860FFF7CA
:1008800031FD04463CE0B0432860FFF72BFD0746EE
:1008900004E0FFF727FDC01B02282FD8286880013D
:1008A000F7D4616A206AA26A0843E16A120211431E
:1008B0000843216B0843616B084300E049E0E968A5
:1008C0002E4A11400843E860286830432860E868F1
:1008D000012109070843E860FFF704FD044604E02E
:1008E000FFF700FD001B022808D828688001F7D513
:1008F00031E0FFF7F7FC001B022801D90320F8BD07
:1009000028688001F5D426E00128F8D0E868226A3A
:100910008107890F91421CD17021626A0140914286
:1009200017D17F21A26A090201401202914210D11F
:100930001F214904E26A014091420AD10721490678
:10094000226B0140914204D1400F616B4007884205
:1009500001D00120F8BD0020F8BD000000100240C9
:100960000024F400140000200C000020401002407D
:100970000070004088130000FFFFFEEE8C80C11164
:10098000F8B504000CD0606A002500280AD0256163
:10099000656126464036A562707F002808D00BE0CE
:1009A0000120F8BD6168C81FFD38F2D0E561F0E7AD
:1009B0003577204600F05CF80222727720680168E3
:1009C0004023994301600723E1681B02994201D942
:1009D000002001E0012000030F273F02B94202D0AE
:1009E000994200D0A562FF23616805331940212791
:1009F000A368BF023B40194323691340227D19437A
:100A0000D207D20F11430123A2695B021A4011439E
:100A1000E26938231A401143226A80231A401143A5
:100A2000A26A9B011A40114322681160A169042245
:100A3000090C1140626A10231A401143626B0823AB
:100A40001A4011430F23E2681B021A40114301228E
:100A5000120310400143206841602068C1695210B0
:100A60009143C1612566012070770020F8BD000028
:100A700010B586B0044614216846FFF756FB1149AD
:100A8000206888421BD11048026881140A43026022
:100A9000006808400C49059040394A6B0220024327
:100AA0004A63496B01900140029005910020382172
:100AB00000910390049069460448FFF765FB06B077
:100AC00010BD000000300140401002400004005002
:100AD000FFB504464068FF21254600260531403514
:100AE00081B01746884202D1A06800280CD0287F28
:100AF000012815D001202877FFF7F4FB0090687FCC
:100B000001280FD002268FE004206877134604984E
:100B1000029A00901146204600F08EF805B0F0BD14
:100B20000220FBE7029800287DD0002F7BD0042014
:100B300068770020206602992164AF80EF80A0636F
:100B4000A087E087E064206507210120E2680902B0
:100B500000038A422268536801D9834300E00343BB
:100B600053600123A068DB034022984208D120682B
:100B7000036893430360206803681702BB43036064
:100B8000206803685B0602D4036813430360E068CF
:100B900088421AD938E020688168C90709D0007BEB
:100BA000216C0870206C401C2064E888401EE8809E
:100BB0000BE0FFF797FB0099411A0498814202D39A
:100BC000401C02D036E0002834D0E8880028E2D16A
:100BD0001DE020688168C90709D0C068216C0880C1
:100BE000206C801C2064E888401EE8800CE0FFF741
:100BF00079FB01460098091A0498814202D3401CEF
:100C000002D017E0002815D0E8880028E1D120465E
:100C1000009A049900F052F9002801D020202066A3
:100C2000206E002800D00126012068770020287758
:100C3000304673E70326F7E7FFB5044683B001208B
:100C400001900020254640350090287F0C9F1E46CD
:100C500001280FD001202877FFF744FB0290687F1E
:100C6000616801280DD0CA1FFD3A08D1A16800298A
:100C700005D102E0022007B0F0BD042801D0022017
:100C8000D1E00498002820D0059800281DD0002E1F
:100C90001BD0687F042801D00520687700202066DB
:100CA00005992164EE80AE800499A163E687A6874A
:100CB000E064206507210120E268090200038A42FE
:100CC0002268536803D9834302E00120ABE0034369
:100CD000536020680268520603D4026840231A4316
:100CE0000260E0688842606844D9002801D0012E83
:100CF00039D1A06B21680088C860A06B801CA063FC
:100D0000E08F401EE0872EE020688168890710D5BB
:100D1000E18F00290DD0019901290AD1A16B098821
:100D2000C160A06B801CA063E08F401EE0870020A4
:100D3000019020688168C9070DD0E98800290AD090
:100D4000C068216C0880206C801C2064E888401EEC
:100D5000E88001200190FFF7C5FA0299401AB842D5
:100D600001D3781C5ED1E08F0028CDD1E88800281F
:100D7000CAD146E0002801D0012E3CD1A06B2168E9
:100D800000780873A06B401CA063E08F401EE087D2
:100D900031E020688168890710D5E18F00290DD0E6
:100DA000019901290AD1A16B09780173A06B401C3C
:100DB000A063E08F401EE0870020019020688168DA
:100DC000C9070DD0E98800290AD0007B216C087082
:100DD000206C401C2064E888401EE88001200190BF
:100DE000FFF780FA0299401AB84202D3781C02D069
:100DF00018E0002F16D0E08F0028CAD1E88800281C
:100E0000C7D139462046029A00F094F8002803D052
:100E1000012000902020206601206877002028779C
:100E2000009828E703200090F6E7000003490A68CD
:100E300003235B029A4302430A60704700000140AB
:100E4000094910B5401E884201D9012010BD074C48
:100E500060610321081F00F093F90020A0610720C2
:100E60002061002010BD0000FFFFFF0000E000E057
:100E7000FEE7000010B50F480D49016000214160F8
:100E80000722816012020161C26041610122016298
:100E9000520241628261816207220163C262416340
:100EA000FFF76EFD002801D072B6FEE710BD00000E
:100EB0000030014018000020FEE77047F7B50446F7
:100EC0004068FF26053682B01546B0420CD101219C
:100ED000A068C903884202D04911884204D1206821
:100EE0000168402291430160009500228021204644
:100EF000039B00F0A7F82027002813D16068B042B8
:100F000016D1A068B902884202D0491188420FD197
:100F100003210095002249022046039B00F030F88F
:100F2000002805D0206E38432066032005B0F0BDB0
:100F30000020FBE7F8B50F460B461546009203214B
:100F400004460022C90200F01BF82026002812D116
:100F50003B46002280212046009500F073F80028CF
:100F600009D103213B46002249022046009500F0AA
:100F700007F8002803D0206E304320660320F8BD18
:100F8000FFB583B017460E4604460C9DFFF7AAF93D
:100F9000411B0698451AFFF7A5F90190284823211F
:100FA00000684843000D684342E0032149028E4235
:100FB00002D1002F00D1007B0698401C39D0FFF7EA
:100FC00091F90199401AA84205D2002D03D000984A
:100FD00000282BD02BE020684168E022914341603B
:100FE0006068C11FFD390CD10121A068C903884286
:100FF00002D04911884204D12068016840229143FF
:1010000001600120A16A4003814207D121680A687A
:1010100082430A6021680A6802430A600120403462
:10102000607700202077032007B0F0BD0025401E28
:101030000090206881683140B942B6D10020F3E7C2
:1010400014000020FFB581B01E4604460A9DFFF73C
:1010500049F9401B351AFFF745F90746264800684D
:101060004001000D684339E0701C38D0FFF73AF9B1
:10107000C01BA84205D2002D03D0009800282BD019
:101080002BE020684168E022914341606068C11F05
:10109000FD390CD10121A068C903884202D0491151
:1010A000884204D1206801684022914301600120F8
:1010B000A16A4003814207D121680A6882430A601D
:1010C00021680A6802430A600120403460770020EA
:1010D0002077032005B0F0BD0025401E0090206859
:1010E00081680298884305D0002103988142BBD1D2
:1010F0000020EFE70121F8E714000020704710B549
:10110000FFF7F6F810BD30B593B038216846FFF709
:101110000CF800250224E00103900F950094402074
:101120000E95059004953020099046200A900920DC
:101130001095400411950B900794A0060C9008940C
:1011400000010D906846FFF723FA002801D072B61F
:10115000FEE707200EA931C102210EA81195FFF765
:1011600025F9002801D072B6FEE713B030BD0000AB
:1011700001200249C00688607047000000ED00E0D1
:101180008307FF22DB0E9A408907090E9940002849
:1011900008DB830809489B001B1818689043084324
:1011A000186070470007000F0838830804489B0048
:1011B0001B18D86990430843D861704700E400E0E9
:1011C00000ED00E002E008C8121F08C1002AFAD1B1
:1011D00070477047002001E001C1121F002AFBD1B7
:1011E0007047000008B5FFF78BF8FFF78CFF0A483F
:1011F000426B02210A434263406B08400090FFF7B4
:1012000039FE064C0522234605490648FFF760FCD7
:101210000A20FEF7A7FFF5E7001002408813000040
:101220000000002018000020000000000000000066
:1012300000000000000000000000000000000000AE
:10124000000000000000000001000000020000009B
:10125000030000000400000006000000070000007A
:1012600008000000090000008812000800000020AB
:1012700018000000C4110008A01200081800002087
:1012800068040000D4110008000000000000000005
:101290000100000004000000000000000024F40031
:04000005080000BD32
:00000001FF
