:020000040800F2
:1000000080040020D500000835100008B50E000857
:1000100000000000000000000000000000000000E0
:10002000000000000000000000000000391000087F
:100030000000000000000000371000083B1000081E
:10004000E7000008E7000008E7000008E7000008F4
:10005000E7000008E7000008E70000086501000865
:10006000E7000008E7000008E7000008E7000008D4
:10007000E7000008E7000008E7000008E7000008C4
:10008000E7000008E7000008E7000008E7000008B4
:10009000E7000008E7000008E7000008E7000008A4
:1000A000E7000008E7000008E7000008E700000894
:1000B000E7000008E7000008E7000008044885465C
:1000C00000F03EF800480047D9160008C046C04678
:1000D000800400200448804704480047FEE7FEE70C
:1000E000FEE7FEE7FEE7FEE7A1100008BD000008FE
:1000F00030B50B46014600202022012409E00D46C0
:10010000D5409D4205D31D469540491B2546954047
:1001100040191546521E002DF1DC30BDD2B201E06F
:100120000270401C491EFBD270470022F6E710B552
:1001300013460A4604461946FFF7F0FF204610BD55
:10014000064C0125064E05E0E36807CC2B430C3C2A
:1001500098471034B442F7D3FFF7B4FF04180008EF
:1001600024180008F8B5FF260136304600F092F852
:100170003E4D3F4C002805D02E61606806280EDBFE
:10018000801E0BE001267602304600F083F800283E
:1001900006D02E6160680E2801DC801C6060F8BD0E
:1001A00001277F03384600F075F8002600280ED09E
:1001B0002F61A068002806D02EA2A660002106208C
:1001C00001F05AFAF8BD01202CA2A060F6E7012741
:1001D0003F03384600F05EF800282CD02F61294EEE
:1001E0007D102946304600F025F9012814D0294613
:1001F000304600F01FF90028E4D1A26922A1521C68
:10020000A2612069401C206119481C3001F016F9D8
:10021000174A1C32002126E062691BA1521C626150
:100220002069401C206112481C3001F007F9104A77
:100230001C320121C3E70127BF02384600F02AF82B
:100240000028BFD02F612269094826610EA11C3009
:10025000E26001F0F3F80DA201210E2001F00CFA8A
:10026000034A1C3201210E20AAE7000000180240B8
:10027000000000205169616E00000000486F752089
:10028000000000000008005025640000202020200D
:1002900000000000064A014612680020044B0A4094
:1002A000803B1B690B4202D0002A00D0012070471E
:1002B0008018024070B5044600F0C8F80546601C7E
:1002C00002D004480078241800F0C0F8401BA04277
:1002D000FAD370BD24000020FCB5002301259AE06C
:1002E00022462C469C4022406FD04E68012E05D0FD
:1002F000022E03D0112E01D0122E16D186680327AC
:10030000B4465E00B646B7406646BE43B446CF68C4
:100310007646B7406646374387604668A6430C7901
:10032000E406E40F9C4034434460C6685F00032445
:10033000BC40A446A6438C68BC403443C4604C68AF
:10034000022C01D0122C14D1DC08A4002418019432
:10035000266A5C07B646E60E0F24B4400096764641
:10036000A643B6460C69009EB44076462643019CDF
:10037000266204686646B4430E79B607B60FBE40DF
:10038000264306604C68E40044D59E08254CB60020
:100390003419A446246E9E07F60E0F27B740BC43BF
:1003A00005273F07B84201D1002710E01E4FB84291
:1003B00001D101270BE01D4FB84201D1022706E011
:1003C0001B4FB84202D1032701E023E00527B740C5
:1003D000274364462766134E803634684F6894433B
:1003E000FF0300D51443346074684F689443BF031F
:1003F00000D5144374600B4C26684F689643FF0287
:1004000000D51643266066684F689643BF0200D544
:10041000164366605B1C0A681446DA4000D05FE74A
:10042000FCBD00000018024000040050000800500D
:10043000000C00500069084000D001207047002ADD
:1004400001D0816170478162704700000148806877
:100450007047000024000020024881680278891853
:10046000816070472400002010B50848002401680E
:10047000821511430160204600F00AF8002801D0DF
:10048000012401E000F028F8204610BD00200240C1
:1004900070B50F4E002431780546002915D07D2017
:1004A000C000FFF725FE01460A480068FFF720FE5E
:1004B00000F056FB002808D1042D06D20022294660
:1004C000401E00F02FF8756000E00124204670BD4A
:1004D000240000203000002008B50B4801680122EC
:1004E0001143016000681040009007484038C26B1B
:1004F00001040A43C263C06B08400090032040021D
:1005000000F024FB08BD000040100240002805DB7D
:10051000C106C90E012088400149086070470000EB
:1005200000E100E010B500F09DFF10BD10B50F4CCC
:10053000216803225202914301432160C11FFF3908
:10054000FA390ED10A480621006848430949FFF7E5
:10055000CFFD401C02E0002805D0401E616949051E
:10056000F9D4002010BD032010BD00000070004031
:100570003000002040420F00F8B50F46060043D07F
:100580004D4D28684007400FB84213D22868C00874
:10059000C00038432860FFF759FF044605E0FFF725
:1005A00055FF011B4548814261D828684007400F2C
:1005B000B842F4D13068424C81070DD5400704D5CC
:1005C000A068072109030843A060A0680F21090261
:1005D0008843B1680843A0603078C00732D07068A3
:1005E00001280AD002280BD000280FD0344940310E
:1005F00003280ED0C969890704E02168890301E056
:1006000021688901002906DB0120F8BD2168490520
:10061000F8E7096AEFE7A168C908C9000143A160CA
:10062000FFF714FF009006E0FFF710FF0099411A52
:10063000224881421BD8A068382108407168C9004F
:100640008842F1D128684007400FB84217D91A48AC
:100650000168C908C90039430160FFF7F7FE054684
:1006600007E0FFF7F3FE411B1448814201D9032044
:10067000F8BD114800684007400FB842F1D130780A
:10068000400706D5A068072109038843F16808439D
:10069000A06000F01DF8A1683C2289091140094AB8
:1006A000515CC906C90EC840074908600748006880
:1006B000FFF7EEFEF8BD00000020024088130000A6
:1006C00000100240C417000830000020280000205D
:1006D00010B5204CA068204A8006400F16D0A068B4
:1006E0008006410F501001290FD0A1688906490FDB
:1006F000022912D0A0688006400F042823D0A068E9
:100700008006400F032821D0002010BD2068012161
:100710008004400F8140104612E0E1688B07E168D9
:100720009B0F4906490F491C032B00D01046FFF7C9
:10073000DFFCE1684904490E4843E168490F491C60
:10074000FFF7D6FC10BD0120C00310BD7D200002C4
:1007500010BD0000001002400024F400F8B50400B1
:100760007ED020783827C007EF4D002846D0A868F3
:10077000E96838408907890F102802D008280BD073
:1007800001E0032908D001206268000482420AD1F6
:1007900029680143296015E0286880032ED5606828
:1007A0000028DDD02AE0052301211B0489049A4298
:1007B0002A6802D10A432A60EAE782432A6028684D
:1007C00088432860606800280CD0FFF73FFE06468B
:1007D00004E0FFF73BFE801B642873D82868800381
:1007E000F7D50BE0FFF732FE064604E0FFF72EFEDA
:1007F000801B6428F1D828688003F7D4207880070C
:1008000069D5A868E96838408A070721920FC902AC
:10081000102802D0002813D001E0022A10D0E0688E
:10082000002846D028688843216908432860286842
:10083000FF21013108432860FFF708FE06462CE03F
:100840002A68520502D5E268002A89D06A687F23A7
:100850001B029A4363691B021A436A60002800E086
:100860008DE00ED1286888432169084328602868F4
:1008700001218004400F8140AC48FFF739FCAC49AE
:100880000860AC480068FFF703FE002877D122E03B
:10089000FFF7DCFD801B02289FD828684005F7D5AC
:1008A00068687F210902884361690902084368601A
:1008B00011E02968FF20013081432960FFF7C6FD60
:1008C000064605E098E0FFF7C1FD801B022884D8AA
:1008D00028684005F7D42078974E00072ED5A868E1
:1008E0008006400F03280AD0A0690028306A16D07D
:1008F000012108433062FFF7A9FD07460BE0306A8B
:1009000080071BD5A06900289FD017E0FFF79EFD48
:10091000C01B022870D8306A8007F7D50EE0400867
:1009200040003062FFF792FD074604E0FFF78EFDBE
:10093000C01B022860D8306A8007F7D420784007AF
:100940006CD5A86800278006400F042818D0E86BF3
:10095000C00008D4E96B012000070143E963E96B9B
:1009600001400127009175480168C90519D4016843
:10097000821511430160FFF769FD00900DE083E0EF
:10098000F06980074AD5A06800287DD046E0FFF7CF
:100990005DFD0099401A02282ED868480068C005FD
:1009A000F5D5A168012910D004200529F16911D0DD
:1009B00049084900F161F1698143F161A0680028AB
:1009C00016D0FFF743FD00900EE0F06901210843C7
:1009D000F061F3E70143F161F7E7FFF737FD0099B5
:1009E000411A574881426FD8F0698007F5D50EE06B
:1009F000FFF72CFD009007E066E0FFF727FD009968
:100A0000411A4F4881425FD8F0698007F5D4002F22
:100A100004D0E86B012109078843E863E0690028F6
:100A20007FD0A9688906490F022953D001263606CE
:100A3000022828680DD0B0432860E868800880004C
:100A4000E860E8683F490840E860FFF7FFFC0446BB
:100A50003CE0B0432860FFF7F9FC074604E0FFF7ED
:100A6000F5FCC01B02282FD828688001F7D4616AE2
:100A7000206AA26A0843E16A120211430843216B0B
:100A80000843616B084300E049E0E9682E4A1140E1
:100A90000843E860286830432860E86801210907B6
:100AA0000843E860FFF7D2FC044604E0FFF7CEFC01
:100AB000001B022808D828688001F7D531E0FFF72D
:100AC000C5FC001B022801D90320F8BD286880015D
:100AD000F5D426E00128F8D0E868226A8107890F5A
:100AE00091421CD17021626A0140914217D17F214D
:100AF000A26A090201401202914210D11F21490449
:100B0000E26A014091420AD107214906226B014065
:100B1000914204D1400F616B4007884201D001200F
:100B2000F8BD0020F8BD0000001002400024F400D1
:100B300030000020280000204010024000700040DB
:100B400088130000FFFFFEEE8C80C11103490A6884
:100B500003235B029A4302430A607047000001408E
:100B6000094910B5401E884201D9012010BD074C2B
:100B700060610321081F00F075FC0020A0610720C0
:100B80002061002010BD0000FFFFFF0000E000E03A
:100B9000F0B5034620331A7F012A2BD001221A77A1
:100BA00002225A7704686268A568134FBC4205D1D7
:100BB00016460F22120596434A6832437026B24306
:100BC0000E68164366600068B84209D00122920799
:100BD000904205D0094A904202D0094A904204D17D
:100BE000802289689543294381600120587700203D
:100BF0001877F0BD0220F0BD002C01400004004039
:100C00000040014010B586B0044614216846FFF745
:100C10008CFA012120688907884214D10B48416B66
:100C2000012211434163406B022110400590D00323
:100C300000900020029003900191049105206946E4
:100C40000007FFF749FB06B010BD0000001002408E
:100C5000F8B5064604462036307F0D4601280CD0F4
:100C60000120082730770C2A44D008DC002A0BD05A
:100C7000042A19D0082A77D12CE00220F8BD102AC6
:100C80004ED0142A70D15BE0206800F069FA206829
:100C900081693943816120688169042291438161BE
:100CA000206881692A6912E0206800F09FFA2068B4
:100CB00081690122D2021143816120688269012188
:100CC00089028A438261206881692A69120211437C
:100CD000816149E0206800F0CBFA2068C16939439E
:100CE000C1612068C16904229143C1612068C16962
:100CF0002A6912E0206800F0FFFA2068C169012229
:100D0000D2021143C1612068C269012189028A436C
:100D1000C2612068C1692A6912021143C16123E0DE
:100D2000206800F023FB2068416D3943416520684D
:100D3000426D04218A4342652068416D2A6911E0B1
:100D4000206800F045FB2068416D0122D20211436A
:100D500041652068416D5210914341652068416DA5
:100D60002A6912021143416500203077F8BD70B541
:100D7000040005D025462035687F002802D006E013
:100D8000012070BD00202877204600F017F80220CF
:100D90006877211D206800F08BF90122403422720F
:100DA000AA77EA7722706270A270E2702271627193
:100DB000A271E2716A77002070BD000008B500687A
:100DC00001218907884207D10448C16B01221143E0
:100DD000C163C06B1040009008BD000000100240CD
:100DE00030B504460222203000290ED0042911D04B
:100DF00020464030082912D00C2915D0102918D0CF
:100E0000C378012B1AD0012030BD837F012BFAD18A
:100E1000827714E0C37F012BF5D1C2770FE003780E
:100E2000012BF0D102700AE04378012BEBD1427024
:100E300005E08378012BE6D1827000E0C2700122C8
:100E4000206800F07FF9154B20681549984207D0BB
:100E5000884205D0134A904202D0134A904204D1EE
:100E6000426C0125ED032A43426420680122984226
:100E700007D09307984204D00C4B984201D0884287
:100E800007D181680A4B1940062905D0DB1F99421A
:100E900002D0016811430160002030BD002C0140E8
:100EA000004001400044014000480140000400406F
:100EB00007000100FEE70000F0B587B01421684686
:100EC000FFF733F93648426B04210A434263426B11
:100ED0000A400592416B012529434163416B29403A
:100EE0000591426B02210A434263426B0A4005921C
:100EF000426B08210A434263406B052708403F07C5
:100F000005900022FF213846FFF799FA00221F21A1
:100F10002448FFF794FA00220F212348FFF78FFAA5
:100F2000E802002400900194694602941F48FFF7EC
:100F3000D3F9172000021E4E0090694601960295D3
:100F40001A48FFF7C9F968030090694601960294B0
:100F50001648FFF7C1F9FF200090029469460195F9
:100F600003943846FFF7B8F91F20009002946946B1
:100F7000019503940B48FFF7AFF90F2000900294FE
:100F80006946019503940848FFF7A6F90022114627
:100F90000720FFF7C7FA0720FFF7B8FA07B0F0BD40
:100FA0000010024000040050000C005000080050E7
:100FB0000000211010B58AB00024079408941C2169
:100FC00068460994FFF7B1F80121174889070160C5
:100FD0007F2184604160046114498461C160FFF72E
:100FE000C6FE002801D072B6FEE7079407A90E4896
:100FF0000994FFF7CDFD002801D072B6FEE760200E
:1010000000900B480190029400226946049406481F
:10101000FFF71EFE002801D072B6FEE70248FFF778
:10102000F1FD0AB010BD00003400002068890900FD
:10103000B4C40400FEE77047704710B5FFF70CFA20
:1010400010BD10B592B038216846FFF76EF8002445
:1010500001200E940F94109440021194FFF766FA49
:1010600002200090C0010390402005900494079452
:101070006846FFF773FB002801D072B6FEE7072031
:101080000E900120C00210900F94002111940EA820
:10109000FFF772FA002801D072B6FEE712B010BD59
:1010A00001200249C00688607047000000ED00E0A2
:1010B000F0B502681D4B0124A4071D4D984203D0D2
:1010C000A04201D0A84203D17026B2434E683243F9
:1010D000184E194F98420DD0A0420BD0A84209D00B
:1010E000164CA04206D0B04204D0B84202D0144CF4
:1010F000A04204D103242402A243CC6822438024CA
:10110000A2434C69224302608A68C2620A68826212
:10111000984206D0B04204D0B84202D0084A904269
:1011200001D10969016301214161F0BD002C014039
:101130000004004000400140004401400020004005
:101140000048014010B5CB06DB0E0121046A99402E
:101150008C430462016A9A401143016210BD000091
:10116000F0B5026A520852000262056A4368826959
:10117000194C1B4E224092080C6892001443022224
:1011800095438A682A43154DA84207D0B04205D03E
:10119000144FB84202D0144FB84206D10827BA43C0
:1011A000CF681743042297433A46A84207D0B0427B
:1011B00005D00C4DA84202D00B4DA84206D1032504
:1011C0002D02AB434D691D438B692B434360846102
:1011D000496841630262F0BD8FFFFEFF002C0140B1
:1011E00000400140004401400048014070B5026ADF
:1011F00010239A430262046A43688269174D2A40A9
:1012000003252D02AA430D682D0215432022944385
:101210008A6812012243124CA04207D18024A243C3
:10122000CC68402624012243B24308E00D4CA04282
:1012300005D00D4CA04202D00C4CA04208D1032492
:10124000A402A3434C69A4001C438B699B00234365
:101250004360856149688163026270BDFF8FFFFE54
:10126000002C014000400140004401400048014082
:1012700070B5026AFF2301339A430262046A43682D
:10128000C269184D2A4092080D6892001543012248
:10129000520294438A6812022243134CA04208D19E
:1012A0001446CA68C614B443120222430415A2436A
:1012B00008E00E4CA04205D00D4CA04202D00D4CCF
:1012C000A04208D103242403A3434C6924011C43F6
:1012D0008B691B0123434360C5614968C163026296
:1012E00070BD00008FFFFEFF002C01400040014058
:1012F000004401400048014030B5026A01231B034D
:101300009A430262046A4368C269134D2A40032566
:101310002D02AA430D682D02154301225203944366
:101320008A68120322430D4CA04208D00C4CA04204
:1013300005D00C4CA04202D00B4CA04205D1012498
:10134000A403A3434C69A40123434360C5614968D6
:101350000164026230BD0000FF8FFFFE002C0140DF
:1013600000400140004401400048014070B5026A5D
:1013700001263604B2430262046A4268436D0F4D8F
:101380002B400D681D4373009C430B891B042343B2
:101390000B4CA04208D00B4CA04205D00A4CA042F6
:1013A00002D00A4CA04203D14C69B243240222432A
:1013B0004260456549688165036270BD8FFFFEFF2D
:1013C000002C014000400140004401400048014021
:1013D00030B5026A01231B059A430262046A42681F
:1013E000436D114D2B400D682D021D4301235B05FC
:1013F0009C430B891B0523430C4CA04208D00C4C8A
:10140000A04205D00B4CA04202D00B4CA04205D10B
:101410000124A404A2434C69A4022243426045650E
:101420004968C165036230BDFF8FFFFE002C01409B
:101430000040014000440140004801400FB410B595
:1014400004A9074B02AA039800F03EF8044602A93B
:10145000002000F0E1F8204610BC08BC04B018479A
:10146000191600088307FF22DB0E9A408907090E30
:101470009940002808DB830809489B001B1818685E
:1014800090430843186070470007000F083883082E
:1014900004489B001B18D86990430843D8617047E3
:1014A00000E400E000ED00E002E008C8121F08C1FF
:1014B000002AFAD170477047002001E001C1121FD5
:1014C000002AFBD170470000FFB58DB0044600250F
:1014D00006E025280AD0109A0F999047641C6D1CCD
:1014E00020780028F5D1284611B0F0BD0027012151
:1014F000484A009700E00743641C23780846203BD5
:1015000098401042F7D120782E2817D104200743A5
:101510006078641C2A280CD10E98641C02C80091C3
:101520000E900BE000990A22514330394018641C98
:1015300000902078014630390929F3D92078002815
:10154000D1D0642808D0692806D075281ED0109AFA
:101550000F9990476D1C5BE00A200E99019001C91C
:101560000E91002802DA40422D2102E0390504D50F
:101570002B216A461172012103E0F90704D02021D2
:10158000F7E70BAE0B910DE00021FAE70A200E9968
:10159000019001C90E91F7E70199FEF7A9FD3031DD
:1015A000761E31700028F7D103A8801B20300190EF
:1015B000780701D5009801E0012000900199884248
:1015C00001DD401A00E000200027009006E002A89C
:1015D000109AC05D0F9990476D1C7F1C0B98874235
:1015E000F5DB04E0109A30200F9990476D1C0099AC
:1015F000481E00900029F5DC05E03078109A761C32
:101600000F9990476D1C0199481E01900029F4DC48
:10161000641C65E7092801000A68531C0B60107000
:10162000704700200221491C6329FCDB401C632811
:10163000F8DB704700B5342000F02AF8302000F0C5
:1016400027F80C2000F024F8012000F021F800BD5C
:1016500000B500290AD001290AD002290AD0983001
:10166000C0B28021084300F013F800BD8030F7E7D6
:101670009030F5E78830F3E710B51446FFF7E8FF40
:1016800002E000F017F8641C20780028F9D110BDA2
:1016900010B50346FFF7C5FF054A1824546105201D
:1016A000000743611C205061FFF7BBFF546110BD70
:1016B0000004005010B50346FFF7B3FF054A192494
:1016C00054610520000743611D205061FFF7A9FF09
:1016D000546110BD00040050FEF7C6FEFFF7B1FCD8
:1016E000FFF7EAFBFFF766FC00212448FFF778FBD1
:1016F000FFF7A0FF002122A20846FFF7BDFF23A2AB
:1017000000210620FFF7B8FF22A201210020FFF7E9
:10171000B3FF23A201210620FFF7AEFF21A2002183
:101720000820FFF7A9FF1EA200210E20FFF7A4FF4B
:101730001FA201210820FFF79FFF19A201210E20FF
:10174000FFF79AFF1D4D1E4F2E46A86800280BD0AC
:1017500000240320001B305C78616868FEF7AAFD56
:10176000641C042CF5DBF0E70024305D78616868C8
:10177000FEF7A0FD641C042CF7DBE6E73400002034
:10178000446972656374696F6E0000005169616E2F
:101790000000000044697374616E63655F5100006E
:1017A0003000000044697374616E63655F48000037
:1017B00053706565645F31307300000000000020E5
:1017C000000C0050000000000000000000000000BD
:1017D0000000000000000000000000000000000009
:1017E00000000000010000000200000003000000F3
:1017F00004000000060000000700000008000000D0
:101800000900000024180008000000203400000037
:10181000A814000858180008340000204C040000E8
:10182000B8140008080402010400000000000000D1
:1018300000000000000000000000000000000000A8
:101840000000000000000000010000000400000093
:08185000000000000024F40078
:04000005080000BD32
:00000001FF
