:020000040800F2
:1000000040040020D5000008A90F0008A50E000834
:1000100000000000000000000000000000000000E0
:100020000000000000000000000000005110000867
:100030000000000000000000AB0F00085310000893
:10004000E7000008E700000841100008E70000088A
:10005000E7000008E7000008E70000086501000865
:10006000E7000008E7000008E7000008E7000008D4
:10007000E7000008E7000008E7000008E7000008C4
:10008000E7000008E7000008E7000008E7000008B4
:10009000E7000008E7000008E7000008E7000008A4
:1000A000E7000008E7000008E7000008E700000894
:1000B000E7000008E7000008E7000008044885465C
:1000C00000F03EF80048004701120008C046C04654
:1000D000400400200448804704480047FEE7FEE74C
:1000E000FEE7FEE7FEE7FEE7ED100008BD000008B2
:1000F00030B50B46014600202022012409E00D46C0
:10010000D5409D4205D31D469540491B2546954047
:1001100040191546521E002DF1DC30BDD2B201E06F
:100120000270401C491EFBD270470022F6E710B552
:1001300013460A4604461946FFF7F0FF204610BD55
:10014000064C0125064E05E0E36807CC2B430C3C2A
:1001500098471034B442F7D3FFF7B4FFCC1200082D
:10016000EC12000810B50120400300F015F810BD96
:1001700070B5044600F0DAF80546601C02D0044869
:100180000078241800F0D2F8401BA042FAD370BDCA
:10019000000000207047000070B5084D0446E86874
:1001A000204203D0EC60204600F00AF82869204283
:1001B00003D02C612046FFF7EDFF70BD0018024010
:1001C00070470000FCB5002301259AE022462C462A
:1001D0009C4022406FD04E68012E05D0022E03D0E5
:1001E000112E01D0122E16D186680327B4465E0068
:1001F000B646B7406646BE43B446CF687646B7407B
:100200006646374387604668A6430C79E406E40FE8
:100210009C4034434460C6685F000324BC40A4464D
:10022000A6438C68BC403443C4604C68022C01D0A7
:10023000122C14D1DC08A40024180194266A5C074F
:10024000B646E60E0F24B44000967646A643B64660
:100250000C69009EB44076462643019C26620468E1
:100260006646B4430E79B607B60FBE402643066015
:100270004C68E40044D59E08254CB6003419A446C9
:10028000246E9E07F60E0F27B740BC4305273F0795
:10029000B84201D1002710E01E4FB84201D101271A
:1002A0000BE01D4FB84201D1022706E01B4FB842B8
:1002B00002D1032701E023E00527B7402743644626
:1002C0002766134E803634684F689443FF0300D589
:1002D0001443346074684F689443BF0300D51443DB
:1002E00074600B4C26684F689643FF0200D5164396
:1002F000266066684F689643BF0200D51643666065
:100300005B1C0A681446DA4000D05FE7FCBD0000C1
:10031000001802400004005000080050000C00507B
:10032000002A01D08161704781627047014880686E
:100330007047000000000020024881680278891898
:10034000816070470000002010B508480024016853
:10035000821511430160204600F00AF8002801D000
:10036000012401E000F028F8204610BD00200240E2
:1003700070B50F4E002431780546002915D07D2038
:10038000C000FFF7B5FE01460A480068FFF7B0FE5F
:1003900000F070FD002808D1042D06D20022294665
:1003A000401E00F02FF8756000E00124204670BD6B
:1003B000000000200C00002008B50B480168012255
:1003C0001143016000681040009007484038C26B3C
:1003D00001040A43C263C06B08400090032040023E
:1003E00000F03EFD08BD000040100240002805DB83
:1003F000C106C90E0120884001490860704700000D
:1004000000E100E010B500F079FE10BD10B50F4C12
:10041000216803225202914301432160C11FFF3929
:10042000FA390ED10A480621006848430949FFF706
:100430005FFE401C02E0002805D0401E61694905AE
:10044000F9D4002010BD032010BD00000070004052
:100450000C00002040420F00024801688215114341
:1004600001607047007000400D4A0028106803D0FA
:10047000C008C000401C01E0C008C000106009486E
:100480000369042213430361012906D040BF20BF42
:1004900020BF016991430161704730BFF9E7000057
:1004A0000070004000ED00E0FEB504460068002743
:1004B000704D714E800355D500200090F06BC00048
:1004C00007D4F16BA8050143F163F16B01400120F2
:1004D00000906A480168821511430160FFF726FF0A
:1004E000019005E0FFF722FF0199401A022825D864
:1004F00062480068C005F5D5E86903210902084093
:100500000FD0216B81420CD0E86903210902EA690E
:100510008843012109040A43EA61EA698A43EA61DE
:10052000E861C0070FD0FFF701FF019008E0FFF777
:10053000FDFE0199411A5248814201D9032709E081
:10054000E8698007F3D5E869032109028843216B34
:100550000843E8610098002804D0F16B01200007EF
:100560008143F1632078C00705D06869616880081D
:100570008000084368612078800705D568690C21F0
:100580008843A168084368612078C00606D5686979
:10059000032189028843E168084368612088800557
:1005A00006D56869032189048843A1690843686105
:1005B0002088400506D56869032109058843E1695B
:1005C000084368612078800606D56869032109031D
:1005D0008843216908436861208840040ED5686912
:1005E000216A80008008084368610121206A890728
:1005F000884203D1F06889130843F0602068000343
:1006000005D5686940218843616A084368612068AC
:1006100081021C480BD569698210A36A9143194372
:100620006961A16A914202D1F1680143F1602168D8
:1006300049020AD56969E26A814311436961E16A45
:10064000814202D1F1680143F160208800050FD595
:10065000686903218903884361690843686101214E
:1006600060698903884203D1F06889000843F0601B
:100670003846FEBD401002400010024000700040AD
:100680008813000000000001F8B50F46060043D0B3
:100690004D4D28684007400FB84213D22868C00863
:1006A000C00038432860FFF741FE044605E0FFF72D
:1006B0003DFE011B4548814261D828684007400F34
:1006C000B842F4D13068424C81070DD5400704D5BB
:1006D000A068072109030843A060A0680F21090250
:1006E0008843B1680843A0603078C00732D0706892
:1006F00001280AD002280BD000280FD034494031FD
:1007000003280ED0C969890704E02168890301E044
:1007100021688901002906DB0120F8BD216849050F
:10072000F8E7096AEFE7A168C908C9000143A160B9
:10073000FFF7FCFD009006E0FFF7F8FD0099411A75
:10074000224881421BD8A068382108407168C9003E
:100750008842F1D128684007400FB84217D91A489B
:100760000168C908C90039430160FFF7DFFD05468C
:1007700007E0FFF7DBFD411B1448814201D903204C
:10078000F8BD114800684007400FB842F1D13078F9
:10079000400706D5A068072109038843F16808438C
:1007A000A06000F01DF8A1683C2289091140094AA7
:1007B000515CC906C90EC84007490860074800686F
:1007C000FFF7D6FDF8BD00000020024088130000AE
:1007D000001002408C1200080C00002004000020D1
:1007E00010B5204CA068204A8006400F16D0A068A3
:1007F0008006410F501001290FD0A1688906490FCA
:10080000022912D0A0688006400F042823D0A068D7
:100810008006400F032821D0002010BD2068012150
:100820008004400F8140104612E0E1688B07E168C8
:100830009B0F4906490F491C032B00D01046FFF7B8
:1008400057FCE1684904490E4843E168490F491CD7
:10085000FFF74EFC10BD0120C00310BD7D2000023B
:1008600010BD0000001002400024F400F8B50400A0
:100870007ED020783827C007EF4D002846D0A868E2
:10088000E96838408907890F102802D008280BD062
:1008900001E0032908D001206268000482420AD1E5
:1008A00029680143296015E0286880032ED5606817
:1008B0000028DDD02AE0052301211B0489049A4287
:1008C0002A6802D10A432A60EAE782432A6028683C
:1008D00088432860606800280CD0FFF727FD064693
:1008E00004E0FFF723FD801B642873D82868800389
:1008F000F7D50BE0FFF71AFD064604E0FFF716FDFB
:10090000801B6428F1D828688003F7D420788007FA
:1009100069D5A868E96838408A070721920FC9029B
:10092000102802D0002813D001E0022A10D0E0687D
:10093000002846D028688843216908432860286831
:10094000FF21013108432860FFF7F0FC06462CE048
:100950002A68520502D5E268002A89D06A687F2396
:100960001B029A4363691B021A436A60002800E075
:100970008DE00ED1286888432169084328602868E3
:1009800001218004400F8140AC48FFF7B1FBAC4926
:100990000860AC480068FFF7EBFC002877D122E044
:1009A000FFF7C4FC801B02289FD828684005F7D5B4
:1009B00068687F2109028843616909020843686009
:1009C00011E02968FF20013081432960FFF7AEFC68
:1009D000064605E098E0FFF7A9FC801B022884D8B2
:1009E00028684005F7D42078974E00072ED5A868D0
:1009F0008006400F03280AD0A0690028306A16D06C
:100A0000012108433062FFF791FC07460BE0306A92
:100A100080071BD5A06900289FD017E0FFF786FC50
:100A2000C01B022870D8306A8007F7D50EE0400856
:100A300040003062FFF77AFC074604E0FFF776FCDF
:100A4000C01B022860D8306A8007F7D4207840079E
:100A50006CD5A86800278006400F042818D0E86BE2
:100A6000C00008D4E96B012000070143E963E96B8A
:100A700001400127009175480168C90519D4016832
:100A8000821511430160FFF751FC00900DE083E0F7
:100A9000F06980074AD5A06800287DD046E0FFF7BE
:100AA00045FC0099401A02282ED868480068C00505
:100AB000F5D5A168012910D004200529F16911D0CC
:100AC00049084900F161F1698143F161A06800289A
:100AD00016D0FFF72BFC00900EE0F06901210843CF
:100AE000F061F3E70143F161F7E7FFF71FFC0099BD
:100AF000411A574881426FD8F0698007F5D50EE05A
:100B0000FFF714FC009007E066E0FFF70FFC009988
:100B1000411A4F4881425FD8F0698007F5D4002F11
:100B200004D0E86B012109078843E863E0690028E5
:100B30007FD0A9688906490F022953D001263606BD
:100B4000022828680DD0B0432860E868800880003B
:100B5000E860E8683F490840E860FFF7E7FB0446C3
:100B60003CE0B0432860FFF7E1FB074604E0FFF7F5
:100B7000DDFBC01B02282FD828688001F7D4616AEA
:100B8000206AA26A0843E16A120211430843216BFA
:100B90000843616B084300E049E0E9682E4A1140D0
:100BA0000843E860286830432860E86801210907A5
:100BB0000843E860FFF7BAFB044604E0FFF7B6FB22
:100BC000001B022808D828688001F7D531E0FFF71C
:100BD000ADFB001B022801D90320F8BD2868800165
:100BE000F5D426E00128F8D0E868226A8107890F49
:100BF00091421CD17021626A0140914217D17F213C
:100C0000A26A090201401202914210D11F21490437
:100C1000E26A014091420AD107214906226B014054
:100C2000914204D1400F616B4007884201D00120FE
:100C3000F8BD0020F8BD0000001002400024F400C0
:100C40000C00002004000020401002400070004012
:100C500088130000FFFFFEEE8C80C111F7B505463A
:100C600004462035287A01281CD001202872022051
:100C700068722168CA20486221685320486220684F
:100C800081690127BF02B94381612068C16D0422D7
:100C90001143C1652048C068400619D4FFF746FBE0
:100CA000064611E00220FEBDFFF740FB811B7D20C0
:100CB000C000814208D92168FF2048620320687281
:100CC000002028720320FEBD2068C0684007EBD5D5
:100CD00021680198486120688169C908C90081615B
:100CE00020688169029A114381610C4801680122E0
:100CF000D20411430160206881695211114381615E
:100D000020688169394381612168FF2048620120A0
:100D1000687200202872FEBD002800408018024042
:100D2000704710B504460068016D490706D5C16DCE
:100D300004221143C1652046FFF7F2FF0120203451
:100D4000607210BD70B504460120002C49D02546C4
:100D50002035687A002806D128721120C002606010
:100D6000204600F041F8022068722168CA204862DB
:100D7000216853204862204600F018F9002829D144
:100D800020688169174A1140816121688869A268D9
:100D9000E369104362691A4310438861216820693E
:100DA000086120680169A28912041143016120468B
:100DB00000F01EF900280DD121688A69D200D208FE
:100DC0008A6122689169636AA6691943236A334379
:100DD000194391612268FF215162002801D101214C
:100DE000697270BDBFFF8FFB08B500680D4988426E
:100DF00016D10D48C1690122D2031143C1610A48CD
:100E00004038C26B01150A43C263C06B0022084020
:100E1000009011460220FFF7F5FA0220FFF7E6FAEC
:100E200008BD0000002800404010024070B5044694
:100E30000068C168A0229143C160FFF777FA7D2660
:100E40000546F60006E0FFF771FA401BB04201D9F3
:100E5000032070BD2068C0688006F4D5002070BDF6
:100E600003490A6803235B029A4302430A607047FE
:100E700000000140094910B5401E884201D90120F7
:100E800010BD074C60610321081F00F037F90020F6
:100E9000A06107202061002010BD0000FFFFFF00BF
:100EA00000E000E0FEE70000F0B587B014216846DE
:100EB000FFF73BF92448426B04210A434263426B2B
:100EC0000A400592416B012529434163416B29404A
:100ED0000591426B02210A434263406B052608409C
:100EE000360705900022FF213046FFF719FA174F09
:100EF000002207213846FFF713FA680300901448D0
:100F000000240190694602941248FFF75BF9FF2024
:100F1000009002946946019503943046FFF752F918
:100F20000720009002946946019503943846FFF724
:100F300049F9002211460720FFF764FA0720FFF75E
:100F400055FA07B0F0BD0000001002400004005048
:100F5000000021100008005010B511480F49016031
:100F60007F22C260002181604161FF2281610261B4
:100F70000122C161920702624162FFF7E3FE00288D
:100F800001D072B6FEE7002206490548FFF766FE6B
:100F9000002801D072B6FEE710BD00000028004016
:100FA0001000002006280000FEE77047F8B5044650
:100FB00000680025C168490618D4C1688022114321
:100FC000C160FFF7B3F927460646203708E0FFF770
:100FD000ADF9811B7D20C000814201D903257D72BE
:100FE0002068C068400601D4032DF0D12846F8BD22
:100FF000F8B5124C0026E16880229143E160A169B6
:10100000054689062035002907DBFFF70FFF00287A
:1010100011D00320687206460DE0A1692027B9436C
:10102000A161FFF703FF002802D003206872064683
:10103000A0693843A0613046F8BD00000028004098
:1010400010B50248FFF76DFE10BD00001000002033
:10105000704710B5FFF770F910BD000030B59FB0B4
:1010600038216846FFF761F800241B941C941D94F6
:1010700034210EA81E94FFF758F801204002FFF714
:10108000C5F9FFF7E9F91848C16918229143C16110
:101090000620009001200502029040200590039553
:1010A000049407946846FFF7E1FB002801D072B66C
:1010B000FEE707201B901C941D9400211E941BA882
:1010C000FFF7E2FA002801D072B6FEE701204004E3
:1010D0000E901A950EA8FFF7E7F9002801D072B616
:1010E000FEE71FB030BD0000401002400120024961
:1010F000C00688607047000000ED00E08307FF2213
:10110000DB0E9A408907090E9940002808DB830806
:1011100009489B001B1818689043084318607047E3
:101120000007000F0838830804489B001B18D86983
:1011300090430843D861704700E400E000ED00E010
:1011400002E008C8121F08C1002AFAD17047704790
:10115000002001E001C1121F002AFBD170470020CE
:101160000221491C6329FCDB401C6328F8DB704723
:1011700000B5382000F020F80C2000F01DF8062003
:1011800000F01AF8012000F017F800BD00B50029A2
:1011900001D04030C0B28021084300F00DF800BDFE
:1011A00010B51446FFF7F2FF02E000F017F8641CD8
:1011B00020780028F9D110BD10B50346FFF7CFFF06
:1011C000054A002454610520000743610420506152
:1011D000FFF7C5FF546110BD0004005010B5034671
:1011E000FFF7BDFF054A0124546105200007436154
:1011F00005205061FFF7B3FF546110BD000400509B
:10120000FFF7A2F8FFF72AFFFFF74EFEFFF7A4FE55
:10121000FFF7AEFFFFF7A3FF7D2424010125AD03F7
:1012200000210EA20846FFF7BBFF0FA201210020FC
:10123000FFF7B6FF2046FEF79BFF002107A20846F6
:10124000FFF7AEFF0DA201210020FFF7A9FF01214A
:101250002846FFF709F9FFF701FFE1E757656C63DF
:101260006F6D6520546F000052756E204D6F646580
:101270002020202020202020200000004C6F7720FC
:10128000506F776572204D6F6465000000000000AC
:10129000000000000000000000000000000000004E
:1012A000000000000000000000000000010000003D
:1012B000020000000300000004000000060000001F
:1012C000070000000800000009000000EC12000800
:1012D000000000201000000040110008FC1200086F
:1012E0001000002030040000501100080100000030
:0C12F00004000000000000000024F400D6
:04000005080000BD32
:00000001FF
