:020000040800F2
:1000000058040020D50000089D120008AD1100081A
:1000100000000000000000000000000000000000E0
:10002000000000000000000000000000E1000008E7
:100030000000000000000000E30000086D1300084D
:10004000E7000008E70000085D130008E70000086B
:10005000E7000008E7000008E7000008E7000008E4
:10006000E7000008E7000008E7000008E7000008D4
:10007000E7000008E7000008E7000008E7000008C4
:10008000E7000008E7000008E7000008E7000008B4
:10009000E7000008E7000008E7000008E7000008A4
:1000A000E7000008E7000008E7000008E700000894
:1000B000E7000008E7000008E7000008044885465C
:1000C00000F03EF800480047D5170008C046C0467B
:1000D000580400200448804704480047FEE7FEE734
:1000E000FEE7FEE7FEE7FEE7DD130008BD000008BF
:1000F00030B50B46014600202022012409E00D46C0
:10010000D5409D4205D31D469540491B2546954047
:1001100040191546521E002DF1DC30BDD2B201E06F
:100120000270401C491EFBD270470022F6E710B552
:1001300013460A4604461946FFF7F0FF204610BD55
:10014000064C0125064E05E0E36807CC2B430C3C2A
:1001500098471034B442F7D3FFF7B4FFCC18000827
:10016000EC18000872B6FEE7FCB5002301259AE002
:1001700022462C469C4022406FD04E68012E05D06E
:10018000022E03D0112E01D0122E16D1866803271D
:10019000B4465E00B646B7406646BE43B446CF6836
:1001A0007646B7406646374387604668A6430C7973
:1001B000E406E40F9C4034434460C6685F000324B7
:1001C000BC40A446A6438C68BC403443C4604C6821
:1001D000022C01D0122C14D1DC08A40024180194A4
:1001E000266A5C07B646E60E0F24B44000967646B3
:1001F000A643B6460C69009EB44076462643019C51
:10020000266204686646B4430E79B607B60FBE4050
:10021000264306604C68E40044D59E08254CB60091
:100220003419A446246E9E07F60E0F27B740BC4330
:1002300005273F07B84201D1002710E01E4FB84202
:1002400001D101270BE01D4FB84201D1022706E082
:100250001B4FB84202D1032701E023E00527B74036
:10026000274364462766134E803634684F689443AC
:10027000FF0300D51443346074684F689443BF0390
:1002800000D5144374600B4C26684F689643FF02F8
:1002900000D51643266066684F689643BF0200D5B6
:1002A000164366605B1C0A681446DA4000D05FE7BC
:1002B000FCBD00000018024000040050000800507F
:1002C000000C0050002A01D08161704781627047A4
:1002D00001488068704700001C00002002488168C7
:1002E00002788918816070471C00002010B508480A
:1002F00000240168821511430160204600F00AF8CD
:10030000002801D0012401E000F028F8204610BDAB
:100310000020024070B50F4E0024317805460029B8
:1003200015D07D20C000FFF7E3FE01460A480068B3
:10033000FFF7DEFE00F022FF002808D1042D06D2D0
:1003400000222946401E00F02FF8756000E00124CD
:10035000204670BD1C0000202800002008B50B4876
:1003600001680122114301600068104000900748B5
:100370004038C26B01040A43C263C06B084000905E
:100380000320400200F0F0FE08BD000040100240D3
:10039000002805DBC106C90E01208840014908601C
:1003A0007047000000E100E010B501F033F810BD27
:1003B00002480168821511430160704700700040D7
:1003C00010B51B4901601B4901224B6992059B072F
:1003D0009B0F43604B690C24234083604B692402CC
:1003E0002340C3604B69A400234003614B69A4010F
:1003F000234083614B69A4002340C3614B691340D0
:1004000083624A6901231B061A40C262CA69231328
:100410001A4002634A69920F920702624A694023B6
:100420001A4042624969A2111140416110BD0000A9
:10043000334E6A0040100240FEB5044600680027B3
:10044000704D714E800355D500200090F06BC000B8
:1004500007D4F16BA8050143F163F16B0140012062
:1004600000906A480168821511430160FFF730FF70
:10047000019005E0FFF72CFF0199401A022825D8CA
:1004800062480068C005F5D5E86903210902084003
:100490000FD0216B81420CD0E86903210902EA697F
:1004A0008843012109040A43EA61EA698A43EA614F
:1004B000E861C0070FD0FFF70BFF019008E0FFF7DE
:1004C00007FF0199411A5248814201D9032709E0E7
:1004D000E8698007F3D5E869032109028843216BA5
:1004E0000843E8610098002804D0F16B0120000760
:1004F0008143F1632078C00705D06869616880088E
:100500008000084368612078800705D568690C2160
:100510008843A168084368612078C00606D56869E9
:10052000032189028843E1680843686120888005C7
:1005300006D56869032189048843A1690843686175
:100540002088400506D56869032109058843E169CB
:10055000084368612078800606D56869032109038D
:100560008843216908436861208840040ED5686982
:10057000216A80008008084368610121206A890798
:10058000884203D1F06889130843F06020680003B3
:1005900005D5686940218843616A0843686120681D
:1005A00081021C480BD569698210A36A91431943E3
:1005B0006961A16A914202D1F1680143F160216849
:1005C00049020AD56969E26A814311436961E16AB6
:1005D000814202D1F1680143F160208800050FD506
:1005E00068690321890388436169084368610121BF
:1005F00060698903884203D1F06889000843F0608C
:100600003846FEBD4010024000100240007000401D
:100610008813000000000001F8B50F46060043D023
:100620004D4D28684007400FB84213D22868C008D3
:10063000C00038432860FFF74BFE044605E0FFF793
:1006400047FE011B4548814261D828684007400F9A
:10065000B842F4D13068424C81070DD5400704D52B
:10066000A068072109030843A060A0680F210902C0
:100670008843B1680843A0603078C00732D0706802
:1006800001280AD002280BD000280FD0344940316D
:1006900003280ED0C969890704E02168890301E0B5
:1006A00021688901002906DB0120F8BD2168490580
:1006B000F8E7096AEFE7A168C908C9000143A1602A
:1006C000FFF706FE009006E0FFF702FE0099411AD0
:1006D000224881421BD8A068382108407168C900AF
:1006E0008842F1D128684007400FB84217D91A480C
:1006F0000168C908C90039430160FFF7E9FD0546F3
:1007000007E0FFF7E5FD411B1448814201D90320B2
:10071000F8BD114800684007400FB842F1D1307869
:10072000400706D5A068072109038843F1680843FC
:10073000A06000F01DF8A1683C2289091140094A17
:10074000515CC906C90EC8400749086007480068DF
:10075000FFF7E0FDF8BD0000002002408813000014
:10076000001002408C180008280000202000002003
:1007700010B5204CA068204A8006400F16D0A06813
:100780008006410F501001290FD0A1688906490F3A
:10079000022912D0A0688006400F042823D0A06848
:1007A0008006400F032821D0002010BD20680121C1
:1007B0008004400F8140104612E0E1688B07E16839
:1007C0009B0F4906490F491C032B00D01046FFF729
:1007D0008FFCE1684904490E4843E168490F491C10
:1007E000FFF786FC10BD0120C00310BD7D20000274
:1007F00010BD0000001002400024F400F8B5040011
:100800007ED020783827C007EF4D002846D0A86852
:10081000E96838408907890F102802D008280BD0D2
:1008200001E0032908D001206268000482420AD155
:1008300029680143296015E0286880032ED5606887
:100840000028DDD02AE0052301211B0489049A42F7
:100850002A6802D10A432A60EAE782432A602868AC
:1008600088432860606800280CD0FFF731FD0646F9
:1008700004E0FFF72DFD801B642873D828688003EF
:10088000F7D50BE0FFF724FD064604E0FFF720FD57
:10089000801B6428F1D828688003F7D4207880076B
:1008A00069D5A868E96838408A070721920FC9020C
:1008B000102802D0002813D001E0022A10D0E068EE
:1008C000002846D0286888432169084328602868A2
:1008D000FF21013108432860FFF7FAFC06462CE0AF
:1008E0002A68520502D5E268002A89D06A687F2307
:1008F0001B029A4363691B021A436A60002800E0E6
:100900008DE00ED128688843216908432860286853
:1009100001218004400F8140AC48FFF7E9FBAC495E
:100920000860AC480068FFF7F5FC002877D122E0AA
:10093000FFF7CEFC801B02289FD828684005F7D51A
:1009400068687F2109028843616909020843686079
:1009500011E02968FF20013081432960FFF7B8FCCE
:10096000064605E098E0FFF7B3FC801B022884D818
:1009700028684005F7D42078974E00072ED5A86840
:100980008006400F03280AD0A0690028306A16D0DC
:10099000012108433062FFF79BFC07460BE0306AF9
:1009A00080071BD5A06900289FD017E0FFF790FCB7
:1009B000C01B022870D8306A8007F7D50EE04008C7
:1009C00040003062FFF784FC074604E0FFF780FC3C
:1009D000C01B022860D8306A8007F7D4207840070F
:1009E0006CD5A86800278006400F042818D0E86B53
:1009F000C00008D4E96B012000070143E963E96BFB
:100A000001400127009175480168C90519D40168A2
:100A1000821511430160FFF75BFC00900DE083E05D
:100A2000F06980074AD5A06800287DD046E0FFF72E
:100A30004FFC0099401A02282ED868480068C0056B
:100A4000F5D5A168012910D004200529F16911D03C
:100A500049084900F161F1698143F161A06800280A
:100A600016D0FFF735FC00900EE0F0690121084335
:100A7000F061F3E70143F161F7E7FFF729FC009923
:100A8000411A574881426FD8F0698007F5D50EE0CA
:100A9000FFF71EFC009007E066E0FFF719FC0099E5
:100AA000411A4F4881425FD8F0698007F5D4002F82
:100AB00004D0E86B012109078843E863E069002856
:100AC0007FD0A9688906490F022953D0012636062E
:100AD000022828680DD0B0432860E86880088000AC
:100AE000E860E8683F490840E860FFF7F1FB04462A
:100AF0003CE0B0432860FFF7EBFB074604E0FFF75C
:100B0000E7FBC01B02282FD828688001F7D4616A50
:100B1000206AA26A0843E16A120211430843216B6A
:100B20000843616B084300E049E0E9682E4A114040
:100B30000843E860286830432860E8680121090715
:100B40000843E860FFF7C4FB044604E0FFF7C0FB7E
:100B5000001B022808D828688001F7D531E0FFF78C
:100B6000B7FB001B022801D90320F8BD28688001CB
:100B7000F5D426E00128F8D0E868226A8107890FB9
:100B800091421CD17021626A0140914217D17F21AC
:100B9000A26A090201401202914210D11F214904A8
:100BA000E26A014091420AD107214906226B0140C5
:100BB000914204D1400F616B4007884201D001206F
:100BC000F8BD0020F8BD0000001002400024F40031
:100BD000280000202000002040100240007000404B
:100BE00088130000FFFFFEEE8C80C11110B50520B8
:100BF000002220210007FFF765FB10BD10B505207E
:100C0000012220210007FFF75DFB10BD70B50446EF
:100C1000006881690125C904002908DA016DC90746
:100C200005D0C16D2943C1652046FFF7E7FF206865
:100C30008169890409D5016D890706D5C16D022234
:100C40001143C1652046FFF7D1FF2034657270BDA6
:100C500010B500680B464068C021C943014000023E
:100C6000000ECC04D870E40E5C708C06A40E09044F
:100C7000490F9C701970002A0AD100F010FBD8703F
:100C8000587800F00CFB5870987800F008FB9870CA
:100C9000002010BD10B50B460168896859600168D5
:100CA00009694904490C9960006801680E480140CF
:100CB0008802800E4C041870640E5C704C06640E42
:100CC0004902C90F9C70D970002A0AD100F0E7FAD6
:100CD0001870587800F0E3FA5870987800F0DFFA4E
:100CE0009870002010BD00007F7F7F0070B5044623
:100CF0000120002C49D025462035687A002806D1ED
:100D000028721120C0026060204600F041F80220E5
:100D100068722168CA2048622168532048622046D0
:100D200000F0D1FA002829D120688169174A1140C2
:100D3000816121688869A268E369104362691A4386
:100D40001043886121682069086120680169A289CF
:100D5000120411430161204600F0D8FA00280DD199
:100D600021688A69D200D2088A6122689169636A1F
:100D7000A6691943236A3343194391612268FF210D
:100D80005162002801D10121697270BDBFFF8FFB44
:100D900070B500682D499CB0884254D138210DA807
:100DA000FFF7C3F934216846FFF7BFF9284CE16B20
:100DB00020040143E163E16B01401B91FFF7F8FA66
:100DC0006846FFF7FDFA234E0C983168884224D01C
:100DD0000120400400900C980025002807D06846A8
:100DE0000C95FFF729FB002801D0FFF7BBF90C2079
:100DF0000D900120149513900F950DA8FFF7FEFCA0
:100E0000002801D0FFF7AEF930680C906846FFF774
:100E100013FB002801D0FFF7A5F90D484030C16948
:100E20000122D2031143C161E16B00150143E1636B
:100E3000E16B002201401B9111460220FFF7B4FA3A
:100E40000220FFF7A5FA1CB070BD0000002800408A
:100E50000010024018000020FEB506460446203669
:100E6000307A0B4601284BD001203072022070727C
:100E7000184620300090206800278069002A41D061
:100E8000400600D4DF7019789D7809040D43597825
:100E9000DA780902920511430D430099D86909785F
:100EA00009060D4305435869996905435868084385
:100EB00000902168CA204862216853204862586A1D
:100EC000C11F2068F9390DD0816901225202914376
:100ED00081612068C16D02221143C165FFF7F8F9F5
:100EE000019054E08269FF2101318A4382612068C8
:100EF000C16D01221143C165FFF7EAF9019024E0B9
:100F00000220FEBD400600D4DF70187800F0CFF953
:100F10000504587800F0CBF900020543987800F0FA
:100F2000C6F90543D878800505430098007800F09D
:100F3000BEF900060543D869B4E7FFF7C9F901997E
:100F4000411A7D20C00081421AD82068C068C007BD
:100F5000F3D020680564216800984864206881699E
:100F6000FF2201321143816120688169120120E072
:100F7000FFF7AEF90199411A7D20C000814206D9E0
:100F80002168FF204862032070723772FEBD20681E
:100F9000C0688007ECD52068856421680098C86423
:100FA00020688169012252021143816120688169B0
:100FB000120111438161074801680122D2041143E3
:100FC00001602168FF2048620120707237720020A2
:100FD000FEBD000080180240F8B5064605462036E2
:100FE000307A0B4601280FD0012737720220707229
:100FF000002A0BD0D8789C780004044358780978EC
:1010000000024903084317E00220F8BD5878C106E2
:1010100003D5EF2108400A305870D87800F047F91E
:101020000404587800F043F900020443987800F073
:101030003EF904431878400304432968CA204862F3
:10104000296853204862284600F03DF9002806D15F
:101050000748044028684460284600F057F92A6889
:10106000FF215162002800D1777200213172F8BD52
:101070003FFFFF00F7B5064605462036307A0C469E
:10108000012810D001203072022070722968CA2015
:101090004862296853204862284600F014F9002766
:1010A000002802D027E00220FEBD02980028286810
:1010B000806926D0400600D4E7702078A378000429
:1010C00003436078E1780002890508430343184828
:1010D00003402868036028688169012292049143D3
:1010E00081612169E068084329688A691043886141
:1010F000284600F00BF92A68FF215162002813D01E
:1011000014E0400600D4E770207800F0D0F8030423
:10111000607800F0CCF800020343A07800F0C7F834
:101120000343E0788005D1E7012171723772FEBD7B
:101130007F7F7F0070B504460068C168A02291439C
:10114000C160FFF7C5F87D260546F60006E0FFF70B
:10115000BFF8401BB04201D9032070BD2068C068B1
:101160008006F4D5002070BD03490A6803235B02A2
:101170009A4302430A60704700000140094910B5D4
:10118000401E884201D9012010BD074C6061032137
:10119000081F00F03FF90020A06107202061002017
:1011A00010BD0000FFFFFF0000E000E0FEE70000D0
:1011B000F0B591B014216846FEF7B7FF002428214E
:1011C00006A80594FEF7B1FF3348324984600160F8
:1011D0007F21C16044618461FF21C46101610121FB
:1011E000890744620162FFF781FD002801D072B6D1
:1011F000FEE7102568460570232646702021817081
:10120000019403940122694623480494FFF732FFB6
:10121000002801D072B6FEE701276846077506214F
:101220004175072181752121C1753A4605A91A48E2
:10123000FFF7D2FE002801D072B6FEE768460576B9
:101240004676302181760120800707940D9009941D
:101250000A940B940C9408A80776FF2001300F9095
:10126000012206A90C48FFF7F7FD002801D072B64D
:10127000FEE7402069468876C0000F90012206A94B
:101280000548FFF7E9FD002801D072B6FEE711B06E
:10129000F0BD0000002800402C000020FEE70109FE
:1012A0000A2200075143000F4018C0B270470022C5
:1012B000014602E00A39C9B2521C0A29FAD21007C3
:1012C000000E08437047F8B5044600680025C16861
:1012D000490618D4C16880221143C160FEF7F8FFA7
:1012E00027460646203708E0FEF7F2FF811B7D20E7
:1012F000C000814201D903257D722068C068400684
:1013000001D4032DF0D12846F8BD0000F8B5124CE9
:101310000026E16880229143E160A16905468906C3
:101320002035002907DBFFF705FF002811D0032037
:10133000687206460DE0A1692027B943A161FFF755
:10134000F9FE002802D0032068720646A0693843DF
:10135000A0613046F8BD00000028004010B50248EA
:10136000FFF754FC10BD00002C00002010B5FEF764
:10137000B5FF10BD30B593B038216846FEF7D5FEF5
:1013800000250224E00103900F95009440200E9563
:10139000059004953020099046200A900920109568
:1013A000400411950B900794A0060C90089400013E
:1013B0000D906846FFF722FA002801D072B6FEE7CA
:1013C00007200EA931C102210EA81195FFF724F9BB
:1013D000002801D072B6FEE713B030BD01200249EB
:1013E000C00688607047000000ED00E00FB410B543
:1013F00004A9074B02AA039800F03EF8044602A98C
:10140000002000F0E1F9204610BC08BC04B01847E9
:10141000C91700088307FF22DB0E9A408907090ECF
:101420009940002808DB830809489B001B181868AE
:1014300090430843186070470007000F083883087E
:1014400004489B001B18D86990430843D861704733
:1014500000E400E000ED00E002E008C8121F08C14F
:10146000002AFAD170477047002001E001C1121F25
:10147000002AFBD170470000FFB58FB0054600265B
:1014800006E025280AD0129A119990476D1C761C07
:1014900028780028F5D1304613B0F0BD002402941E
:1014A0000121B54A009400E004436D1C2B780846E6
:1014B000203B98401042F7D128782A280ED00222EB
:1014C000287801463039092916D802990A23594348
:1014D0003039401814436D1C0290F1E7109802C88F
:1014E00002911090002904DA01204003044348428D
:1014F0000290022004436D1C28782E2817D1042066
:10150000044368786D1C2A280CD110986D1C02C801
:10151000009110900BE000990A2251433039401895
:101520006D1C00902878014630390929F3D92878B4
:101530006C2810D006DC4C281AD068280ED06A28F7
:1015400017D104E0742813D07A2812D110E00120BA
:10155000400504430CE00121090501E003210905D0
:101560000C436978814203D10120000524186D1CC9
:101570006D1C2878692874D006DC00288BD063287D
:1015800027D0642806D16CE06E2808D073282CD0B0
:10159000752878D0129A11999047761C5FE0600206
:1015A000400F022809D003280DD0042810980168A4
:1015B0000DD00E60001D109051E01098F2170168D8
:1015C0000E604A60F6E7109801680E80F2E70E7030
:1015D000F0E710986A4601781173001D1090002002
:1015E000507303A80190012005E0109802C80191F2
:1015F00010900020C04361070CD5002700E07F1C3D
:1016000000998F420FDA8742F9DB0199C95D002901
:10161000F5D108E0002700E07F1C8742FCDB019940
:10162000C95D0029F8D102982146C01B0290129B87
:10163000119A00F0B3F88019C61907E001980199D2
:101640000078491C0191129A119990477F1EF5D29A
:101650002146129B119A029800F090F886196D1C91
:1016600016E70A200190109901C910916102490FF3
:10167000032900D100B2042900D140B2002803DAC6
:1016800040422D2103E00DE0210504D52B216A46BF
:101690001173012103E0E10711D02021F7E70CAF1E
:1016A0000C9114E00A200190109901C91091610277
:1016B000490F032900D180B2042900D1C0B2002112
:1016C000EDE70199FEF714FD30317F1E39700028D7
:1016D000F7D104A8C01B20300190600704D5012079
:1016E00000048443009801E00120009001998842A1
:1016F00001DD401A00E00020411800900C98091804
:101700000298401A0290E00306D42146129B119AD7
:10171000029800F043F8861900200D9008E003A914
:10172000085C129A119990470D98401C761C0D90F8
:101730000C998842F3DBE0030CD52146129B119AE9
:10174000029800F02BF8861904E0129A30201199C3
:101750009047761C0099481E00900029F5DC05E0B2
:101760003878129A7F1C11999047761C0199481E6F
:1017700001900029F4DC6BE709280100F8B5044664
:1017800000251E461746880404D405E0394620206B
:10179000B0476D1C641EF9D52846F8BDFFB5044658
:1017A000002581B01E46C80301D5302700E0202760
:1017B000880404D505E038460399B0476D1C641EC3
:1017C000F9D5284605B0F0BD0A68531C0B601070AF
:1017D0007047000088B0FEF789FDFFF7CBFD1421AC
:1017E0006846FEF7A2FC2048416B01242143416377
:1017F000406B052520402D0705900022202128461A
:10180000FEF760FD002120200291039100900194D9
:1018100069462846FEF7A8FCFFF7CAFC1348046097
:101820007D263601114D00222D1D2C46083402A9BB
:101830000F48FFF72FFA002201A90D48FFF708FA19
:101840006946887A00904B7A0A7A0AA12846FFF7FF
:10185000CDFD6946C879801900908B794A7908A135
:101860002046FFF7C3FDDDE7001002400000002026
:101870002C0000202532643A2532643A2532640077
:101880002532642D2532642D2532640000000000CD
:101890000000000000000000000000000000000048
:1018A0000000000000000000000000000100000037
:1018B0000200000003000000040000000600000019
:1018C000070000000800000009000000EC180008F4
:1018D000000000202C00000058140008181900080F
:1018E0002C0000202C0400006814000800000000F8
:1018F00068683A6D733A737364642D6D6D2D7979F0
:1019000079790000000200000100000004000000DE
:08191000000000000024F400B7
:04000005080000BD32
:00000001FF
