:020000040800F2
:1000000018040020D500000881050008FD01000843
:1000100000000000000000000000000000000000E0
:10002000000000000000000000000000850500083E
:10003000000000000000000083050008870500089C
:10004000E7000008E7000008E7000008E7000008F4
:10005000E7000008E7000008E70000086501000865
:10006000E7000008E7000008E7000008E7000008D4
:10007000E7000008E7000008E7000008E7000008C4
:10008000E7000008E7000008E7000008E7000008B4
:10009000E7000008E7000008E7000008E7000008A4
:1000A000E7000008E7000008E7000008E700000894
:1000B000E7000008E7000008E7000008044885465C
:1000C00000F03EF8004800472D080008C046C04632
:1000D000180400200448804704480047FEE7FEE774
:1000E000FEE7FEE7FEE7FEE7D9050008BD000008D1
:1000F00030B50B46014600202022012409E00D46C0
:10010000D5409D4205D31D469540491B2546954047
:1001100040191546521E002DF1DC30BDD2B201E06F
:100120000270401C491EFBD270470022F6E710B552
:1001300013460A4604461946FFF7F0FF204610BD55
:10014000064C0125064E05E0E36807CC2B430C3C2A
:1001500098471034B442F7D3FFF7B4FFC80800083B
:10016000E808000810B51A4A012149031369084636
:1001700098432BD11161174C17496068401C60608F
:10018000884205DD15A20121002000F01FFB11E0CF
:100190001749884201DD05200BE01649884201DD40
:1001A000062006E0632801DD072002E0092801DDC2
:1001B00008202060074810A10830626800F014FA97
:1001C000044A20780832012100F000FB10BD000035
:1001D00000180240000000209F86010020202121FD
:1001E000214552524F5221212120202000000000A1
:1001F0000F270000E703000025640000FEE7000071
:1002000030B5047A00233A490268002C60D0002AF5
:1002100014D0447A002C1ED0012C24D0022C25D0DE
:100220000123847A002C09D0314A803A012C25D050
:10023000022C2CD0032C2ED0022213434268002A19
:1002400044D0447A002C2FD0012C35D0022C36D04B
:10025000042003433AE04C6894434C6002680C6805
:1002600014430C60DDE70C68944301E00C68144310
:100270000C6002684C6814434C60D2E7046855680F
:10028000A54355600468156825431560D6E70468E2
:100290001568A54302E004681568254315600468E5
:1002A000556825435560C9E74C6994434C614068E3
:1002B0000A6902430A6109E00C69944301E00C6990
:1002C00014430C6140684A6902434A61184630BDD4
:1002D0000C6894430C6002684C6894434C6042681C
:1002E0000C6994430C6140684A698243EDE7000061
:1002F00080180240F0B500244CE00123A3401A40CE
:1003000047D04B68012B01D0022B0FD18E68856836
:10031000134653435F00DF19BD4373431D4385609C
:10032000CB684568534395431D4345600F69C668D4
:10033000134653435D005D19AE435F433E43C660C1
:100340004E68022E1FD1FF2A0ED817464A69066A48
:1003500094461A467A437A431701BF1ABE4367464A
:100360007A43164306620EE0160A324672434F691C
:1003700072437243BC461601B71A466ABE436746CB
:100380007A43164346624A6806685343AE431E43A7
:100390000660641C0A681346E340AED10020F0BD3D
:1003A00008B504494A6B02434A63496B0140009116
:1003B00008BD00000010024010B57D21C900FFF704
:1003C00097FE0449401E48610020886105200861AD
:1003D00010BD000000E000E0014908607047000027
:1003E00010000020F0B589B000240694079418216D
:1003F00068460894FFF799FE0420FFF7D1FF01201B
:10040000FFF7CEFF0220FFF7CBFF012005210907F0
:100410008862022088620420886208208862102096
:1004200088622020886240208862802088624F494C
:100430000120886202208862042088624C49086E8C
:100440000722120290434A151043086610010690D5
:10045000012508A8057044700226867006A8FFF7DB
:10046000CFFE4448C268032189068A43C2600268FD
:100470008A430260052000950294039469460007B0
:1004800001950494FFF736FF052002940394694612
:100490000007009601950494FFF72CFF04200090BC
:1004A0000520029403946946019504940007FFF720
:1004B00021FF0820009005200294039469460195CD
:1004C00004940007FFF716FF102000900520029407
:1004D00003946946019504940007FFF70BFF202061
:1004E0000090052002940394694601950494000746
:1004F000FFF700FF40200090052002940394694616
:10050000019504940007FFF7F5FE8027052002946B
:10051000039469460007009701950494FFF7EAFEEB
:100520000095029403946946104801950494FFF7DE
:10053000E1FE0294039469460C48009601950494E8
:10054000FFF7D8FE042000900294039469460195B9
:1005500004940648FFF7CEFE074801680902090A1D
:1005600001600648076009B0F0BD000000040050BB
:100570000C1802400008005004E400E000E100E034
:10058000FEE770477047704710B511480168821543
:100590001143016001684905C90FFBD081680F2232
:1005A0001202914381608168C908C90081603822C4
:1005B00081681142FCD18168072212039143816056
:1005C000044C2046FFF7F8FE2046FFF705FF10BD5C
:1005D000001002400024F40001200249C006886097
:1005E0007047000000ED00E00FB410B504A9074B00
:1005F00002AA039800F01CF8044602A9002000F0AB
:10060000BFF8204610BC08BC04B01847810700089A
:1006100002E008C8121F08C1002AFAD170477047CB
:10062000002001E001C1121F002AFBD17047000029
:10063000FFB58DB00446002506E025280AD0109AA3
:100640000F999047641C6D1C20780028F5D128462E
:1006500011B0F0BD00270121484A009700E0074390
:10066000641C23780846203B98401042F7D120783C
:100670002E2817D1042007436078641C2A280CD147
:100680000E98641C02C800910E900BE000990A229B
:10069000514330394018641C0090207801463039AD
:1006A0000929F3D920780028D1D0642808D06928F6
:1006B00006D075281ED0109A0F9990476D1C5BE0EC
:1006C0000A200E99019001C90E91002802DA4042D9
:1006D0002D2102E0390504D52B216A461172012132
:1006E00003E0F90704D02021F7E70BAE0B910DE0F2
:1006F0000021FAE70A200E99019001C90E91F7E74F
:100700000199FFF7F5FC3031761E31700028F7D1E2
:1007100003A8801B20300190780701D5009801E0E4
:10072000012000900199884201DD401A00E000207C
:100730000027009006E002A8109AC05D0F9990472C
:100740006D1C7F1C0B988742F5DB04E0109A30206B
:100750000F9990476D1C0099481E00900029F5DC08
:1007600005E03078109A761C0F9990476D1C01991E
:10077000481E01900029F4DC641C65E7092801008B
:100780000A68531C0B601070704700200221491C3E
:100790006329FCDB401C6328F8DB704700B5382078
:1007A00000F020F80C2000F01DF8062000F01AF8E8
:1007B000012000F017F800BD00B5002901D040303D
:1007C000C0B28021084300F00DF800BD10B51446FA
:1007D000FFF7F2FF02E000F017F8641C2078002811
:1007E000F9D110BD10B50346FFF7CFFF054A00242D
:1007F000546105200007436104205061FFF7C5FFE5
:10080000546110BD0004005010B50346FFF7BDFF52
:10081000054A012454610520000743610520506109
:10082000FFF7B3FF546110BD0004005008B51B482A
:10083000012102680A4302600068084000901748DE
:1008400009074038C26B0A43C263C06B084000907E
:1008500013480321026849020A430260FFF794FE2D
:10086000FFF7C0FDFFF79AFFFFF78FFF00210DA2F2
:100870000846FFF7ABFF10A201210B20FFF7A6FFF0
:100880000F4C10A1204608306268FFF7ADFE2246EB
:10089000207808320121FFF799FFFEE7401002405F
:1008A00000000140496E7465727275707420436F68
:1008B000756E74657200000074696D6573000000E8
:1008C0000000002025640000E80800080000002067
:1008D0001400000010060008FC08000814000020A6
:1008E00004040000200600080900000000000000C9
:0C08F00000000000000000000024F400E4
:04000005080000BD32
:00000001FF
