:020000040800F2
:1000000090040020D50000086D140008311300088A
:1000100000000000000000000000000000000000E0
:100020000000000000000000000000007114000843
:1000300000000000000000006F14000873140008A6
:10004000E7000008E7000008E7000008E7000008F4
:10005000E7000008E7000008E7000008B503000813
:10006000E7000008E7000008E7000008E7000008D4
:10007000E7000008E7000008F5140008E7000008A2
:10008000E7000008E7000008E7000008E7000008B4
:10009000E7000008E7000008E7000008E7000008A4
:1000A000E7000008E7000008E7000008E700000894
:1000B000E7000008E7000008E7000008044885465C
:1000C00000F044F900480047D5160008C046C04675
:1000D000900400200448804704480047FEE7FEE7FC
:1000E000FEE7FEE7FEE7FEE7E5140008BD000008B6
:1000F00030B50B46014600202022012409E00D46C0
:10010000D5409D4205D31D469540491B2546954047
:1001100040191546521E002DF1DC30BDD2B201E06F
:100120000270401C491EFBD270470022F6E710B552
:1001300013460A4604461946FFF7F0FF204610BD55
:1001400003460A780270401C491C002AF9D118465F
:1001500070470000F0B50C465C4085B0E40FE40742
:1001600003944C000026640859009446490802464E
:100170000296224321D062460A431ED06200570DE8
:100180004A000E032303550D012402462C49240581
:10019000781B1B0B360B4018234326436146009007
:1001A0001C46501AB44103D30098401C009002E052
:1001B000921800985B41002803DA0020014605B040
:1001C000F0BD0020012109050746864611E064467E
:1001D0001D46141BB54106D36546521BB3417446F8
:1001E00007430C43A646CD07400849082843921808
:1001F0005B4105460D43EAD11046184313D06046D3
:10020000194650407140084306D06046101AB34169
:1002100006D20122002306E000220123DB0702E0D0
:100220000122D2435310009874460105381C6141E5
:10023000029C039D0019694100F028F8BFE7000007
:10024000FD03000070B54B005B0803430BD04B006F
:100250005C0D002633466542B341D417AD1AA34165
:1002600002DB0020014670BD12053018514170BDFF
:100270000EB505490291002100910A460B460191F5
:1002800000F011F803B000BD3304000010B5002BDE
:1002900008DA0024401C614192185B411A4301D1E5
:1002A0004008400010BDF0B51FB482B005460C00F8
:1002B00003D0084601F0C4F902E001F0C1F9203092
:1002C000024600902146284600F052F8049B059A09
:1002D00004460F4618431143084314D018461043F0
:1002E0001BD0009840210A1A1846059900F050F8D2
:1002F00005460E46009A0599049800F039F808431F
:1003000005D0012004E02046394607B0F0BD0020AA
:10031000C11705430E432C43374300990E986305DC
:10032000401A7905E40A00220C43FD0A0A3002D57E
:1003300000200146E9E70105101969410C9C0D9D5B
:1003400000196941FFF7A2FFDFE70000064C012515
:10035000064E05E0E36807CC2B430C3C984710346D
:10036000B442F7D3FFF7AEFE98170008B81700089D
:1003700010B5202A04DB0146203A9140002010BD30
:10038000914020239C1A0346E3401943904010BD3E
:1003900010B5202A04DB0846203AD040002110BDC9
:1003A0000B46D340D0402024A21A9140084319465E
:1003B00010BD000010B501246403204600F022F8AF
:1003C00000280CD00D4804610D48C168002907D0F1
:1003D00001290AD0002902D18168891C816010BDE1
:1003E00081680E29F8DB012103E08168062902DC1F
:1003F0000021C16010BD891EF0E700000018024016
:1004000000000020064A014612680020044B0A4002
:10041000803B1B690B4202D0002A00D001207047AC
:100420008018024070B5044600F0C8F80546601C0C
:1004300002D004480078241800F0C0F8401BA04205
:10044000FAD370BD30000020FCB5002301259AE0EE
:1004500022462C469C4022406FD04E68012E05D08B
:10046000022E03D0112E01D0122E16D1866803273A
:10047000B4465E00B646B7406646BE43B446CF6853
:100480007646B7406646374387604668A6430C7990
:10049000E406E40F9C4034434460C6685F000324D4
:1004A000BC40A446A6438C68BC403443C4604C683E
:1004B000022C01D0122C14D1DC08A40024180194C1
:1004C000266A5C07B646E60E0F24B44000967646D0
:1004D000A643B6460C69009EB44076462643019C6E
:1004E000266204686646B4430E79B607B60FBE406E
:1004F000264306604C68E40044D59E08254CB600AF
:100500003419A446246E9E07F60E0F27B740BC434D
:1005100005273F07B84201D1002710E01E4FB8421F
:1005200001D101270BE01D4FB84201D1022706E09F
:100530001B4FB84202D1032701E023E00527B74053
:10054000274364462766134E803634684F689443C9
:10055000FF0300D51443346074684F689443BF03AD
:1005600000D5144374600B4C26684F689643FF0215
:1005700000D51643266066684F689643BF0200D5D3
:10058000164366605B1C0A681446DA4000D05FE7D9
:10059000FCBD00000018024000040050000800509C
:1005A000000C00500069084000D001207047002A6C
:1005B00001D0816170478162704700000148806806
:1005C00070470000300000200248816802788918D6
:1005D000816070473000002010B508480024016891
:1005E000821511430160204600F00AF8002801D06E
:1005F000012401E000F028F8204610BD0020024050
:1006000070B50F4E002431780546002915D07D20A5
:10061000C000FFF76DFD01460A480068FFF768FD5E
:1006200000F044FB002808D1042D06D20022294600
:10063000401E00F02FF8756000E00124204670BDD8
:10064000300000203C00002008B50B480168012262
:100650001143016000681040009007484038C26BA9
:1006600001040A43C263C06B0840009003204002AB
:1006700000F012FB08BD000040100240002805DB1E
:10068000C106C90E0120884001490860704700007A
:1006900000E100E010B500F0EBFF10BDF8B50F462B
:1006A000060043D04D4D28684007400FB84213D292
:1006B0002868C008C00038432860FFF77FFF044661
:1006C00005E0FFF77BFF011B4548814261D82868A0
:1006D0004007400FB842F4D13068424C81070DD535
:1006E000400704D5A068072109030843A060A0685B
:1006F0000F2109028843B1680843A0603078C00721
:1007000032D0706801280AD002280BD000280FD000
:100710003449403103280ED0C969890704E02168B3
:10072000890301E021688901002906DB0120F8BD69
:1007300021684905F8E7096AEFE7A168C908C90017
:100740000143A160FFF73AFF009006E0FFF736FF94
:100750000099411A224881421BD8A06838210840DC
:100760007168C9008842F1D128684007400FB8423B
:1007700017D91A480168C908C90039430160FFF751
:100780001DFF054607E0FFF719FF411B1448814292
:1007900001D90320F8BD114800684007400FB84256
:1007A000F1D13078400706D5A068072109038843B6
:1007B000F1680843A06000F031F8A1683C22890983
:1007C0001140094A515CC906C90EC8400749086072
:1007D00007480068FFF714FFF8BD00000020024042
:1007E0008813000000100240381700083C00002069
:1007F000340000200648074900688968064A490411
:10080000490F8900515CC906C90EC84070470000F5
:100810003C000020001002407817000810B5204C62
:10082000A068204A8006400F16D0A0688006410FBD
:10083000501001290FD0A1688906490F022912D052
:10084000A0688006400F042823D0A0688006400FCF
:10085000032821D0002010BD206801218004400F12
:100860008140104612E0E1688B07E1689B0F490662
:10087000490F491C032B00D01046FFF739FCE168F3
:100880004904490E4843E168490F491CFFF730FC11
:1008900010BD0120C00310BD7D20000210BD00006E
:1008A000001002400024F400F8B504007ED0207847
:1008B0003827C007EF4D002846D0A868E9683840BF
:1008C0008907890F102802D008280BD001E00329DE
:1008D00008D001206268000482420AD129680143DD
:1008E000296015E0286880032ED560680028DDD0D7
:1008F0002AE0052301211B0489049A422A6802D1B7
:100900000A432A60EAE782432A602868884328600D
:10091000606800280CD0FFF751FE064604E0FFF7A0
:100920004DFE801B642873D828688003F7D50BE040
:10093000FFF744FE064604E0FFF740FE801B6428F4
:10094000F1D828688003F7D42078800769D5A86893
:10095000E96838408A070721920FC902102802D09F
:10096000002813D001E0022A10D0E068002846D009
:10097000286888432169084328602868FF210131DD
:1009800008432860FFF71AFE06462CE02A68520545
:1009900002D5E268002A89D06A687F231B029A4345
:1009A00063691B021A436A60002800E08DE00ED1E3
:1009B0002868884321690843286028680121800449
:1009C000400F8140AC48FFF793FBAC490860AC484E
:1009D0000068FFF715FE002877D122E0FFF7EEFD53
:1009E000801B02289FD828684005F7D568687F21BA
:1009F00009028843616909020843686011E02968B7
:100A0000FF20013081432960FFF7D8FD064605E04D
:100A100098E0FFF7D3FD801B022884D828684005A2
:100A2000F7D42078974E00072ED5A8688006400F8F
:100A300003280AD0A0690028306A16D00121084393
:100A40003062FFF7BBFD07460BE0306A80071BD51D
:100A5000A06900289FD017E0FFF7B0FDC01B022857
:100A600070D8306A8007F7D50EE040084000306249
:100A7000FFF7A4FD074604E0FFF7A0FDC01B022816
:100A800060D8306A8007F7D4207840076CD5A86812
:100A900000278006400F042818D0E86BC00008D457
:100AA000E96B012000070143E963E96B014001277D
:100AB000009175480168C90519D401688215114370
:100AC0000160FFF77BFD00900DE083E0F069800797
:100AD0004AD5A06800287DD046E0FFF76FFD009959
:100AE000401A02282ED868480068C005F5D5A168CC
:100AF000012910D004200529F16911D049084900C5
:100B0000F161F1698143F161A068002816D0FFF717
:100B100055FD00900EE0F06901210843F061F3E714
:100B20000143F161F7E7FFF749FD0099411A574882
:100B300081426FD8F0698007F5D50EE0FFF73EFDE2
:100B4000009007E066E0FFF739FD0099411A4F4831
:100B500081425FD8F0698007F5D4002F04D0E86B9C
:100B6000012109078843E863E06900287FD0A9686C
:100B70008906490F022953D0012636060228286823
:100B80000DD0B0432860E86880088000E860E8681D
:100B90003F490840E860FFF711FD04463CE0B043E0
:100BA0002860FFF70BFD074604E0FFF707FDC01BB9
:100BB00002282FD828688001F7D4616A206AA26AC7
:100BC0000843E16A120211430843216B0843616B39
:100BD000084300E049E0E9682E4A11400843E86014
:100BE000286830432860E868012109070843E86065
:100BF000FFF7E4FC044604E0FFF7E0FC001B0228DA
:100C000008D828688001F7D531E0FFF7D7FC001B32
:100C1000022801D90320F8BD28688001F5D426E018
:100C20000128F8D0E868226A8107890F91421CD117
:100C30007021626A0140914217D17F21A26A0902A4
:100C400001401202914210D11F214904E26A014081
:100C500091420AD107214906226B0140914204D1F9
:100C6000400F616B4007884201D00120F8BD002091
:100C7000F8BD0000001002400024F4003C000020F9
:100C80003400002040100240007000408813000033
:100C9000FFFFFEEE8C80C11103490A6803235B024B
:100CA0009A4302430A60704700000140094910B5A9
:100CB000401E884201D9012010BD074C606103210C
:100CC000081F00F0D5FC0020A06107202061002053
:100CD00010BD0000FFFFFF0000E000E0704770471C
:100CE0007047000070B5034620331A7F012A4BD0AD
:100CF00001221A770325CA682D02AA438D6800686D
:100D00002A430125AD02AA434D6800242A43012548
:100D1000ED02AA430D682A4301252D03AA430D695C
:100D20002A4301256D03AA434D692A430125AD03DA
:100D3000AA430D6B2A430F252D04AA430D8B2D04C6
:100D40002A43124DA84204D101263607B243CE6988
:100D50003243A84214D10F252D05AA430D8D2D0530
:100D60002A4301252D06AA430D6A2A4301256D0653
:100D7000AA434D6AC96A2A4301256D07AA430A435B
:100D800042641C77002070BD022070BD002C014021
:100D9000F0B5034620331A7F012A2BD001221A779F
:100DA00002225A7704686268A568134FBC4205D1D5
:100DB00016460F22120596434A6832437026B24304
:100DC0000E68164366600068B84209D00122920797
:100DD000904205D0094A904202D0094A904204D17B
:100DE000802289689543294381600120587700203B
:100DF0001877F0BD0220F0BD002C01400004004037
:100E00000040014070B5017F01293CD1204C218870
:100E1000002902D0012906D029E0002100F071FA52
:100E20002061012022E0002100F06BFA606121695D
:100E3000884201D9401A05E0884225D2154A511A44
:100E40000818401CA061FFF713FA05460E46FFF78D
:100E5000D1FCFFF70DFA2A463346FFF77BF90B2248
:100E6000D243FFF7EFF9E162A06200202080012168
:100E7000C9020948FFF796FB012807D007A10448DB
:100E80001C30FFF75DF970BD72B6FEE705A1F6E70D
:100E900000000020FFFF000000080050486F752090
:100EA000000000005169616E00000000F8B50646C0
:100EB00004462036307F0D46012839D00120307796
:100EC000002A37D0042A44D0082A55D02B6820683D
:100ED0009E466F682B7B016ABC4601221203914338
:100EE0000162C169026A03273F02B94367463F02B4
:100EF0000F430F2109038F431907090C05233943B9
:100F00005B039A4373460A273B401B031343C161AB
:100F100003622068C269032189028A43C261206892
:100F2000C169AA6812021143C16100203077F8BD7F
:100F30000220F8BDEB6806CD083D206800F03AFBC2
:100F4000206881690C229143816120688169AA68C7
:100F50000FE0EB6806CD083D206800F057FB2068E5
:100F60008269032189028A43826120688169AA68B3
:100F7000120211438161D8E72868216884462B7BDF
:100F80006F68086AFF22013290430862C8690A6AE2
:100F9000800880003843F027B8431B071B0E03432B
:100FA00005204002824360460A2738400002104371
:100FB000CB6108622068C1690C229143C16120683D
:100FC000C169AA68AFE770B5040005D02546203591
:100FD000687F002802D006E0012070BD002028773D
:100FE000204600F017F802206877211D206800F0E5
:100FF00089FA012240342272AA77EA77227062705D
:10100000A270E27022716271A271E2716A770020AF
:1010100070BD000010B586B0044614216846FFF785
:1010200084F816492068884225D115480268C11401
:101030000A43026000680840059011484038416B3F
:10104000012211434163406B0221104005901002C0
:1010500000900020029003900191049105206946C0
:101060000007FFF7F1F9002211460E20FFF712FBEF
:101070000E20FFF703FB06B010BD0000002C01405E
:101080004010024030B50246044620324034054646
:1010900000290CD004290DD008290ED00C290FD01E
:1010A00010290FD0E078E37901280FD10CE0907F70
:1010B0002379F9E7D07F6379F6E72078A379F3E71E
:1010C0006078F0E7A078EEE7012B01D0012030BD79
:1010D000022000290CD0042911D0082915D00C2990
:1010E00039D0102939D0E070E0710C2914D136E0E4
:1010F000907720712A68D3680343D3600CE0D077DF
:1011000060712868C268042304E02070A071286818
:10111000C26808231A43C2600122286800F03CFA22
:10112000114928680122884208D09107884205D0D9
:101130000E49884202D00E49884207D181680D4B82
:101140001940062905D0DB1F994202D001681143DE
:101150000160002030BD6070C6E7A070C4E7286859
:10116000C2681023D6E70000002C014000040040B4
:10117000004001400700010070B5044600680169A5
:101180000025C9438907002915DBC168C9438907C0
:1011900011D4E91E01610120207720688069800751
:1011A000204602D0FFF72EFE04E000F0A7F820460C
:1011B00000F0A5F8257720680169C943490717D4CD
:1011C000C168C943490713D40421C94301610220FE
:1011D0002077206880698005800F204602D0FFF7C5
:1011E00011FE04E000F08AF8204600F088F8257728
:1011F00020680169C943090716D4C168C9430907B2
:1012000012D40821C9430161042020772068C069F5
:101210008007204602D0FFF7F5FD04E000F06EF8ED
:10122000204600F06CF8257720680169C943C9069B
:1012300017D4C168C943C90613D41021C943016139
:10124000082020772068C0698005800F204602D0E2
:10125000FFF7D8FD04E000F051F8204600F04FF809
:10126000257720680169C943C90708D1C168C94306
:10127000C90704D1891E0161204600F041F82068A9
:101280000169C943090609D4C168C943090605D4DF
:101290008021C94301612046FFF721FD20680169D3
:1012A000C943C90508D4C168C943090604D4124911
:1012B00001612046FFF712FD20680169C943490614
:1012C00009D4C168C943490605D44021C943016115
:1012D000204600F02CF820680169C943890609D42A
:1012E000C168C943890605D42021C943016120464C
:1012F000FFF7F6FC70BD0000FFFEFFFF7047704770
:10130000704702460020002908D0042909D0082986
:101310000AD00C2901D11068006C70471068406B2E
:1013200070471068806B70471068C06B70477047DB
:10133000FEE70000F0B587B014216846FEF7F5FE21
:101340002048426B04210A434263426B0A400592E3
:10135000416B012529434163416B29400591426B53
:1013600008210A434263406B174E08400590002253
:101370000F213046FFF71BF9E8020024134F0090BD
:101380000194694602943846FFF75EF868030090BE
:101390000F480190694602943846FFF755F80F2030
:1013A000009002946946019503943046FFF74CF88B
:1013B000002211460720FFF76DF90720FFF75EF9BD
:1013C00007B0F0BD00100240000C005000080050B3
:1013D0000000211010B594B00024129413941194BD
:1013E0000D940E940F94342168461094FEF79DFEE0
:1013F0001B481A4901601B498460416004614461D3
:1014000019498461C160FFF7DEFD002801D072B682
:10141000FEE71194129411A911481394FFF7B8FC38
:10142000002801D072B6FEE701200E900D940F94B3
:1014300000220DA910940A48FFF738FD002801D0BA
:1014400072B6FEE70794694605480B94FFF74AFC1D
:10145000002801D072B6FEE714B010BD002C014088
:1014600040000020FF0F0000FFFF0000FEE7704774
:10147000704710B5FFF7A8F810BD30B593B038210C
:101480006846FEF752FE00250224E00103900F9506
:10149000009440200E9505900495302009901E2060
:1014A0000A9009201095400411950B900794A0060E
:1014B0000C90089400010D906846FFF7F5F900289C
:1014C00001D072B6FEE707200EA931C100210EA897
:1014D0001195FFF7E3F8002801D072B6FEE713B0CC
:1014E00030BD000001200249C0068860704700003E
:1014F00000ED00E010B50248FFF73EFE10BD000011
:1015000040000020F0B502681D4B0124A4071D4DCA
:10151000984203D0A04201D0A84203D17026B24322
:101520004E683243184E194F98420DD0A0420BD04E
:10153000A84209D0164CA04206D0B04204D0B8420E
:1015400002D0144CA04204D103242402A243CC684C
:1015500022438024A2434C69224302608A68C2620B
:101560000A688262984206D0B04204D0B84202D0E3
:10157000084A904201D10969016301214161F0BD2E
:10158000002C0140000400400040014000440140A4
:10159000002000400048014010B5CB06DB0E0121C1
:1015A000046A99408C430462016A9A4011430162C3
:1015B00010BD000070B5046A6408640004628469A8
:1015C000056A0F4EB04209D00126B607B04205D0D9
:1015D0000C4EB04202D00C4EB04202D1A408A4007E
:1015E00000E001221443F02294431A07120E0A234A
:1015F00022439D43194029438261016270BD00006E
:10160000002C0140000400400040014070B5046A15
:101610001025AC4304628569046A03263602B5438B
:1016200012022A430F252D031B071B0CAA43134349
:10163000A02209019443114021438361016270BDDE
:101640002021020C01D010211046020A01D01046C0
:101650000839020901D01046091F820801D010463E
:10166000891E420801D0881E7047081A7047000082
:101670008307FF22DB0E9A408907090E9940002854
:1016800008DB830809489B001B181868904308432F
:10169000186070470007000F0838830804489B0053
:1016A0001B18D86990430843D861704700E400E0F4
:1016B00000ED00E002E008C8121F08C1002AFAD1BC
:1016C00070477047002001E001C1121F002AFBD1C2
:1016D00070470000FEF780FFFFF7CFFEFFF72AFEFE
:1016E000FFF778FE00211148FFF7CCFC104D114F99
:1016F000AE1C002801D072B6FEE7E86800280BD0C7
:1017000000240320001B305C7861A868FEF78AFE85
:10171000641C042CF5DBF0E70024305D7861A868D8
:10172000FEF780FE641C042CF7DBE6E74000002097
:1017300000000020000C005000000000000000002D
:101740000000000000000000000000000000000099
:101750000000000000000000010000000200000086
:101760000300000004000000060000000700000065
:101770000800000009000000000000000000000058
:101780000000000000000000010000000200000056
:101790000300000004000000B8170008000000204B
:1017A00040000000B4160008F817000840000020B0
:1017B00050040000C41600080000080402010000E4
:1017C0000400000000000000000000000000000015
:1017D0000000000000000000000000000000000009
:1017E00000000000000000000100000004000000F4
:0817F000000000000024F400D9
:04000005080000BD32
:00000001FF
